:1000000004308A00AA2C0000FF00030E8301A10027
:100010000A08A0008A010408A2007708A300780853
:10002000A4007908A5007A08A600831383128B1E0A
:100030001B280B192C28220884002308F700240809
:10004000F8002508F9002608FA0020088A00210E89
:100050008300FF0E7F0E09008A110A1240280A1041
:100060008A100A1182073F3406345B344F346634F9
:100070006D347D3407347F346F3440343934713417
:1000800081012C08FC3E03185928043E62282808E8
:1000900088008601592829088800013086005928DF
:1000A0002A0888000230860059282B08880003306F
:1000B0008600AC0A2C08033C031CAC010B118A110E
:1000C0000A121B280A108A100A11820747284B2897
:1000D00050285528401083160512831205129F30B0
:1000E000F700F70B71287428831605161330F700F4
:1000F000F70B78287B28051683124010051A401448
:100100009F30F700F70B8228852800304018013017
:10011000F80008000B138B138B1B8B28F830831609
:1001200086000030880083121F10F03097059D056F
:1001300083161F149F141F159F1107309C0005087C
:1001400085000330F700F70BA3281C0883120D135A
:100150009412AD122D088316870083122D162D08D8
:10016000831687008312AD112D0883168700013096
:10017000831294000030831694000108C0390138BE
:100180008100831290010030F8009200FF30831646
:100190009200831281018E018F018E019101C03086
:1001A0008B048B166A208A110A12CA2CC1014108DD
:1001B000073C031C06290130F7004108F800031929
:1001C000E5280310F70DF80BE1287708400503191F
:1001D000F7288316051283120512000083160516F0
:1001E0001330F700F70BF228F52803298312831642
:1001F0000512831205121330F700F70BFD280029B2
:100200008316051600008312C10AD7280800413062
:1002100084008313000803191B290130F800F7013B
:10022000F70B1029F80B0F294A30F700F70B1629A6
:100230001929800B0D290800C001C1014008073CA5
:10024000031C4029831605128312051227298316E1
:10025000051605168312051E39290130F7004008DE
:10026000F800031937290310F70DF80B3329770825
:10027000C1041330F700F70B3B293E29C00A1E29A1
:100280004108F80008008E30F7004108F8004008E7
:10029000F900FA01F808031D57297908F800F90157
:1002A0000830F702F808031D5729F7015F290310EA
:1002B000F81B5E29F90DF80DF7035729F81308000C
:1002C00040080319D029C80044080319D029C807D9
:1002D000031871297F30C802031CD0290319D029C3
:1002E00075298130C8070318D0294808F700F8019C
:1002F000F901FA014108CC00CC174208CB004308B1
:10030000CA001830C800C9014A1C9E294708FA07CC
:10031000031C9029F90A031D9029F80A0319C9172B
:100320004608F907031C9729F80A0319C917450855
:10033000C200C2174208F8070318C917C90DF80C04
:10034000F90CFA0CCC0CCB0CCA0C0310C80B83298B
:100350000130F7070318D029F81BB529CC0DFA0D89
:10036000F90DF80DF7030319D029CC1FC629FA0A95
:10037000031DC629F90A031DC629F80A031DC6294B
:10038000F80CF90CFA0CF70A0319D0294108C90036
:100390004508C906C91FCE29F817D429F813D4294E
:1003A000F701F801F901FA01080080308318C50649
:1003B000CA01CB014108C9004508C9064008031914
:1003C000C52AC800F70044080319CE2AC802031939
:1003D0006A2A031C282A4508CE00CE174608CD00FD
:1003E0004708CC00CB010310CE0CCD0CCC0CCB0CB1
:1003F000C80BF229C91FFF294A14E22A4A104810E3
:100400004A16433084008313F72A4A12C91B122A62
:10041000481C1D2ACE0CCD0CCC0CCB0CF70A0319B2
:10042000DD2A1D2ACE1B202A0310CB0DCC0DCD0DAD
:10043000CE0DF7030319DD2A122A4A178A2A4A1316
:100440004108C900C91F262ACE17D62ACE13D62A9C
:100450004408C800F7004008C8024108CE00CE1783
:100460004208CD004308CC00CB010310CE0CCD0CCC
:10047000CC0CCB0CC80B342AC91F412ACA14E22A5F
:10048000CA104810CA16473084008313F72ACA12CC
:10049000C91B542A481C5F2ACE0CCD0CCC0CCB0CAB
:1004A000F70A0319DD2A5F2ACE1B622A0310CB0D3F
:1004B000CC0DCD0DCE0DF7030319DD2A542ACA1732
:1004C0008A2ACA134508C900C91F682ACE17D62A26
:1004D000CE13D62A4508CE00CE174608CD004708D1
:1004E000CC00C91F772ACE134A15E22A4A11CB0144
:1004F0004810433084008313F72AC91BA02A4108FF
:10050000C900481C8A2ACE0CCD0CCC0CCB0CF70AA7
:100510000319DD2ACB1F9B2ACC0A031D9B2ACD0A77
:10052000031D9B2ACE0A031D9B2ACE0CCD0CCC0C9E
:10053000F70A0319DD2A4A1B1F2ACA1B612ABF2A90
:100540008030CE06CE1FA82AE22A4508C900B52A67
:100550004108C900CE08031DB52ACD08031DB52AE0
:10056000CC08031DB52AF701D62ACE1BBF2A0310DB
:10057000CB0DCC0DCD0DCE0DF70BB52ADD2AC91F45
:10058000C32ACE17D62ACE13D62A4408F700450828
:10059000CE004608CD004708CC00D62A4008F70018
:1005A0004108CE004208CD004308CC004E08F800B8
:1005B0004D08F9004C08FA00152BF701F801F90174
:1005C000FA01152BCB01CC09CD09CE09CB09CB0AF9
:1005D000031DF02ACC0A031DF02ACD0A0319CE0A06
:1005E0004A18FE29CA18402A4A19762AA52A00085C
:1005F000CC07031C012BCD0A031D012BCE0A0319C6
:10060000481484030008CD07031C092BCE0A0319E4
:10061000481484030008801F803ACE07031848144A
:100620004A1A052ACA1A472A7D2A0800BA01BB01BC
:10063000BF01BE01BD01BC016A20CC30C000D62084
:100640004430C000D62009302702FC3E0318412B5D
:10065000043EFE2B0330C000FA30C1000721C00B5E
:100660002C2B412B0330C0007D30C1000721C00B73
:10067000342B412BBC30C1000721412B5E30C1001F
:1006800007216A20CC30C000D620BE30C000D62062
:100690001C217808BB001C217808BA00C1013A0867
:1006A000C00043217A08BF007908BE007808BD0069
:1006B0007708BC003F08C3003E08C2003D08C100E7
:1006C0003C08C000C701C601C5018730C4006021D5
:1006D0007A08BF007908BE007808BD007708BC0022
:1006E000C1013B08C000432183103F08C3003E08FE
:1006F000C2003D08C1003C08C0007A08C700790864
:10070000C6007808C5007708C400D5217A08BF0064
:100710007908BE007808BD007708BC0009302702C0
:10072000FC3E0318F02B043E062C3F08C3003E0895
:10073000C2003D08C1003C08C000C701C601C50198
:100740007B30C40060217A08BF007908BE007808B9
:10075000BD007708BC00F02B3F08C3003E08C20074
:100760003D08C1003C08C000C701C601C5017C307E
:10077000C40060217A08BF007908BE007808BD0077
:100780007708BC00F02B3F08C3003E08C2003D08BC
:10079000C1003C08C000C701C601C5017D30C400CE
:1007A00060217A08BF007908BE007808BD0077088C
:1007B000BC00F02B3F08C3003E08C2003D08C1004A
:1007C0003C08C000C701C601C5017E30C4006021DD
:1007D0007A08BF007908BE007808BD007708BC0021
:1007E0002830C10007213C08F7003D08F8003E080A
:1007F000F9003F08FA008A110A12CB2C0A108A105D
:100800000A1582073E2B3A2B322B2A2B0A108A100C
:100810000A158207DA2BC32BAC2B952B3B08C200A1
:100820003F08C206C21F192C03110310BB1B03147F
:100830004C2C3B08C2003E08C3003A08C30203190F
:10084000272CC21F4C2C0308013A83004C2C3F0874
:10085000C3003B08C3020319332CC21F4C2C0308EE
:10086000013A83004C2C4008C3003C08C302031922
:100870003F2CC21F4C2C0308013A83004C2C41082A
:10088000C3003D08C30203194B2CC21F4C2C0308A4
:10089000013A83004C2C031008008E30F7003A0810
:1008A000F7023B08F9003C08F800F917F7080319AC
:1008B000642C0310F908031D602CF8080319642C3C
:1008C000F90CF80CF70B592CBB1F6B2CF809F90924
:1008D000F80A0319F90A08003D083F068039C100EB
:1008E000BD1F772CBC09BD09BC0A0319BD0ABF1F77
:1008F0007E2CBE09BF09BE0A0319BF0AF801F9011F
:10090000F701FA013F08031D882C3E080319A22CA9
:100910001030C0000310BC0DBD0DF70DFA0D3F08DF
:100920007A02031D952C3E087702031C9E2C3E087C
:10093000F702031CFA033F08FA020314F80DF90D3D
:10094000C00B8A2CC11FA92CF809F909F80A031950
:10095000F90A080003081F3983000C30A700AC0116
:10096000FF30AD0083161F149F141F159F11073011
:100970009C00831383122E10AF01B301B201B101A9
:10098000B001B701B6014830B5008330B400B901F9
:10099000B8018A28162B7A08B3007908B2007808C3
:1009A000B1007708B00083103708C3003608C200D2
:1009B0003508C1003408C000C701C601C501823036
:1009C000C400D5217A08BD007908BC007808BB00B6
:1009D0007708BA003308C1003208C0003108BF00F0
:1009E0003008BE000E2403181B2D03191B2D831481
:1009F0003708C3003608C2003508C1003408C000FB
:100A0000C701C601C5018230C400D5213308BD002D
:100A10003208BC003108BB003008BA007A08C100B7
:100A20007908C0007808BF007708BE000E240318BC
:100A30001B2D031D232D3708B3003608B2003508DF
:100A4000B1003408B000BD01BC014830BB008530A6
:100A5000BA003308C1003208C0003108BF003008B6
:100A6000BE000E240318362D031D3E2DCD30B300DD
:100A7000CC30B2004730B1008530B0003308BD0043
:100A80003208BC003108BB003008BA00C101C00107
:100A9000DC30BF008430BE000E240318512D031D2E
:100AA000572DB301B201DC30B1008430B000AD1578
:100AB0002D0883168700831287196D2DAD152D081B
:100AC000831687008312871D5E2D00302E1801309B
:100AD000013AF8002E1078182E142E1CA62D713015
:100AE000AB003308C3003208C2003108C10030082F
:100AF000C000C701C6011030C5008330C4006021AA
:100B00007A08BD007908BC007808BB007708BA00F5
:100B100083107A08C3007908C2007808C1007708FA
:100B2000C000C701C6012030C5008730C400D521F0
:100B30007A08BD007908BC007808BB007708BA00C5
:100B40004D247908B9007808B800C42D3930AB00BD
:100B50003308C3003208C2003108C1003008C000A9
:100B6000C701C6012030C5008230C40060217A0868
:100B7000BD007908BC007808BB007708BA004D2496
:100B80007908B9007808B8003308BD003208BC0005
:100B90003108BB003008BA00C101C001BF01BE016D
:100BA0000E24031CFE2D4030A8003908BD00380873
:100BB000BC00BF016430BE006C247808AF002F0871
:100BC0002F20F800A9003908BD003808BC00BF017B
:100BD0000A30BE006C247908BB007808BA00790896
:100BE000BD007808BC00BF010A30BE006C24770845
:100BF000AF002F082F208038AA00342E3908BD00FE
:100C00003808BC00BF016430BE006C247808AF0017
:100C10002F082F20F800A8003908BD003808BC00B4
:100C2000BF010A30BE006C247908BB007808BA0006
:100C30007908BD007808BC00BF010A30BE006C24F2
:100C40007708AF002F082F208038A9003908BD0091
:100C50003808BC00BF010A30BE006C247708AF0022
:100C60002F082F20F800AA003308B7003208B6007A
:100C70003108B5003008B4006430C1000721CA2C27
:020C800063000F
:02400E00410E61
:00000001FF
;PIC16F877A
;CRC=7844  CREATED="04-Jan-16 21:25"
