:1000000007308A00382F00000A108A100A11820770
:1000100028340C34013406340A108A100A1182077D
:100020000E341134113411341F341F340E340034A3
:100030000E341134013401341F341F340E340034B3
:100040001E3406341E3406341F3411341F34003479
:100050000C005223492220376F17201D0001CC3796
:10006000E33565320001BE226E3A6539A01EA02933
:10007000653A753800000C004937631FA021E8304D
:10008000EE336510C337E4320001C432631FA02190
:10009000E830EE336510C330723200010C000C0002
:1000A000CE327710D030F339F737723200010C00BE
:1000B000D030F339F7377232A021E830EE336500E3
:1000C0005537F33AE331E5397333753621000C00C7
:1000D000D730693A69376710E6377210E330723209
:1000E0000001F43720316510E13A74346F39693D0D
:1000F000653200010C00C131E332F3390001C43232
:10010000EE34653200010C000C000C00C33072327A
:100110002F2AE1330001C131E332703A6532000128
:100120000C005537EC37E33565320001D434ED323D
:10013000EF3A741DA0123019F53900000C00C330DD
:1001400072322F2AE13300015537E131E332703A40
:10015000653200010C000C00D030F339F7377232F1
:1001600000012A000C00D030F339F7377232000159
:10017000C131E332703A6532000157396F37671089
:10018000D030F339F737723200010C000C00D03058
:10019000F339F7377232000143346137E732E41044
:1001A00000010C008318D728B03084008313F701B6
:1001B000F801F901FA018316B001B101B201B301EE
:1001C0002F082E042D042C04031916292030B40006
:1001D0000310A80DA90DAA0DAB0DB00DB10DB20DF8
:1001E000B30D2F083302031DFF282E083202031D12
:1001F000FF282D083102031DFF282C083002031CA4
:1002000010292C08B0022D08031C2D0FB1022E0856
:10021000031C2E0FB2022F08031C2F0FB30203146E
:10022000F70DF80DF90DFA0DB40BE8283008800031
:10023000840A31088000840A32088000840A330866
:10024000800083120800F801F901F701FA01831612
:100250002308031D2E292208031948291030A40061
:100260000310A00DA10DF70DFA0D23087A02031D4E
:100270003B2922087702031C44292208F702031CA9
:10028000FA032308FA020314F80DF90DA40B302920
:1002900083120800A53084008313000803195E2927
:1002A0000330F800F701F70B5329F80B52293C30C3
:1002B000F700F70B59295C29800B50290800831699
:1002C000A4012108240203186C29FA30A500831226
:1002D0004A218316A40A61292008A50083124A2115
:1002E0008316A4012308240203187E29CF30F700C7
:1002F000F70B78297B290000A40A72292208A5009F
:100300000630A502031C9029A53084008313031036
:10031000800C0008031990298E298E29800B8D29C5
:100320008312080083108316AB010F30AA004230FD
:10033000A9004030A800AF01AE0183125F08831608
:10034000AD0083125E088316AC008312D2207A08B7
:100350008316A3007908A2007808A1007708A000FE
:100360000310A30CA20CA10CA00C0A3020028312D3
:10037000E200831621088312E3000030031C0130E1
:10038000E302831622088312E4000030031C0130CC
:10039000E402831623088312E5000030031C0130B9
:1003A000E502831065088316AB0083126408831688
:1003B000AA00831263088316A900831262088316B9
:1003C000A800AF01AE010330AD00E830AC008312ED
:1003D000D2207808E7007708E60067088316A100B6
:1003E000831266088316A000A301FA30A2008312CC
:1003F00023217808EB0067088316A10083126608A2
:100400008316A000A301FA30A200831223217708EB
:10041000EC008314A0308400831365088316AB00BE
:10042000831264088316AA00831263088316A90046
:10043000831262088316A800AF01AE010330AD003D
:10044000E830AC008312D220831621088312E90021
:10045000831620088312E80069088316A10083121E
:1004600068088316A000A301FA30A200831223219A
:100470007808EA0069088316A100831268088316C9
:10048000A000A301FA30A200831223217708ED0017
:100490008316A301A201831261088316A1008312AF
:1004A00060088316A0002308A7002208A6002108E0
:1004B000A5002008A400AB01AA010330A900E83080
:1004C000A8002030B000AC01AD01AE01AF0127089B
:1004D000FA002608F9002508F8002408F7000310A0
:1004E000771C802A2808AC0729080318290FAD07B4
:1004F0002A0803182A0FAE072B0803182B0FAF0783
:10050000AF0CAE0CAD0CAC0CFA0CF90CF80CF70CF3
:10051000B00B6F2A7A08A3007908A2007808A1001E
:100520007708A0008310AB010F30AA004230A90069
:100530004030A800AF01AE0183125F088316AD0002
:1005400083125E088316AC008312D2207A088316C9
:10055000A7007908A6007808A5007708A4008310F2
:100560002308AB002208AA002108A9002008A8003F
:100570002708AF002608AE002508AD002408AC000F
:100580008312D2207808EF007708EE006F08FA0097
:100590006E080319EF03EE038316A0007A08A1008A
:1005A000A008031DD62AA1080319072B83126C0883
:1005B0008316A00083126B088316A10083126D08B6
:1005C0008316A20083126A088316A30083125F2198
:1005D0002711270883168700831207156C088316D6
:1005E000A00083126B088316A10083126D08831686
:1005F000A20083126A088316A30083125F212711C9
:1006000027088316870083120711C62A83168312D0
:100610000800271027088316870083120710A710E9
:10062000270883168700831287100230DF005830B6
:10063000DE00E1010A30E00092210800670EF03987
:10064000F7000F3006057704860000000614282BFB
:10065000292B0000061008008610F0308316860053
:10066000831206150000061400000608060E0F3956
:10067000E7000610000006143D2B0608060E0F3991
:10068000E60006100030831686008312670EF7001E
:10069000F030F70577086604F8007808E600E61BF6
:1006A0002D2B641C861064188614000006110000AF
:1006B0000610650EE6000F30E6056608E7001E230B
:1006C00065080F39E600E7001E23080078080319C3
:1006D0006E2B77088000840AF80B692B08000B1337
:1006E0008B138B1B702B0923073083169C00050886
:1006F00085000730F700F70B7B2B7E2B00001C08D2
:1007000083120D131F1083161F149F141F159F11A2
:100710000108C0398100831290010030F800920076
:10072000FF308316920083129401F0309705810107
:100730008E018F018E019101003083168600831295
:100740008610061106100F308316A50083124A2169
:100750000130CD004D08033C031CB82B0330E700EB
:100760001E2305308316A50083124A21CD0AAA2B29
:100770000230E7001E23CD014D08033C031CC92BAA
:100780004D080420CE00E4014E08E5002C23CD0ADC
:10079000BC2BCD01E4014030E5002C23CD014D08F8
:1007A000173C031CDE2B4D080C20CE000130E4006A
:1007B0004E08E5002C230130CD07CF2BE40180301B
:1007C000E5002C23483084008313F7010430F8003F
:1007D0006623283084008313F7011030F800662365
:1007E000383084008313F7011030F8006623C830D6
:1007F0008316A50083124A210800D50148308400E1
:100800008313F7010430F800662338308400831323
:10081000F7011030F8006623D5015508033C031C8E
:100820002B2C48305507840083135508D8002130FD
:10083000D900580803178D0083168C130C148312EB
:100840000C0880000A3083160313A50083124A2186
:100850000130D5070D2CD50155080F3C031C4D2C3C
:10086000383055078400831304305507D8002130F1
:10087000D9000318D90A580803178D0083168C1362
:100880000C1483120C0880000A3083160313A50091
:1008900083124A210130D5072C2C08008316051439
:1008A0008312051C5F2C0330DF008430DE00E10181
:1008B0001E30E00092210130F800832C832C831637
:1008C00085148312851C702C0330DF002030DE007D
:1008D000E1011430E00092210230F800832C832CD7
:1008E000831605158312051D812C0230DF00583058
:1008F000DE00E1011430E00092210330F800832C87
:10090000832C0030F800080001306202FC3E03181E
:10091000962C043E9E2C8030E300962CC030E300E1
:10092000962C9430E300962CD430E3000130610221
:10093000E307E4016308E5002C2308000A108A108D
:100940000A1582078B2C8E2C912C942C60080C3A63
:100950000319B12C063A0319BD2C023A0319C42C11
:10096000C92CE4010130E5002C230130A60002303F
:100970008316A50083124A21CE2CA60A0130E1007D
:100980002608E2008424CE2CE4011030E5002C235C
:10099000CE2C0130E4006008E5002C2308000B0891
:1009A000D5008B13831603178C170C14000000005E
:1009B00083120313D51B8B1703170C087F390319F8
:1009C000232D0313D50003170D080313D6000317B7
:1009D0000F080313D7005508E000A6245608031794
:1009E0008D000313570803178F0003130B08D8005B
:1009F0008B13831603178C170C140000000083124E
:100A00000313D81B8B1703170C0D0E0D7F39031919
:100A1000232D0313D50003170D080313D600031766
:100A20000F080313D7005508E000A6245608031743
:100A30008D000313570803178F008D0A03198F0ABF
:100A40000313CF2C0317031308006108F801600299
:100A500003182D2D6008F700392DF7010830E2004A
:100A6000E00DF70D610877020318F700F80DE20BAF
:100A7000302D080078085E08E0006430E10025258C
:100A80007708DE0078083030031D4D2DDF1C542D13
:100A9000DF19542D5F1A2030502DDF115F125F14C3
:100AA000F8077808E000A6245E08E0000A30E100BC
:100AB00025257708DE0078083030031D652DDF1905
:100AC000692D5F1C692D5F1A2030F8077808E00057
:100AD000A6243030DE075E08E000A624080059088E
:100AE000E1005A08E20084245B08DE001830DF00D1
:100AF0003A252030E000A6244E247808033C031D4C
:100B0000832D0130DB025B08803AF7005D08803AF4
:100B1000770203188D2D5C08DB004E247808023C18
:100B2000031D942D0130DB075C08803AF7005B0859
:100B3000803A770203189E2D5D08DB004E24780B67
:100B4000A42D5B08F800A52D6F2D0800CF01D00162
:100B5000513084008313F7010430F8006623FD232D
:100B6000AB3003178D0000308F000313CF24043007
:100B7000E1000130E2008424AC3003178D00003026
:100B80008F000313CF240D30E1000130E2008424F4
:100B90000230E000A624CF014F08033C031C0E2EB8
:100BA00051304F07F800FA010318FA0A7808D50007
:100BB0007A08D60007304F07D70051304F0784001E
:100BC00083130008D8005708D9000230DA0058080B
:100BD000DB000930DC00DD016F255508840083133C
:100BE000561883177808800007304F07D500E100BA
:100BF0000230E2008424B13003178D0000308F00F2
:100C00000313CF240230D500C8308316A500831209
:100C10004A21D50B042E0130CF07CC2DCF014F0830
:100C2000033C031C282E51304F0784008313000817
:100C3000D50048304F078400831300085502031D78
:100C4000242E0130D007252ED0010130CF070F2EE2
:100C5000B23003178D0000308F000313CF245008EB
:100C6000043C031D602E0530E1000130E2008424C5
:100C7000B33003178D0000308F000313CF240530ED
:100C8000E1000230E2008424B83003178D00003008
:100C90008F000313CF240530DF007830DE00E10140
:100CA0006430E00092210430D500FA308316A500AC
:100CB00083124A21D50B552E0130F800942E942E24
:100CC0000230E1000130E2008424BD3003178D00C2
:100CD00000308F000313CF24CF014F08033C031CC7
:100CE0008B2E0930DF00C430DE00E101C830E000A7
:100CF0009221271027088316870001308312870668
:100D00000D30DF00AC30DE00E101C830E0009221A0
:100D10000130CF076D2EC53003178D0000308F00D6
:100D20000313CF240030F8000800CF018C1E012FE0
:100D30004C18012F283084008313F7011030F8007D
:100D40006623CF014F080F3C031CB12E28304F07FC
:100D5000840083138C1EAA2E1A0880000130CF074E
:100D6000A22E283003178D0000308F000313CF24EC
:100D70000430E1000130E2008424293003178D00A3
:100D800000308F000313CF24CF014F080F3C031C0A
:100D9000EE2E28304F078400831300082F3C0318E1
:100DA000EB2E28304F078400831300085A3C031CA5
:100DB000EB2E02304F07D000E1000230E200842425
:100DC00028304F07840083130008D000E000A624D9
:100DD0002030E000A6240130CF07C52E4C14CC14DF
:100DE0000530DF00DC30DE00E1012830E000922138
:100DF0000A30D000F0308316A50083124A21D00BB0
:100E0000FA2E08000530E1000130E20084242F3082
:100E100003178D0000308F000313CF240C30E10046
:100E20000130E2008424E001A6240230E100E20067
:100E30008424333003178D0000308F000313CF2438
:100E40008A110A12642F271027088316870083123D
:100E50000714A7102708831687008312871407300A
:100E6000DF000830DE00E1010A30E00092210800D6
:100E700003081F398300403083169900A63098007C
:100E8000903083129800FF30A7004C10CC108316CE
:100E90001F149F141F159F1107309C00831383128A
:100EA000A001A1016F23FD236F234E24780B612F36
:100EB000C8308316A50083124A218A1500288A119A
:100EC000692F95264C1C022FCC1C692F8A15152AD8
:060ED0008A11552F63009A
:101000004D10CD10CE018A1109238A158A11A6250B
:101010008A154D1078184D144D1CD3293B300317F9
:101020008D0000308F008A110313CF248A15013000
:10103000E100E2008A1184248A153C3003178D00F8
:1010400000308F008A110313CF248A150130E1008C
:101050000230E2008A1184248A15453003178D007E
:1010600000308F008A110313CF248A158A114E2471
:101070008A157808023C031944288A114E248A15DF
:101080007808033C031D36284E3003178D000030CE
:101090008F008A110313CF248A158A114E248A15D2
:1010A0007808023C031D60298A11A6258A15CD10F7
:1010B0007818CD14CD1C24294F3003178D00003033
:1010C0008F008A110313CF248A150330E100013009
:1010D000E2008A1184248A15503003178D000030F5
:1010E0008F008A110313CF248A150330CF00C83034
:1010F0008316A5008A1183124A218A15CF0B7728FF
:10110000CF01503084008313F7010430F8008A11B6
:1011100066238A15CF014F08033C031CE628503094
:101120004F07F800FA010318FA0A7808D4007A0881
:10113000D50007304F07D60050304F078400831387
:101140000008D7005608D9000230DA005708DB0043
:101150000930DC00DD018A116F258A1554088400EE
:10116000831355188317780880004F08D400213066
:10117000D50050304F07840083130008D6000B08B9
:10118000F7008B134F0803178D000313560803173E
:101190008C0083168C130C1555308D00AA308D00F1
:1011A0008C148C18D1280C117708831203138B042C
:1011B0000330D400C8308316A5008A1183124A2157
:1011C0008A15D40BDA280130CF078B28C6300317D5
:1011D0008D0000308F008A110313CF248A1505304B
:1011E000E1000130E2008A1184248A15C730031718
:1011F0008D0000308F008A110313CF248A1505302B
:10120000E1000230E2008A1184248A15CC300317F1
:101210008D0000308F008A110313CF248A15083007
:10122000D400C8308316A5008A1183124A218A157A
:10123000D40B1129D13003178D0000308F008A1193
:101240000313CF248A156029573003178D0000300F
:101250008F008A110313CF248A150130E100E200C8
:101260008A1184248A15583003178D0000308F00AE
:101270008A110313CF248A150130E1000230E20005
:101280008A1184248A15603003178D0000308F0086
:101290008A110313CF248A150830CF00C830831673
:1012A000A5008A1183124A218A15CF0B4E29673077
:1012B00003178D0000308F008A110313CF248A1585
:1012C0008A114E248A157808033C031DC929013070
:1012D000E100E2008A1184248A15683003178D002A
:1012E00000308F008A110313CF248A150130E100EA
:1012F0000230E2008A1184248A15713003178D00B0
:1013000000308F008A110313CF248A158A11952685
:101310008A154C188C296729CC10CE014E080F3C39
:10132000031CC92927102708831687000130831260
:10133000870604304E07CF002130D0000318D00AB2
:1013400028304E07840083130008D1000B08F700F3
:101350008B134F0803178D000313510803178C00DC
:1013600083168C130C1555308D00AA308D008C140B
:101370008C18B8290C117708831203138B042830BA
:101380008316A5008A1183124A218A150130CE07DF
:101390008E292710270883168700831207108A11C9
:1013A000FD238A15072A7A3003178D0000308F003D
:1013B0008A110313CF248A150630E1000130E200C0
:1013C0008A1184248A157B3003178D0000308F002A
:1013D0008A110313CF248A150630E1000230E2009F
:1013E0008A1184248A157F3003178D0000308F0006
:1013F0008A110313CF248A150830CF00FA308316E0
:10140000A5008A1183124A218A15CF0BFE294C10A0
:10141000CC10833003178D0000308F008A11031326
:10142000CF248A158A110A125F2FCD01CE018A11AD
:10143000FD238A15843003178D0000308F008A1138
:101440000313CF248A15CD014D080F3C031C3D2A00
:1014500038304D07840083130008CF0028304D0733
:101460008400831300084F02031D392A0130CE0780
:101470003A2ACE010130CD07242A4E08103C031D24
:101480003E2B0430DF00B030DE00E1012830E00008
:101490008A1192218A158A1123278A15853003170C
:1014A0008D0000308F008A110313CF248A15053078
:1014B000E1000130E2008A1184248A158630031786
:1014C0008D0000308F008A110313CF248A15053058
:1014D000E1000230E2008A1184248A158B30031760
:1014E0008D0000308F008A110313CF248A158A11D2
:1014F00023278A150830CF00FA308316A5008A11F9
:1015000083124A218A15CF0B7C2A903003178D0055
:1015100000308F008A110313CF248A150430E100B4
:101520000130E2008A1184248A15913003178D005E
:1015300000308F008A110313CF248A150D30E1008B
:101540000130E2008A1184248A150130E0008A11FA
:10155000A6248A151E30CD00CD0803193D2B03307B
:10156000E1000230E2008A1184248A1596300317C4
:101570008D0000308F00031009300313CF000B08DB
:10158000D0008B13831603178C170C140000000077
:1015900083120313D01B8B170318F82A03170C08A8
:1015A0007F390313D00003170D080313D10003176D
:1015B0000F080313D2005008E0008A11A6248A15F0
:1015C000510803178D000313520803178F000313EC
:1015D0000B08D3008B13831603178C170C14000011
:1015E000000083120313D31B8B17CF0BF82A192B80
:1015F00003170C0D0E0D7F390313D00003170D08D0
:101600000313D10003170F080313D2005008E000A2
:101610008A11A6248A15510803178D000313520856
:1016200003178F008D0A03198F0A03100313CF0BC2
:10163000BF2A4D08DE000130DF008A113A258A15E5
:101640007330E0008A11A6248A150630DF0040308E
:10165000DE00E1010A30E0008A1192218A1505308E
:10166000CF00C6308316A5008A1183124A218A153D
:10167000CF0B312B0130CD02AC2A952B9E300317B6
:101680008D0000308F008A110313CF248A15053096
:10169000E1000130E2008A1184248A159F3003178B
:1016A0008D0000308F008A110313CF248A15043077
:1016B000E1000230E2008A1184248A15A430031765
:1016C0008D0000308F008A110313CF248A15CD01BD
:1016D0004D08033C031C8A2B0830DF009830DE00E5
:1016E000E101C830E0008A1192218A1527102708ED
:1016F000831687000130831287060C30DF008030AC
:10170000DE00E101C830E0008A1192218A15013023
:10171000CD07682B0430CF00FA308316A5008A115C
:1017200083124A218A15CF0B8C2B4C10CC108A11B6
:1017300009238A15AA3003178D0000308F008A1103
:0C1740000313CF248A158A110A12682FA7
:1042000000000000000000007E0034003300300099
:1042100030004200370035003100440032003700E2
:084220003700320037003700BF
:02400E00321E60
:00000001FF
;PIC16F876A
;CRC=2250  CREATED="13-Nov-13 23:15"
