:100000001EEF1DF0E90E926ED70E946EFE0E956EE9
:1000100092928982C69A949A94889496300EC66E6B
:10002000000EC76E6EEF00F095908C90070E006E7C
:10003000002EFED700D095908C80070E006E002E0B
:10004000FED700D06FEF00F076C278F20201796B34
:10005000C95076C2C9FFC730FEE3C95075C2C9FF97
:10006000C730FEE3000144EF00F00201745302E1E7
:10007000899401D0898492949292899273C276F283
:1000800072C275F20001E0D79292898212006FC2AB
:1000900073F26EC272F20201746B0001E6DF71C28C
:1000A00073F270C272F2010E0201746F0001DDDFA3
:1000B0001200010EEA6EF60EE96EEF500DE00A0E28
:1000C000016E006A002EFED7012EFBD75F0E006E78
:1000D000002EFED7EF2EF3D7120094D7A5D702013A
:1000E0006F6B6E6B716B010E706F0001D0DF0A0ECB
:1000F0000101F66F0001DDDF010E02016F6F6E6B13
:10010000716B706B0001C3DF010E02016F6F6E6FC8
:10011000716B706B0001BBDF010E02016F6F020E8D
:100120006E6F310E716F100E706F0001B0DF010E37
:1001300002016F6F030E6E6FE20E716F706B000144
:10014000A6DF010E02016F6F100E6E6F716B9D0EB8
:10015000706F00019CDF010E02016F6F110E6E6F58
:10016000716B220E706F000192DF010E02016F6F42
:100170006E6B716F200E706F000189DF140E01012C
:10018000F66F000196DF010E02016F6F6E6B310E8C
:10019000716F200E706F00017ADF500E0101F66F53
:1001A000000187DF02016F6B010E6E6F716F706B64
:1001B00000016DDF02016F6B020E6E6F716B706B71
:1001C000000165DF02016F6B030E6E6F120E716F1F
:1001D000380E706F00015BDF02016F6B060E6E6FF1
:1001E000716B706B000153DF02016F6B070E6E6F56
:1001F000010E716F706F00014ADF02016F6B080E14
:100200006E6F716F706F000142DF02016F6B090E3C
:100210006E6F716B706B00013ADF02016F6B0B0E3A
:100220006E6F716B706B000132DF02016F6B0C0E31
:100230006E6F716B706B00012ADF02016F6B0D0E28
:100240006E6F716B180E706F000121DF02016F6B12
:10025000120E6E6F716B706B000119DF02016F6B14
:10026000130E6E6F716B706B000111DF02016F6B0B
:10027000180E6E6F716B706B000109DF02016F6BFE
:10028000190E6E6F716B706B000101DF020E0201BF
:100290006F6F030E6E6F716B706B0001F8DE020EF4
:1002A00002016F6F040E6E6F716B706B0001EFDEF9
:1002B000020E02016F6F100E6E6F716B706B00019A
:1002C000E6DE020E02016F6F110E6E6F716BEF0EA4
:1002D000706F0001DCDE020E02016F6F120E6E6F96
:1002E000716B706B0001D3DE020E02016F6F130E93
:1002F0006E6F010E716F3F0E706F0001C8DE020E4F
:1003000002016F6F140E6E6F716B706B0001BFDEB8
:10031000020E02016F6F150E6E6F716B706B000134
:10032000B6DE020E02016F6F160E6E6F716B706B90
:100330000001ADDE020E02016F6F170E6E6F716B62
:10034000706B0001A4DE030E02016F6F6E6B530E23
:10035000716F430E706F00019ADE030E02016F6F22
:10036000010E6E6F100E716F210E706F00018FDE27
:10037000030E02016F6F020E6E6F716B030E706FD2
:10038000000185DE030E02016F6F6E6F716B110E3F
:10039000706F00017CDE030E02016F6F040E6E6F42
:1003A000050E716F0A0E706F000171DE030E0201FF
:1003B0006F6F050E6E6F430E716F420E706F00010E
:1003C00066DE030E02016F6F060E6E6F110E716F07
:1003D000706B00015CDE030E02016F6F070E6E6F23
:1003E000716B030E706F000152DE030E02016F6F1E
:1003F000080E6E6F120E716F010E706F000147DEF6
:10040000030E02016F6F090E6E6F050E716F0A0EFB
:10041000706F00013CDE040E02016F6F6E6B400EC8
:10042000716F270E706F000132DE040E02016F6FD4
:10043000010E6E6F716B706B000129DE040E0201FC
:100440006F6F020E6E6F716B706B000120DE040E19
:1004500002016F6F030E6E6F010E716F3F0E706FB2
:10046000000115DE040E02016F6F6E6F716B706B11
:1004700000010DDE020E02016F6F6E6B716B706B0F
:10048000000105DE020E02016F6F010E6E6F716BCF
:10049000706B0001FCDD010E02016F6F6E6B710E5F
:1004A000716F200E706F0001F2DD02016F6B070E9D
:1004B0006E6F010E716F030E706F0001E8DD0A0EA2
:1004C0000101F66F0001F5DD02016F6B070E6E6F23
:1004D000010E716F130E706F0001D9DDC1EF02F0D4
:1004E000E90E926ED70E946E77EF02F0F9D79298DC
:1004F0008988C69A949A94889496300EC66E000E97
:10050000C76EC2EF02F0F29CF29EF2BEFDD7D19010
:10051000700ED36E400E9B6ED350F18E070EB46EEC
:100520009250926E1A0E006E002EFED70000B4504C
:10053000A19CC290C150C00B0F09C16E9698C69A7B
:10054000949A94889496300EC66E000EC76E0F0172
:10055000639B010E636F000E646F400ED56ED76A09
:10056000D66ACD6ACF6ACE6A000ECA6EFF0ECB6E17
:10057000CC6AB16AB36AB26AF00EBD16BA1600014F
:10058000ACD5B4D7C80E0101F66F000192DD59EF6A
:100590001EF0020E02016F6F100E6E6F3CC271F200
:1005A0003BC270F2000173DD020E02016F6F110E8B
:1005B0006E6F40C271F23FC270F2000168DD020E40
:1005C00002016F6F120E6E6F3EC271F23DC270F289
:1005D00000015DDD020E02016F6F130E6E6F42C2ED
:1005E00071F241C270F2000152DD1200020E0201EE
:1005F000736F726F746B000138DD15EF03F0020E3C
:1006000002016F6F6E6B6BC271F26AC270F2000111
:100610003EDD020E02016F6F010E6E6F6DC271F250
:100620006CC270F2000133DDE1D7120002012F6BC2
:10063000010E2E6F2C0E2D6F2C6B3C6B3B6B3E6BAB
:100640003D6B406BEF0E3F6F010E426F3F0E416FEF
:1006500000019FDF02016B6B6A6B6D6B6C6B0001BD
:10066000CEDF02012C5306E12D5304E12E5302E1AB
:100670002F5312E02BC273F22AC272F2010E746F72
:100680000001F3DCFF0E02012C27D8A02D27D8A0F3
:100690002E27D8A02F27E6D700011200F80E02015E
:1006A0002B6F2A6B0001C2DF030E0101F36FC80E2E
:1006B000F66F0001FEDC0101F32FF9D7070E0201EE
:1006C0002B6FE00E2A6F0001B1DF030E0101F36F03
:1006D000C80EF66F0001EDDC0101F32FF9D702011E
:1006E0002B6B1F0E2A6F0001A1DF030E0101F36FB8
:1006F000C80EF66F0001DDDC0101F32FF9D702010E
:100700002B6B2A6B000192DF5BEF1EF0020E0201E1
:10071000366F31BF05D0315311E13051EF080EE390
:1007200033BF08D03351000805E2FF0A07E1325118
:100730003F0804E331BF02D033AF01D034D0010E03
:100740003025376F000E3121386F010E3225396F99
:10075000000E33213A6F31C23CF230C23BF233C259
:100760003EF232C23DF238C240F237C23FF2426F2F
:1007700039C241F200010DDF31C26BF230C26AF2C0
:1007800033C26DF232C26CF23ADF020136530BE033
:1007900035C273F234C272F2010E746F000165DC6F
:1007A00002013607F3D70001120002012A6B296B00
:1007B00027C2E9FF28C2EAFFECCF2AF2ED52EFCFC1
:1007C00029F225C2E9FF26C2EAFFECCF03F0ED5281
:1007D000EFCF2DF228C2EAFF27C2E9FF03C0ECFFEA
:1007E000ED522DC2EFFF25C2E9FF26C2EAFF2AC261
:1007F000ECFFED5229C2EFFF00011200020112AF1F
:1008000003D010AF0AD002D010BF12D01251105D29
:100810000FE303E10F51115D0BE2020E266F0F0E85
:10082000256F020E286F110E276F0001BEDF020137
:10083000010E0F5D006E000E1059036E00C001F036
:10084000E8AE03D012AF0AD002D012BF1AD00350C4
:10085000125D17E303E11151015C13E20EC231F2A4
:100860000DC230F212C233F211C232F2356B13C232
:1008700034F200014BDF02011151D8B41207110705
:10088000D7D700011200020121AF03D01FAF0AD059
:1008900002D01FBF12D021511F5D0FE303E11E5193
:1008A000205D0BE2020E266F1E0E256F020E286FD2
:1008B000200E276F000179DF0201010E1E5D006E20
:1008C000000E1F59036E00C001F0E8AE03D021AF47
:1008D0000AD002D021BF1AD00350215D17E303E1F3
:1008E0002051015C13E221C231F220C230F223C256
:1008F00033F222C232F2356B24C234F2000106DF39
:1009000002012051D8B421072007D7D700011200D7
:100910000201046B036B066B056B086B076B0A6BBC
:10092000096B0C6B0B6B0101FD51010A000101E029
:1009300079D00101F6AF03D0FAAF0AD002D0FABFE6
:1009400010D0F651FA5D0DE303E1F951F55D09E2CE
:10095000F6C106F2F5C105F2FAC108F2F9C107F2D3
:1009600008D0FAC106F2F9C105F2F6C108F2F5C1E4
:1009700007F2F8AF03D0FCAF0AD002D0FCBF10D012
:10098000F851FC5D0DE303E1FB51F75D09E2F8C1AD
:100990000AF2F7C109F2FCC10CF2FBC10BF208D05C
:1009A000FCC10AF2FBC109F2F8C10CF2F7C10BF26B
:1009B000020106AF03D008AF0AD002D008BF30D082
:1009C0000651085D2DE303E10551075D29E30AC2E5
:1009D00004F209C203F204AF03D00CAF0AD002D074
:1009E0000CBF1AD004510C5D17E303E103510B5DFA
:1009F00013E306C231F205C230F204C233F203C27D
:100A000032F200C235F2FFC134F200017FDE020192
:100A1000032BD8B4042BDFD7052BD8B4062BC9D7AA
:100A20003ED00001F6C10EF2F5C10DF2F8C110F290
:100A3000F7C10FF2FCC112F2FBC111F2FFC113F2B8
:100A4000DDDEFAC10EF2F9C10DF2F8C110F2F7C104
:100A50000FF2FCC112F2FBC111F2FFC113F2CEDEA4
:100A6000F6C11FF2F5C11EF2FAC121F2F9C120F25E
:100A7000F8C123F2F7C122F2FFC124F204DFF6C16C
:100A80001FF2F5C11EF2FAC121F2F9C120F2FCC138
:100A900023F2FBC122F2FFC124F2F5DE02010101C3
:100AA000FE5336E0F6C131F2F5C130F2F8C133F24F
:100AB000F7C132F202C235F201C234F2000126DE81
:100AC000F6C131F2F5C130F2FCC133F2FBC132F2B2
:100AD00002C235F201C234F219DEFAC131F2F9C1B3
:100AE00030F2F8C133F2F7C132F202C235F201C27C
:100AF00034F20CDEFAC131F2F9C130F2FCC133F24A
:100B0000FBC132F202C235F201C234F2FFDD010153
:100B1000000112000101F66BF56BF86BF76BFA6BD5
:100B2000170EF96F010EFC6F3F0EFB6F010EFD6F8C
:100B3000FE6B840E0201006F100E0101FF6F840E28
:100B40000201026F100E016F0001E2DE0101F66B7F
:100B5000180EF56FF86BF76BFA6B2F0EF96F010E2D
:100B6000FC6F3F0EFB6F010EFD6FFE6BC60E0201A8
:100B7000006F180E0101FF6FC60E0201026F180E02
:100B8000016F0001C5DE0101F66B300EF56FF86BE9
:100B9000F76BFA6B470EF96F010EFC6F3F0EFB6FA0
:100BA000010EFD6FFE6B020100690101FF69020188
:100BB000026901690001ACDE0101F66B480EF56FB8
:100BC000F86BF76BFA6B5F0EF96F010EFC6F3F0E5F
:100BD000FB6F010EFD6FFE6B7F0E0201006F0101C6
:100BE000FF690201026F0169000192DE0101F66BEB
:100BF000600EF56FF86BF76BFA6B770EF96F010EFD
:100C0000FC6F3F0EFB6F010EFD6FFE6B0201006F6C
:100C1000CF0E0101FF6F010E0201026FCF0E016FB7
:100C2000000176DE0101F66B780EF56FF86BF76B5D
:100C3000FA6B8F0EF96F010EFC6F3F0EFB6F010E0A
:100C4000FD6FFE6BF80E0201006F1F0E0101FF6FBA
:100C5000F80E0201026F1F0E016F000159DE010143
:100C6000F66B900EF56FF86BF76BFA6BA70EF96FDA
:100C7000010EFC6F3F0EFB6F010EFD6FFE6BF80E59
:100C80000201006F0101FF6B0201026F016B0001A5
:100C90003FDE0101F66BA80EF56FF86BF76BFA6B90
:100CA000BF0EF96F010EFC6F3F0EFB6F010EFD6F63
:100CB000FE6BFC0E0201006F080E0101FF6FFC0EBF
:100CC0000201026F080E016F000122DE0101F66BC6
:100CD000C00EF56FF86BF76BFA6BD70EF96F010E5C
:100CE000FC6F3F0EFB6F010EFD6FFE6B0201006992
:100CF000E00E0101FF6F02010269016F000108DED1
:100D00000101F66BD80EF56FF86BF76BFA6BEF0E0F
:100D1000F96F010EFC6F3F0EFB6F010EFD6FFE6B56
:100D2000070E0201006FE00E0101FF6F070E0201C6
:100D3000026FE00E016F0001EBDD080E0101F36FA1
:100D4000FA0EF66F000159EC00F00101F32FF8D70D
:100D500002012B6B2A6B000169DC5DEF1EF00201C2
:100D6000276B266B296B286B2B6B2A6B2D6B2C6BDF
:100D70002F6B2E6B1E51225D286F1F512359296F37
:100D80001C51205D266F1D512159276F29AF08D0B6
:100D9000281F291F282BD8B4292B2D692C6903D093
:100DA0002D6B010E2C6F27AF08D0261F271F262B77
:100DB000D8B4272B2B692A6903D02B6B010E2A6F1D
:100DC000D8902635026E273502C026F2276FD890BC
:100DD0002835026E293502C028F2296F1DC231F272
:100DE0001CC230F21FC233F21EC232F225C235F2EB
:100DF00024C234F200018ADC020129AF03D027AFFC
:100E00000AD002D027BF39D02951275D36E303E14C
:100E10002651285D32E2D8902731036E2631285DB5
:100E20002E6F035029592F6F20511C5D03E1215172
:100E30001D5D22E02FBF08D02C511E272D511F23EE
:100E400026512E5F27512F5B2A511C272B511D2322
:100E500028512E2729512F231DC231F21CC230F2F6
:100E60001FC233F21EC232F225C235F224C234F25E
:100E700000014CDC0201D8D731D0D8902931036E63
:100E80002831265D2E6F035027592F6F22511E5D8A
:100E900003E123511F5D22E02FBF08D02A511C27F8
:100EA0002B511D2328512E5F29512F5B2C511E27BA
:100EB0002D511F2326512E2727512F231DC231F2DA
:100EC0001CC230F21FC233F21EC232F225C235F20A
:100ED00024C234F200011ADC0201D8D7000112004A
:100EE00002011F512119800B236F1FAF05D01E1F58
:100EF0001F1F1E2BD8B41F2B21AF05D0201F211F71
:100F0000202BD8B4212B1E512003F3CF01F0F4CFB6
:100F100000F02103F35000261F512003F35000205E
:100F2000026E23AF05D0011E021E012AD8B4022A88
:100F3000000112000101FF6BFE6B0201016B006BEF
:100F4000036B026BFAC101F2F9C100F2010ED88005
:100F50000055026F000E0155036F0101FB51010A9C
:100F6000000101E0F7D00101FE51F55D0201046FBF
:100F70000101FF51F6590201056F00510101F725EA
:100F80000201066F01510101F8210201076F010101
:100F9000FE51F5250201086F0101FF51F621020102
:100FA000096F00510101F72502010A6F015101018A
:100FB000F82102010B6F05C21DF204C21CF207C228
:100FC0001FF206C21EF209C221F208C220F2236FEC
:100FD0000AC222F2FDC125F2FCC124F20001BFDEEB
:100FE0000101FE51F55D0201046F0101FF51F65947
:100FF0000201056F00510101F75D0201066F015109
:101000000101F8590201076F0101FE51F5250201A6
:10101000086F0101FF51F6210201096F0051010122
:10102000F75D02010A6F01510101F85902010B6FCE
:1010300005C21DF204C21CF207C21FF206C21EF254
:1010400009C221F208C220F2236F0AC222F2FDC1B6
:1010500025F2FCC124F2000182DE020100510101EF
:10106000F55D0201046F01510101F6590201056F9E
:101070000101FE51F7250201066F0101FF51F82120
:101080000201076F00510101F5250201086F0151AE
:101090000101F6210201096F0101FE51F72502014C
:1010A0000A6F0101FF51F82102010B6F05C21DF209
:1010B00004C21CF207C21FF206C21EF209C221F2CC
:1010C00008C220F2236F0AC222F2FDC125F2FCC140
:1010D00024F2000144DE020100510101F55D02012C
:1010E000046F01510101F6590201056F0101FE5122
:1010F000F75D0201066F0101FF51F8590201076F08
:1011000000510101F5250201086F01510101F6218D
:101110000201096F0101FE51F75D02010A6F010131
:10112000FF51F85902010B6F05C21DF204C21CF2F7
:1011300007C21FF206C21EF209C221F208C220F243
:10114000236F0AC222F2FDC125F2FCC124F2000184
:1011500006DE14D10101FE51F5250201046F0101E3
:10116000FF51F6210201056F00510101F72502012F
:10117000066F01510101F8210201076F05C231F22A
:1011800004C230F2336F06C232F2FDC135F2FCC147
:1011900034F2000186EC03F0020100510101F52553
:1011A0000201046F01510101F6210201056F0101E5
:1011B000FE51F7250201066F0101FF51F8210201DE
:1011C000076F05C231F204C230F2336F06C232F249
:1011D000FDC135F2FCC134F2000186EC03F00101DF
:1011E000FE51F55D0201046F0101FF51F659020144
:1011F000056F00510101F7250201066F0151010140
:10120000F8210201076F05C231F204C230F2336FD8
:1012100006C232F2FDC135F2FCC134F2000186ECA7
:1012200003F0020100510101F55D0201046F01515B
:101230000101F6590201056F0101FE51F725020176
:10124000066F0101FF51F8210201076F05C231F25B
:1012500004C230F2336F06C232F2FDC135F2FCC176
:1012600034F2000186EC03F0020100510101F52582
:101270000201046F01510101F6210201056F010114
:10128000FE51F75D0201066F0101FF51F85902019D
:10129000076F05C231F204C230F2336F06C232F278
:1012A000FDC135F2FCC134F2000186EC03F001010E
:1012B000FE51F5250201046F0101FF51F6210201E3
:1012C000056F00510101F75D0201066F0151010137
:1012D000F8590201076F05C231F204C230F2336FD0
:1012E00006C232F2FDC135F2FCC134F2000186ECD7
:1012F00003F00101FE51F55D0201046F0101FF5190
:10130000F6590201056F00510101F75D0201066FF8
:1013100001510101F8590201076F05C231F204C2FF
:1013200030F2336F06C232F2FDC135F2FCC134F245
:10133000000186EC03F0020100510101F55D02019C
:10134000046F01510101F6590201056F0101FE51BF
:10135000F75D0201066F0101FF51F8590201076FA5
:1013600005C231F204C230F2336F06C232F2FDC15F
:1013700035F2FCC134F2000186EC03F0020103AF48
:1013800021D00101FFC103F0FE51FE2BD8B4FF2B89
:101390000201046F03C005F21F6B020E1E6F03C033
:1013A00021F204C220F200019BDD02C003F00150D3
:1013B000030F016E000E03220150020102270350A9
:1013C00003232CD00101FFC105F2FE51FE2BD8B43E
:1013D000FF2B0201046F01C203F00051D8B40107D2
:1013E0000007045D006E03500559036E00C004F24F
:1013F000056F1F6B020E1E6F03C021F200C020F2AA
:1014000000016EDD02C003F00150050F016E000EF9
:101410000322015002010227035003230101FFAF01
:1014200004D0020101AF99D503D0020101BF0DD054
:101430000101FF510201015D08E3D8A48ED501012D
:10144000FE510201005DD8B088D5000112000201F2
:101450004A514C19800B4E6F4AAF05D0491F4A1FA5
:10146000492BD8B44A2B4CAF05D04B1F4C1F4B2BEC
:10147000D8B44C2B016A026A006A036A4C5102E13B
:101480004B5118E0100E4D6FD89049374A3700364F
:1014900003364C51035C02E14B51005C07E34B51B6
:1014A000005ED8A003064C51035ED8800136023698
:1014B0004D2FEAD74EAF05D0011E021E012AD8B427
:1014C000022A000112000201056B046B076B066B18
:1014D000096B086B0B6B0A6B0D6B0C6B0F6B0E6B58
:1014E000116B106B136B126B156B146B176B166B08
:1014F000196B186B1B6B1A6B0151010A000101E09B
:10150000BBD20101FCAF03D0F8AF0AD002D0F8BFC4
:1015100020D0FC51F85D1DE303E1F751FB5D19E2BA
:10152000010E0201266FF70E256F010E286FFB0ECC
:10153000276F0001D5EC03F0010E0201266FF50EB6
:10154000256F010E286FF90E276F0001D5EC03F00F
:101550000101020100AF04D00101FCAF0DD003D0A6
:101560000101FCBF20D0020100510101FC5D1BE321
:1015700003E1FB51FF5D17E2010E0201266F2569B1
:10158000286FFB0E276F0001D5EC03F0010E02015E
:10159000266FFD0E256F010E286FF90E276F0001D3
:1015A000D5EC03F00101FCAF03D0F8AF0AD002D0B4
:1015B000F8BF20D0FC51F85D1DE303E1F751FB5D5E
:1015C00019E2010E0201266FF70E256F010E286F3A
:1015D000FB0E276F0001D5EC03F0010E0201266F10
:1015E000F50E256F010E286FF90E276F0001D5EC5F
:1015F00003F00101FF51F75DD8A4A3D0020100510F
:101600000101F85DD8A49DD0F6C107F2F5C106F23C
:1016100007C205F206C204F2FAAF04D0020105AF18
:1016200012D003D0020105BF13D00101FA5102010B
:10163000055D0EE308E104510101F95DD8A002D077
:10164000020106D00201FAC105F2F9C104F21CD070
:1016500007AF04D00101FAAF12D003D00101FABFE5
:1016600012D0020107510101FA5D0DE308E1F951C1
:101670000201065DD8A002D0010105D00101FAC126
:1016800007F2F9C106F202010101FAAF04D002012A
:1016900005AF12D003D0020105BF13D00101FA51EA
:1016A0000201055D0EE308E104510101F95DD8A0D6
:1016B00002D0020106D00201FEC105F2FDC104F212
:1016C0001CD007AF04D00101FEAF12D003D001013E
:1016D000FEBF12D0020107510101FE5D0DE308E1DA
:1016E000FD510201065DD8A002D0010105D0010123
:1016F000FEC107F2FDC106F20201010E0425016ED2
:10170000000E0521036E0150065D006E035007595F
:10171000036E005004251C6F035005211D6F05C288
:101720001FF204C21EF2216F1CC220F2F8C123F284
:10173000F7C122F202C224F2000143EC04F0E0D12E
:101740000101F551F95D0201106F0101F651FA59DD
:101750000201116F0101F751FB5D0201166F0101DA
:10176000F851FC590201176F0101F551FD5D0201AD
:10177000146F0101F651FE590201156F0101F75175
:10178000FF5D02011A6F0101F851020100591B6F40
:101790000101F951FD5D0201126F0101FA51FE597B
:1017A0000201136F0101FB51FF5D0201186F01017E
:1017B000FC5102010059196F096B086B0B6B0A6B26
:1017C0000101FF51FB5D0AE1020100510101FC5DD5
:1017D00005E1FCC10FF2FBC10EF20AD0010EFB5D68
:1017E00002010E6F000E0101FC5902010F6F010191
:1017F000F8C10DF2F7C10CF202010DAF03D00FAF2B
:101800000CD002D00FBF7AD00D510F5DD8A076D08A
:1018100004E10C510E5DD8A071D009C24AF208C291
:1018200049F217C24CF216C24BF2000110DE015011
:101830000101F5250201046F02500101F6210201A8
:10184000056F0BC24AF20AC249F21BC24CF21AC21D
:101850004BF20001FCDD01500101F5250201066F8C
:1018600002500101F6210201076F105108271151A2
:10187000092314510A2715510B2307AF03D005AFD5
:101880000AD002D005BF13D00751055D10E303E174
:101890000451065D0CE2020E266F040E256F020E47
:1018A000286F060E276F0001D5EC03F00201010E30
:1018B0000425016E000E0521036E0150065D006EC9
:1018C00003500759036E005004251C6F0350052177
:1018D0001D6F05C21FF204C21EF2216F1CC220F24E
:1018E0000DC223F20CC222F202C224F2000143EC28
:1018F00004F002010C2BD8B40D2B7FD70101FB5152
:1019000002010C5D006E0101FC5102010D59036ED4
:1019100000C01CF21D6F13C21FF212C21EF2216F13
:1019200000C020F2000170EC07F002C009F201C013
:1019300008F20101F75102010C5D006E0101F8513E
:1019400002010D59036E00C01CF21D6F15C21FF27B
:1019500014C21EF2216F00C020F2000170EC07F0EB
:1019600002C00BF201C00AF202010DAF03D000AFBA
:1019700010D002D000BF7ED00D51005DD8A07AD02B
:1019800008E10C510101FF5DD8B002D0020172D014
:10199000020109C24AF208C249F219C24CF218C245
:1019A0004BF2000154DD01500101F9250201046FE1
:1019B00002500101FA210201056F0BC24AF20AC26C
:1019C00049F21BC24CF21AC24BF2000140DD015039
:1019D0000101F5250201066F02500101F621020105
:1019E000076F125108271351092314510A27155163
:1019F0000B2307AF03D005AF0AD002D005BF13D029
:101A00000751055D10E303E10451065D0CE2020E8F
:101A1000266F040E256F020E286F060E276F000139
:101A2000D5EC03F00201010E0425016E000E052124
:101A3000036E0150065D006E03500759036E00509F
:101A400004251C6F035005211D6F05C21FF204C23F
:101A50001EF2216F1CC220F20DC223F20CC222F230
:101A600002C224F2000143EC04F002010C2BD8B4B2
:101A70000D2B7BD744D00001F6C11DF2F5C11CF23D
:101A8000F8C11FF2F7C11EF2FAC121F2F9C120F22A
:101A9000FCC123F2FBC122F203C225F202C224F2EE
:101AA000AFEC06F0FAC11DF2F9C11CF2FCC11FF245
:101AB000FBC11EF2FEC121F2FDC120F200C223F2E1
:101AC000FFC122F203C225F202C224F2AFEC06F0FB
:101AD000FEC11DF2FDC11CF200C21FF2FFC11EF2C9
:101AE000F6C121F2F5C120F2F8C123F2F7C122F2CA
:101AF00003C225F202C224F2AFEC06F0020100019B
:101B000012000101F46BF36B02012B6B2A6B0001D5
:101B100016EC03F00101F46B0A0EF36FF4BF07D06B
:101B2000F45101081AE303E1F351360816E3F4C156
:101B30000EF2F3C10DF20201106B140E0F6F010EC5
:101B4000126F2C0E116F13690001FEEC03F00A0EE8
:101B50000101F327000EF423E1D7F46B140EF36FA9
:101B6000F4BF07D0F451010819E303E1F3512C0845
:101B700015E302011F6B0A0E1E6F216BE60E206F2C
:101B8000F4C123F2F3C122F22469000143EC04F012
:101B90000A0E0101F327000EF423E2D70C0EF56FB5
:101BA000FA0EF66F000159EC00F00101F52FF8D79D
:101BB00002012B6B2A6B000116EC03F00101F46BA0
:101BC000F36BF4BF05D0F4531DE1F351EF081AE3B2
:101BD00002011D6B1C6B1F6B1E6BF4C121F2F3C164
:101BE00020F2010E236F3F0E226F050E256F1F0E90
:101BF000246F0001AFEC06F0050E0101F327000E83
:101C0000F423DFD7F46BEF0EF36FF4BF1AD00201A9
:101C10001D6BEF0E1C6F010E1F6F3F0E1E6FF4C188
:101C200021F2F3C120F2236B226B256B1F0E246F70
:101C30000001AFEC06F0050E0101F35F000EF45B4E
:101C4000E4D70C0EF56FFA0EF66F000159EC00F0B8
:101C50000101F52FF8D702012B6B2A6B000116EC5E
:101C600003F00101F66B090EF56FF86BF76FFA6B75
:101C7000E60EF96F010EFC6F360EFB6FFD6B010E69
:101C8000FE6F0201006B1F0E0101FF6F0201026B6C
:101C9000016B000188EC04F00101F66B130EF56F87
:101CA000F86BF76FFA6BDC0EF96F010EFC6F2C0E00
:101CB000FB6F010EFD6FFE6B7F0E0201006F0101D5
:101CC000FF690201026B016B000188EC04F00C0E4D
:101CD0000101F56FFA0EF66F000159EC00F00101F9
:101CE000F52FF8D702012B6B2A6B000116EC03F0DD
:101CF0000101F66B770EF56FF86B9F0EF76FFA6BBD
:101D0000500EF96FFB6BF80EFD6FFC6B00019AEC47
:101D100007F00101F66B770EF56FF86B9F0EF76F0A
:101D2000FA6B280EF96F010EFB6FFD69E00EFC6F78
:101D300000019AEC07F00C0E0101F56FFA0EF66F38
:101D4000000159EC00F00101F52FF8D702012B6BCF
:101D50002A6B000116EC03F00101F66B0A0EF56F19
:101D6000010EF86F360EF76FFA6B780EF96FFC6B99
:101D70000A0EFB6FFE6BE60EFD6F010E0201006F97
:101D8000360E0101FF6F0201016B070E036FE00EBB
:101D9000026F000163EC0AF0040E0101F56FE10E21
:101DA000F66F000159EC00F00101F52FF8D7F66B42
:101DB0000A0EF56F010EF86F360EF76FFA6B780E9C
:101DC000F96FFC6B0A0EFB6FFE6BE60EFD6F010EEA
:101DD0000201006F360E0101FF6F010E0201016F5B
:101DE000540E036F580E026F000163EC0AF00C0EE4
:101DF0000101F56FFA0EF66F000159EC00F00101D8
:101E0000F52FF8D702012B6B2A6B000116EC03F0BB
:101E10005FEF1EF00101F66B140EF56FF86BF76FB4
:101E2000FA6BDB0EF96F010EFC6F2B0EFB6F010ED0
:101E3000FD6FFE6B070E0201006FE00E0101FF6FE8
:101E4000070E0201026FE00E016F000188EC04F042
:101E50000101F66B780EF56FF86BA00EF76FFA6B59
:101E60003C0EF96F010EFB6FF80EFD6FFC6B00016D
:101E70009AEC07F0100E0101F36FFA0EF66F0001F5
:101E800059EC00F00101F32FF8D702012B6B2A6BFC
:101E9000000116EC03F061EF1EF0020163516503CF
:101EA000F3CF01F0F4CF00F06603F3500026645145
:101EB0006503F3500020026E0001ADEF0FF0020148
:101EC000696B686B62C26BF261C26AF264C26DF2E6
:101ED00063C26CF20001FFEC02F00201696B686BF7
:101EE00067516703F350695310E1685D0EE266C203
:101EF00073F265C272F2010E746F000135EC00F0EE
:101F00000201682BD8B4692BEBD700011200020143
:101F10005D6B5E6B606B5F6B575302E1010E576F39
:101F2000545306E15751535D03E2546B57C253F2C9
:101F30005D6B5D510408D8A06FD05E6B5E510708E1
:101F40005CE3606B5F6B200E5C5D626F646B636F64
:101F5000666B050E656F0001A0D701C061F202013A
:101F60005D510124016E000E0220036E0150080F26
:101F7000E96E000E0320EA6EEF50036A5F6F03C044
:101F800060F260C262F25FC261F25E51006E05E013
:101F9000D89062336133002EFBD7010E6117626B5C
:101FA000615302E1625312E054C262F253C261F221
:101FB00056C264F255C263F259C266F258C265F263
:101FC00057C267F200017BDF11D0020154C262F2F6
:101FD00053C261F256C264F255C263F25BC266F24A
:101FE0005AC265F257C267F2000169DF0201575118
:101FF0005527000E56235E2BA1D75735006E0036AD
:102000000036F80E00160050555F000E565B532B3D
:10201000D8B4542B5D2B8DD700011200020151C2A0
:1020200003F05051502BD8B4512BE96E03C0EAFF96
:10203000EFCF5CF2546B49C253F2566B4AC255F271
:102040004BC257F24DC259F24CC258F24FC25BF22A
:102050004EC25AF200015BDF060E0201492751C24F
:1020600003F050C2E9FF51C2EAFFEF501F0809E236
:1020700051C203F050C2E9FF51C2EAFFEF507F089E
:10208000CEE2546B49C253F2566B4AC255F24BC270
:1020900057F24DC259F24CC258F24FC25BF24EC2D7
:1020A0005AF2200E5C6F000132DF1200200E020196
:1020B000336F346F356F366F376F386F32AF08D08C
:1020C0002D0E336F311F321F312BD8B4322B02D07B
:1020D000200E336F32BF5AD0325303E131516308BF
:1020E00055E232BF07D03251030850E303E13151CA
:1020F000E7084CE332C24AF231C249F24C6B640E3B
:102100004B6F000127EC0AF001C039F2300E0201DA
:102110000124016E000E022001C034F232C24AF2E4
:1021200031C249F24C6B640E4B6F000127EC0AF090
:1021300000C039F2020103C03AF203C04AF200C003
:1021400049F24C6B0A0E4B6F000127EC0AF001C0FC
:1021500039F2300E02010124016E000E022001C08E
:1021600035F232C24AF231C249F24C6B0A0E4B6F61
:10217000000127EC0AF0020103C03AF2300E0024FD
:10218000016E000E032001C036F268D032BF46D087
:10219000325303E13151090841E232BF05D03253D5
:1021A0003DE1315163083AE332C24AF231C249F2A9
:1021B0004C6B640E4B6F000127EC0AF000C039F243
:1021C000020103C03AF203C04AF200C049F24C6B6C
:1021D0000A0E4B6F000127EC0AF001C039F2300EF5
:1021E00002010124016E000E022001C034F232C24D
:1021F0004AF231C249F24C6B0A0E4B6F000127ECD8
:102200000AF0020103C03AF2300E0024016E000E03
:10221000032001C035F2200E366F20D032BF1ED011
:1022200032BF05D032531AE13151090817E332C2E7
:102230004AF231C249F24C6B0A0E4B6F000127EC97
:102240000AF0020103C03AF2300E0024016E000EC3
:10225000032001C034F2200E356F366F2AC249F2D6
:102260002BC24AF22CC24BF22EC24DF22DC24CF2BE
:1022700030C24FF22FC24EF2020E516F330E506F2A
:102280000001CCDEECEF18F0200E0201416F426F2E
:10229000436F446F456F466F40AF08D02D0E416FBE
:1022A0003F1F401F3F2BD8B4402B02D0200E416F60
:1022B00040BFA0D040512608D8B09CD0FF0A04E10E
:1022C0003F510F08D8B096D040C24AF23FC249F2FF
:1022D000270E4C6F100E4B6F000127EC0AF001C067
:1022E00047F2300E02010124016E000E022001C0EF
:1022F00042F240C24AF23FC249F2270E4C6F100E22
:102300004B6F000127EC0AF000C047F2020103C046
:1023100048F203C04AF200C049F2030E4C6FE80EC7
:102320004B6F000127EC0AF001C047F2300E0201AA
:102330000124016E000E022001C043F240C24AF2A5
:102340003FC249F2030E4C6FE80E4B6F000127ECC1
:102350000AF000C047F2020103C048F203C04AF28B
:1023600000C049F24C6B640E4B6F000127EC0AF081
:1023700001C047F2300E02010124016E000E02205E
:1023800001C044F240C24AF23FC249F24C6B640EB3
:102390004B6F000127EC0AF000C047F2020103C0B6
:1023A00048F203C04AF200C049F24C6B0A0E4B6F70
:1023B000000127EC0AF001C047F2300E02010124AF
:1023C000016E000E022001C045F240C24AF23FC237
:1023D00049F24C6B0A0E4B6F000127EC0AF0020128
:1023E00003C048F2300E0024016E000E032001C02D
:1023F00046F26CD140BF98D040510208D8B094D07A
:10240000FF0A04E13F51E708D8B08ED040BF09D0A1
:1024100040512708D8A088D004E13F510F08D8A028
:1024200083D040C24AF23FC249F2270E4C6F100ED1
:102430004B6F000127EC0AF000C047F2020103C015
:1024400048F203C04AF200C049F2030E4C6FE80E96
:102450004B6F000127EC0AF001C047F2300E020179
:102460000124016E000E022001C042F240C24AF275
:102470003FC249F2030E4C6FE80E4B6F000127EC90
:102480000AF000C047F2020103C048F203C04AF25A
:1024900000C049F24C6B640E4B6F000127EC0AF050
:1024A00001C047F2300E02010124016E000E02202D
:1024B00001C043F240C24AF23FC249F24C6B640E83
:1024C0004B6F000127EC0AF000C047F2020103C085
:1024D00048F203C04AF200C049F24C6B0A0E4B6F3F
:1024E000000127EC0AF001C047F2300E020101247E
:1024F000016E000E022001C044F240C24AF23FC207
:1025000049F24C6B0A0E4B6F000127EC0AF00201F6
:1025100003C048F2300E0024016E000E032001C0FB
:1025200045F2200E466FD2D040BF6DD0405303E13C
:102530003F51630868E240BF07D04051030863E39E
:1025400003E13F51E7085FE340C24AF23FC249F26C
:10255000030E4C6FE80E4B6F000127EC0AF000C031
:1025600047F2020103C048F203C04AF200C049F238
:102570004C6B640E4B6F000127EC0AF001C047F270
:10258000300E02010124016E000E022001C042F251
:1025900040C24AF23FC249F24C6B640E4B6F0001DD
:1025A00027EC0AF000C047F2020103C048F203C062
:1025B0004AF200C049F24C6B0A0E4B6F000127EC47
:1025C0000AF001C047F2300E02010124016E000E34
:1025D000022001C043F240C24AF23FC249F24C6BB2
:1025E0000A0E4B6F000127EC0AF0020103C048F20B
:1025F000300E0024016E000E032001C044F2200EB4
:10260000456F466F63D040BF48D0405303E13F5110
:10261000090843E240BF05D040533FE13F51630802
:102620003CE340C24AF23FC249F24C6B640E4B6F2E
:10263000000127EC0AF000C047F2020103C048F293
:1026400003C04AF200C049F24C6B0A0E4B6F000106
:1026500027EC0AF001C047F2300E02010124016E9E
:10266000000E022001C042F240C24AF23FC249F2CB
:102670004C6B0A0E4B6F000127EC0AF0020103C0FD
:1026800048F2300E0024016E000E032001C043F218
:10269000200E446F456F466F19D040C24AF23FC2C8
:1026A00049F24C6B0A0E4B6F000127EC0AF0020155
:1026B00003C048F2300E0024016E000E032001C05A
:1026C00042F2200E436F446F456F466F38C249F2A5
:1026D00039C24AF23AC24BF23CC24DF23BC24CF212
:1026E0003EC24FF23DC24EF2020E516F410E506F8C
:1026F000000194DC12008E0E006E02013851005E63
:1027000039C202F03AC201F0028E005209E0D890BC
:10271000025202E1015204E002320132002EF7D7E8
:1027200039AF05D0011E021E012AD8B4022A0001C9
:1027300012008E0E006E39C201F038C202F0036A38
:1027400001AE05D0011E021E022A01E1012A01523A
:1027500009E102C001F0026A080E005E015202E1C6
:10276000006A0DD0D89001BE04D0023601360006B2
:10277000F9D7020139AF02D0000101D0019E00015A
:102780007DEF16F0800ED8A202D00201431B020199
:10279000486B496B3FC247F24351471B3E51D8B487
:1027A000DFD0466F006E4251D8B4E3D0465FD8B454
:1027B00083D03EE343C24CF24C8F44C24BF245C23D
:1027C0004AF2496BD8904C334B334A334933462F46
:1027D000F8D747AF03D04881E0D048914691488967
:1027E000020EEA6E410EE96EEBD0489947BF0AD05F
:1027F00046A113D04C334B334A334933002AD8B463
:10280000C7D00BD04CBF0CD0D89049374A374B3784
:102810004C370006D8B4BCD0F5D7488D6DD0489D54
:102820003FC247F23FAF02D04C8FABD04C9FA9D0F4
:1028300042C246F242C200F03E51465F3FC24CF2F5
:102840004C8F40C24BF241C24AF2496BD8904C3394
:102850004B334A334933462FF8D747AF03D0488329
:102860009CD048934691488B020EEA6E450EE96E65
:10287000A7D0489B47BF0AD046A113D04C334B3357
:102880004A334933002AD8B483D00BD04CBF0CD084
:10289000D89049374A374B374C370006D8B478D0F0
:1028A000F5D7488F29D0489F43C247F243AF02D0A3
:1028B0004C8F67D04C9F65D043C24CF24C8F44C2C2
:1028C0004BF245C24AF247AF04D04C9F488565D0D1
:1028D0004895496B4691020EEA6E410EE96E70D042
:1028E00047BF1CD03FC247F246A106D04C334B3302
:1028F0004A334933002A4CE049AF0BD04A2B09E157
:102900004B2B07E14C2B05E14C334B334A33002A68
:102910003FE048BD84D748BFC6D71CD0800E4C1BB3
:102920004CAF04D03AD043C247F20AD03FC247F27C
:102930004C5306E14B5304E14A5302E1006A21D0B3
:102940004CBF08D0D89049374A374B374C37002E08
:10295000F7D71ED047AF02D04C8F13D04C9F11D069
:1029600042C200F043C24CF244C24BF245C24AF2AA
:1029700008D03EC200F03FC24CF240C24BF241C20E
:102980004AF24CC201F04BC202F04AC203F034D00A
:10299000006A016A026A036A2FD0496B4A1F4B1F03
:1029A0004C1F491F492B05E14A2B03E14B2B01E149
:1029B0004C2B48B112D748B354D748B589D7B3D7B1
:1029C000EF504A2705E34B2B03E14C2BD8B446814B
:1029D000ED52EF504B2703E34C2BD8B44681ED5218
:1029E000EF50EFBE01D0800A4C27D8B0468148B9DD
:1029F000FCD648BB3ED774D70001120002013E51FD
:102A0000D8B471D0006E4251D8B46DD0002604E322
:102A1000810E002668E204D07F0E005E64E363E06E
:102A20003FC246F24351461B3F8F438F41514503FE
:102A3000F4CF48F240514403F4CF03F0F3CF47F210
:102A40004503F3504827F4504723000E0322415119
:102A50004403F3504827F4504723000E026A032230
:102A600002223F514503F3504727F4500322000E42
:102A700002223F514403F3500326F4500222000E79
:102A8000016A012241514303F3504727F4500322C6
:102A9000000E0222012240514303F3500326F4505A
:102AA0000222000E01223F514303F3500226F4504C
:102AB0000122002A01BE05D047370336023601360F
:102AC0000006000E47AF0AD0032A0222012201505D
:102AD00005E1025003E1035001E1002A46BF018EE7
:102AE00046AF019E04D0006A016A026A036A0001CF
:102AF000120039C240F202013D51401B40AF05D0E7
:102B0000D894D89039BFD8802FD039C240F23CC277
:102B100041F23851415F06E040AF26D0D850010A5B
:102B2000D86E22D03DC241F23951415F06E040AF3C
:102B30001BD0D850010AD86E17D03EC241F23A518C
:102B4000415F06E040AF10D0D850010AD86E0CD0DB
:102B50003FC241F23B51415F06E040AF05D0D85043
:102B6000010AD86E01D0D89000011200016A026AF1
:102B7000006A036A02014E5102E14D5118E0100E45
:102B80004F6FD8904B374C37003603364E51035CAD
:102B900002E14D51005C07E34D51005ED8A00306F1
:102BA0004E51035ED880013602364F2FEAD700011E
:102BB00012002E0E0201436F200E446F456F466FC8
:102BC000476F486F41C24CF240C24BF2030E4E6F4A
:102BD000E80E4D6F0001CADF300E02010124446F80
:102BE000425101084AE241C24CF240C24BF2030E8C
:102BF0004E6FE80E4D6F0001B9DF00C049F20201CF
:102C000003C04AF203C04CF200C04BF24E6B640E9C
:102C10004D6F0001ABDF300E02010124456F4251C0
:102C200002082BE241C24CF240C24BF24E6B640EE2
:102C30004D6F00019BDF00C049F2020103C04AF260
:102C400003C04CF200C04BF24E6B0A0E4D6F0001F8
:102C50008DDF300E02010124466F425103080DE260
:102C600041C24CF240C24BF24E6B0A0E4D6F000156
:102C70007DDF0201300E0024476F39C249F23AC2AB
:102C80004AF23BC24BF23DC24DF23CC24CF23FC253
:102C90004FF23EC24EF2020E516F430E506F0001D2
:102CA0000EEC10F012000201376B366B34C23BF2AF
:102CB00033C23AF232C239F231C238F200011BDDBE
:102CC00002C037F201C036F22AC238F22BC239F202
:102CD0002CC23AF22EC23CF22DC23BF230C23EF27E
:102CE0002FC23DF237C240F236C23FF244EC11F03F
:102CF00037C239F236C238F21CD5D88234C241F21A
:102D000033C240F232C23FF231C23EF203C045F25A
:102D100002C044F201C043F200C042F233DD03C0FE
:102D20003BF202C03AF201C039F200C038F203C0EF
:102D300041F202C040F201C03FF200C03EF2020187
:102D4000456B400E446F1C0E436F8C0E426F0001AA
:102D500055DE03C03BF202C03AF201C039F200C0B6
:102D600038F2C9DC02C037F201C036F2020137AFD7
:102D700005D0361F371F362BD8B4372B3B6B400E90
:102D80003A6F1C0E396F8C0E386F34C23FF233C26B
:102D90003EF232C23DF231C23CF20001AADE01E253
:102DA0002DE134C23BF233C23AF232C239F231C2BF
:102DB00038F202013F6B500E3E6F430E3D6F8F0E97
:102DC0003C6F000196DE1AE3240E02012A25386FBB
:102DD000396F2BC23AF22CC23BF22EC23DF22DC209
:102DE0003CF230C23FF22FC23EF237C241F236C24D
:102DF00040F235C242F20001DCDE26D102013B6B1B
:102E00003A6B7A0E396F880E386F34C23FF233C294
:102E10003EF232C23DF231C23CF200016ADE01E212
:102E20002DE134C23BF233C23AF232C239F231C23E
:102E300038F202013F6B400E3E6F1C0E3D6F8C0E50
:102E40003C6F000156DE1AE31E0E02012A25386F80
:102E5000396F2BC23AF22CC23BF22EC23DF22DC288
:102E60003CF230C23FF22FC23EF237C241F236C2CC
:102E700040F235C242F200019CDEE6D002013B6B1B
:102E80003A6B480E396F850E386F34C23FF233C249
:102E90003EF232C23DF231C23CF200012ADE01E2D2
:102EA0002CE134C23BF233C23AF232C239F231C2BF
:102EB00038F202013F6B3E6B7A0E3D6F880E3C6F1D
:102EC000000117DE1AE3180E02012A25386F396F48
:102ED0002BC23AF22CC23BF22EC23DF22DC23CF282
:102EE00030C23FF22FC23EF237C241F236C240F248
:102EF00035C242F200015DDEA7D002013B6B3A6BA6
:102F0000200E396F820E386F34C23FF233C23EF268
:102F100032C23DF231C23CF20001EBDD01E22CE1B4
:102F200034C23BF233C23AF232C239F231C238F221
:102F300002013F6B3E6B480E3D6F850E3C6F0001FA
:102F4000D8DD1AE3120E02012A25386F396F2BC221
:102F50003AF22CC23BF22EC23DF22DC23CF230C2FC
:102F60003FF22FC23EF237C241F236C240F235C2C2
:102F700042F200011EDE68D034C23BF233C23AF2A4
:102F800032C239F231C238F202013F6B3E6B200E81
:102F90003D6F820E3C6F0001ACDD56E30C0E02016A
:102FA0002A25386F396F2BC23AF22CC23BF22EC25F
:102FB0003DF22DC23CF230C23FF22FC23EF237C288
:102FC00041F236C240F235C242F20001F2DD34C2B3
:102FD0003BF233C23AF232C239F231C238F2020164
:102FE0003F6B3E6B3D6B3C6B000183DD17E30201E1
:102FF000546B2AC253F2566B2BC255F22CC257F2B5
:103000002EC259F22DC258F230C25BF22FC25AF2D0
:103010002D0E5C6F000187EC0FF016D00201546B8F
:103020002AC253F2566B2BC255F22CC257F22EC253
:1030300059F22DC258F230C25BF22FC25AF2200E62
:103040005C6F000187EC0FF018EF19F04D0E0101D5
:10305000F36F690EF46F630EF56F720EF66F6F0EFD
:10306000F76F410EF86F720EF96F650EFA6F6E0E04
:10307000FB6F610EFC6FFD6B680EFE6F740EFF6FD1
:103080000201006F700E016F730E026F3A0E036F34
:103090002F0E046F056F770E066F076F086F2E0EE9
:1030A000096F660E0A6F610E0B6F630E0C6F650E73
:1030B0000D6F620E0E6F6F0E0F6F106F6B0E116F34
:1030C0002E0E126F630E136F6F0E146F6D0E156F51
:1030D0002F0E166F4D0E176F690E186F630E196F56
:1030E000720E1A6F6F0E1B6F410E1C6F720E1D6FEA
:1030F000650E1E6F6E0E1F6F610E206F216B226BAF
:10310000F70E236F2569246F296B286B900E276FAC
:10311000820E266F0A0E496F4A6F010E4B6FF80E32
:103120004D6F4C6B4F6B4E6B010E516FF30E506F2A
:1031300000010EEC10F00A0E0201496F1E0E4A6FDC
:10314000020E4B6F070E4D6FE00E4C6F4F6B4E6BC8
:10315000010E516FF30E506F00010EEC10F00A0ECD
:103160000201496F3C0E4A6F030E4B6F4D6B1F0EF1
:103170004C6F4F6B4E6B010E516FF30E506F000191
:103180000EEC10F00A0E0201496F5A0E4A6F030E40
:103190004B6F4D694C694F6B4E6B010E516FFE0EBC
:1031A000506F00010EEC10F00201226B22517F08DB
:1031B00063E30A0E2A6FA00E2B6F010E2C6FF80E20
:1031C0002E6F2D6B306B2F6B326B23C231F231BF00
:1031D0003207000156EF10F03C0E0201386FA00ECE
:1031E000396F020E3A6F070E3C6FE00E3B6F3E6B7D
:1031F0003D6B25C240F224C23FF2000144EC11F0C5
:10320000780E02012A6FA00E2B6F030E2C6F2E6B0F
:103210001F0E2D6F306B2F6B29C234F228C233F290
:1032200027C232F226C231F2010E356F00013BD5C2
:103230000201232B242BD8B4252BD89229C241F28A
:1032400028C240F227C23FF226C23EF2CD0E456FA1
:10325000CC0E446F4C0E436F7B0E426F0001C2ECEC
:1032600013F003C029F202C028F201C027F200C007
:1032700026F20201222B9AD72B6B2A6B000116EC47
:1032800003F063EF1EF00101FE6BFF6B0201016BA7
:10329000006BC950C96AC730FEE3C9CFFFF1C950FE
:1032A000C96AC730FEE3C9CFFEF1016BFFC100F26E
:1032B00000C201F2006B0101FE5102010013013353
:1032C000003301330033013300331F0E01170F0E9B
:1032D000011700C201F001C202F0000112008E0EBF
:1032E000006E23C201F022C202F0036A015209E11A
:1032F00002C001F0026A080E005E015202E1006A9B
:1033000008D0D89001BE04D0023601360006F9D7A5
:10331000019E120002013E51D8B4A5D04A6F42511D
:10332000D8B4A1D04A5F05E37F0E4A27D8B09BD01E
:1033300006D0810E4A5FD8A096D0D8B494D04AC2A5
:1033400000F0016A026A036A496B3FC248F2488F83
:1033500040C247F241C246F2190E4A6F4551465FDC
:103360000DE2010E475F0AE2485F08E2495F06E2AC
:10337000492B482B472B4551462728D04451475FBE
:1033800012E2010E485F0FE2495F0DE2492B482B24
:10339000445147274551462719E3472B17E1482B4E
:1033A00015E1492B13D043518009485F0EE2010E0D
:1033B000495F0BE2492B4351800948274451472775
:1033C000E9E3482BE7E1492BE5D703804A2F01D0F9
:1033D0000BD0D8904637473748374937D89003360F
:1033E000023601364B37BAD74BA106D0D8900132FE
:1033F000023203324B3302D0000635E04BBF1ED001
:10340000D89046374737483749374551465F07E236
:10341000010E475F04E2485F02E2495F1AE344514C
:10342000475F05E2010E485F02E2495F12E3435144
:103430008009485F03E2010E495F0BE3032A09E1BB
:10344000022A07E1012A05E1002A0DE001320232D9
:1034500003323FC24AF243514A1B4AAF02D0018EA7
:1034600006D0019E04D0006A016A026A036A000164
:103470001200D88239C241F238C240F237C23FF25C
:1034800036C23EF235C245F234C244F233C243F290
:1034900032C242F2C2EC13F003C03DF202C03CF271
:1034A00001C03BF200C03AF2D88231C241F230C2D0
:1034B00040F22FC23FF22EC23EF22DC245F22CC284
:1034C00044F22BC243F22AC242F2C2EC13F03DC2D4
:1034D00041F23CC240F23BC23FF23AC23EF203C06C
:1034E00045F202C044F201C043F200C042F212DFD2
:1034F00003C03DF202C03CF201C03BF200C03AF210
:10350000D88229C241F228C240F227C23FF226C225
:103510003EF22DC245F22CC244F22BC243F22AC223
:1035200042F2C2EC13F03DC241F23CC240F23BC257
:103530003FF23AC23EF203C045F202C044F201C07B
:1035400043F200C042F2FEEC14F0D89235C241F2D0
:1035500034C240F233C23FF232C23EF203C045F2FF
:1035600002C044F201C043F200C042F2C2EC13F0C8
:1035700012002DC23BF22CC23AF22BC239F22AC2FF
:1035800038F225C23FF224C23EF223C23DF222C2EB
:103590003CF279EC15F001E20AE12AC200F02BC2FC
:1035A00001F02CC202F02DC203F027D026D025C294
:1035B0003BF224C23AF223C239F222C238F229C2C3
:1035C0003FF228C23EF227C23DF226C23CF279EC1D
:1035D00015F001E20AE126C200F027C201F028C27C
:1035E00002F029C203F009D008D022C200F023C2A1
:1035F00001F024C202F025C203F098EF1CF0020192
:10360000106B0F6B0E6B0D6B146B136B126B116BDE
:10361000186B176B166B156B1C6B1B6B1A6B196B8E
:103620001E6B1D6B1F6B0051010A000101E017D0DA
:103630000201146B136B480E126F860E116F186B1C
:10364000800E176F6D0E166F8A0E156F1C6B800E35
:103650001B6F1F0E1A6F870E196F15D00001020124
:10366000146B136B480E126F860E116F186B800E61
:10367000176F6D0E166F8A0E156F1C6B1B6B6F0E1E
:103680001A6F860E196FFFC123F2FEC122F20001EC
:1036900026DE03C023F202C022F201C021F200C0E4
:1036A00020F2D88203C041F202C040F201C03FF2D2
:1036B00000C03EF20201456B446B480E436F840E1E
:1036C000426F0001C2EC13F003C023F202C022F2E9
:1036D00001C021F200C020F203C029F202C028F28A
:1036E00001C027F200C026F214C22DF213C22CF240
:1036F00012C22BF211C22AF218C231F217C230F2F2
:1037000016C22FF215C22EF20201356B346B336BE9
:10371000326B1CC239F21BC238F21AC237F219C21C
:1037200036F20001A6DE03C004F202C003F201C0BB
:1037300002F200C001F2FFC123F2FEC122F2CFDD8E
:1037400003C023F202C022F201C021F200C020F225
:10375000D89203C041F202C040F201C03FF200C063
:103760003EF20201456B446B480E436F840E426F7C
:103770000001C2EC13F003C023F202C022F201C028
:1037800021F200C020F203C029F202C028F201C0D9
:1037900027F200C026F214C22DF213C22CF212C27C
:1037A0002BF211C22AF218C231F217C230F216C23D
:1037B0002FF215C22EF20201356B346B336B326B74
:1037C0001CC239F21BC238F21AC237F219C236F2E1
:1037D00000014FDE03C008F202C007F201C006F28A
:1037E00000C005F2FFC123F2FEC122F278DD03C062
:1037F00023F202C022F201C021F200C020F203C075
:1038000029F202C028F201C027F200C026F214C239
:103810002DF213C22CF212C22BF211C22AF218C2DC
:1038200031F217C230F216C22FF215C22EF2020187
:10383000356B346B336B326B1CC239F21BC238F2FE
:103840001AC237F219C236F2000113DE03C00CF2BD
:1038500002C00BF201C00AF200C009F202011F6BA4
:103860001F51020836E31F51040DF350036A010F84
:10387000E96E020E0320EA6EEFCF42F2ECCF01F0C8
:10388000ECCF02F0ECCF03F0EACF21F2E9CF20F247
:10389000D89210C241F20FC240F20EC23FF20DC2E6
:1038A0003EF203C045F202C044F201C043F20001FF
:1038B000C2EC13F021C2EAFF20C2E9FF03C010F2FC
:1038C00002C00FF201C00EF200C00DF202011F2B68
:1038D000C7D710C241F20FC240F20EC23FF20DC272
:1038E0003EF2456B446B400E436F800E426F000109
:1038F00011DD03C010F202C00FF201C00EF200C0D1
:103900000DF210C225F20FC224F20EC223F20DC234
:1039100022F20201296B286B276B266B1CC22DF249
:103920001BC22CF21AC22BF219C22AF2000121D6B4
:1039300003C03BF202C03AF201C039F200C038F2D3
:103940007BEC13F002C01EF201C01DF202011DC289
:1039500001F01EC202F0000112000101F86BF76BCA
:10396000FA6BF96BFC6BFB6B100EFD6F92988998EC
:10397000FD531AE0C950900EC96EC730FEE3000136
:1039800082DC01500101FB270250FC23C950D00EFC
:10399000C96EC730FEE3000176DC01500101F92752
:1039A0000250FA23FD07E4D792988988FA31F86F1C
:1039B000F931F76FF833F733F833F733F833F73378
:1039C0000F0EF817F8C1FFF1F7C1FEF10201006B0D
:1039D000000115DE02C0F8F101C0F7F10101F3C1E9
:1039E000E9FFF4C1EAFFF8C1ECFFED52F7C1EFFFC8
:1039F000FC31F86FFB31F76FF833F733F833F733F7
:103A0000F833F7330F0EF817F8C1FFF1F7C1FEF1E5
:103A1000010E0201006F0001F2DD02C0F8F101C0E9
:103A2000F7F10101F5C1E9FFF6C1EAFFF8C1ECFFCA
:103A3000ED52F7C1EFFF00017DEF1EF0F86AD09E56
:103A4000700ED36E400E9B6ED350056A046A076AEF
:103A5000066AC150C00B0F09C16E070EB46EF1D0DB
:103A6000074008003A805F00000007000700147F4D
:103A7000147F14242A7F2A122313086462364955BE
:103A800022500005030000001C2241000041221CBE
:103A90000014083E081408083E08080050300000D2
:103AA00005C0084B80006060000020100804023E42
:103AB0005149453E00427F40004261514946214103
:103AC000454B311814127F1027454545393C4A496A
:103AD00049300171090503364949493606494929E2
:103AE0001E00363600000056360000081422410041
:103AF00005C0144780004122140802015109063212
:103B00004979413E7E1111117E7F494949363E4136
:103B10004141227F4141221C7F494949417F090996
:103B200009013E4149497A7F0808087F00417F41E9
:103B3000002040413F017F081422417F04C0405AC9
:103B4000807F020C027F7F0408107F3E4141413E8E
:103B50007F090909063E4151215E7F091929464620
:103B60004949493101017F01013F4040403F1F2049
:103B700040201F3F4038403F63140814630708701B
:103B800008076151494543007F4141000204081084
:103B9000200041417F00040201020405C040A080D2
:103BA000000102040020545454787F4844443838BB
:103BB00044444420384444487F3854545418087EC0
:103BC0000901020C5252523E7F0804047800447DE1
:103BD00040002040443D007F1028440000417F40C9
:103BE000007C041804787C08040478384444443881
:103BF0007C14141408081414187C7C080404084865
:103C000054545420043F4440203C4040207C1C201D
:103C100040201C3C4030403C44281028440C50506C
:103C2000503C4464544C44000836410000007F007E
:103C30000000413608001008081008784641467810
:103C40000000000EF86E3A0EF76E600EF66E090078
:103C5000F550006E000A13E00900F550016EE8BE51
:103C600005D00F0BEA6E0900F5CFE9FF01BC090092
:103C700001AC0900F5CFEEFF004EE9D7F9D7F86A9D
:103C8000440E0101E86F720EE96F610EEA6F770E64
:103C9000EB6F200EEC6F430EED6F680EEE6F650E4E
:103CA000EF6F630EF06F6B0EF16FF26B000183EF3D
:103CB00002F04EEF03F08AEF05F081EF0DF00AEF0E
:103CC0000FF026EF18F00A0E0201496F4A6F020E3C
:103CD0004B6F4D694C694F6B4E6B010E516FE80E87
:103CE000506F00010EEC10F00101F46B040EF36F45
:103CF000F66B060EF56F000130D605C0F6F104C074
:103D0000F5F107C0F8F106C0F7F10101FA6B060EF4
:103D1000F96F010EFB6FFD69FC6900019AEC07F079
:043D2000E3D70300E2
:020000040030CA
:0E00000000C8161E0081810000400FE0004085
:00000001FF
;PIC18F4520
;CRC=8E16  CREATED="13-Aug-16 16:18"
