:1000000000308A008C2800000B138B138B1B0528F3
:100010001810613083168F0090010F0883129A0127
:100020000730990083160508850003308312A0006D
:10003000A00B182819088C111F101F1300308316ED
:100040009100F0308312950583160108C0398100B4
:100050000530831290000030A1009200FF3083161B
:100060009200831281018E018F018E019101A328DC
:100070002D080739A0002D0CA100A10CA10C1F30E8
:10008000A10521082F078400831330188317A101CD
:10009000A10AA00A4C28A10DA00B4B28AE080319F9
:1000A0005428210880045728A10921088005BE286A
:1000B0002D080739A0002D0CA100A10CA10C1F30A8
:1000C000A10521082E07840083132F188317000829
:1000D000A100A00A6C28A10CA00B6B28080012300C
:1000E000AD02031C82282D3084008313FC30800570
:1000F0000310800C800C000803198228802800005F
:10010000800B7F28D128210803198B282008800024
:10011000840AA10B8628172903081F398300613040
:1001200083168F0090010F0883121F13003083166F
:10013000910083129A010730990083132510A901B9
:10014000AB01AA010428831607168312071ED628BE
:1001500026100130A9002908153C031CD528831658
:10016000071600308312071A0130AC002908AD00D1
:100170002C08AE00B0012630AF0038282908AD00A9
:10018000AF012630AE0058202118C8288711C92891
:1001900087158316871104308312AC00DE30AD0062
:1001A0006F28AC0BCE28A90AAB282514251C1D29C5
:1001B0000130A9002908153C031C10290310AA0DC1
:1001C000AB0D01302902AD00AF012630AE00582042
:1001D00021080139031DF7282908AD00AF01263099
:1001E000AE00582021080139013C03192A140130BE
:1001F0002902AD00AF012630AE0058202108013998
:10020000013C031D0D292908AD00AF012630AE00C9
:10021000582021080139031D0D290230A907DA28C9
:10022000263084008313A0010330A1008328AB0192
:1002300083168711831287112510AA08031D23290D
:10024000AB08031949292A08043C031D2F29AB08D0
:10025000031D2F29831607100130831287062A08F1
:10026000093C031D3B29AB08031D3B29831687105E
:100270000230831287062A08103C031D4729AB0869
:10028000031D472983160711043083128706AB012B
:06029000AA01A32863008F
:02400E00040F9D
:00000001FF
;PIC16F684
;CRC=F3B2  CREATED="19-May-15 09:53"
