:1000000002308A008B2A0000FF00030E8301A1004A
:100010000A08A0008A010408A2007708A300780853
:10002000A4007908A5007A08A60003170D08031399
:10003000A70003170F080313A80003170C080313E6
:10004000A90003170E080313AA00831383128B1E43
:100050002B280B194C28220884002308F7002408B9
:10006000F8002508F9002608FA00270803178D0074
:100070000313280803178F000313290803178C00A4
:1000800003132A0803178E00031320088A00210E89
:100090008300FF0E7F0E09008A110A1257280A10EA
:1000A0008A100A11820728340C34013406341030C7
:1000B000BD00BE01BD08031975282F132F08831634
:1000C0008700831207172F132F08831687008312C8
:1000D0000713AF172F08831687008312871B732817
:1000E0003D08113CBE00BD035A283E08F8007808C0
:1000F000AC0081010B118A110A122B28542A5019C5
:10010000B21C2D2153232010C432ED37000050398A
:10011000E539F3326410CB32791D00010D00343023
:100120008400831300080319A3280330F800F701A3
:10013000F70B9828F80B97283C30F700F70B9E2810
:10014000A128800B952808003B18A8280812A92888
:100150000816831608128312BB18B0288812B1281B
:1001600088168316881283123B19B8280813B928F9
:100170000817831608138312BB19C0288813C128D7
:100180008817831688130000091183120915C828DF
:10019000C928000083160911831209110800BC0147
:1001A0008316091183120915D528831608168312A0
:1001B0003C10081A3C14831688168312BC10881A47
:1001C000BC148316081783123C11081B3C158316B8
:1001D00088178312BC11881BBC1583160911831262
:1001E0000911F2283C08F800080083160910831250
:1001F000091083168910831289140000CF20780813
:10020000BB00CF207808BA003B0EF700F030F705AE
:1002100077083A04F8007808BA00BA1BF928B80839
:100220000319172983160910831209141B29831631
:100230000910831209100000831689108312891097
:1002400000008316091183120911390EBA000F300C
:10025000BA053A08BB00A42039080F39BA00BB0020
:10026000A42008003508013A03194029033A03196C
:100270004229013A03194529073A031948294B290C
:10028000B6014C294030B6004C291430B6004C2938
:100290005430B6004C29B60101303402B607360896
:1002A0008038B700B8013708B900F52008003308D6
:1002B0000C3A03196229063A03196C29023A031908
:1002C00073297829B8010130B900F5200130AB005D
:1002D0000230B4008F207D29AB0A0130B4002B0816
:1002E000B50032217D29B8011030B900F5207D29F3
:1002F0000130B8003308B900F52008000B08B00041
:100300008B13831603178C170C1400000000831244
:100310000313B01B8B1703170C087F390319D2295D
:100320000313B00003170D080313B10003170F08E0
:100330000313B2003008B3005721310803178D00B2
:100340000313320803178F0003130B08B3008B133A
:10035000831603178C170C1400000000831203137C
:10036000B31B8B1703170C0D0E0D7F390319D22900
:100370000313B00003170D080313B10003170F0890
:100380000313B2003008B3005721310803178D0062
:100390000313320803178F008D0A03198F0A031302
:1003A0007E290317031308000B138B138B1BD5290E
:1003B00083160108C0398100831290010030F800D3
:1003C0009200FF3083169200831281018E018F010B
:1003D0008E019101F03097059D05831609120730B3
:1003E0009C00050885000830F700F70BF5291C086C
:1003F00083120D139401831681171F149F141F1568
:100400009F1183121F108B16C0308B040130AB007C
:10041000831609108312091083168910831289101C
:1004200083160911831209112330B4008F20B00103
:100430003008023C031C242A0330BB00A4200530F2
:10044000B4008F20B00A182A0230BB00A420B001EB
:100450003008033C031C352A30084F20B100B80196
:100460003108B900F520B00A282A8E3003178D0014
:1004700000308F0003137E218A110A129D2A33084F
:10048000F80132020318472A3208F700532AF7010D
:100490000830B400B20DF70D330877020318F700E7
:1004A000F80DB40B4A2A080078083008B20064300E
:1004B000B3003F227708B00078083030031D672A68
:1004C000B11C6E2AB1196E2A311A20306A2AB11174
:1004D00031123114F8077808B30057213008B20000
:1004E0000A30B3003F227708B00078083030031D8F
:1004F0007F2AB119832A311C832A311A2030F80748
:100500007808B30057213030B0073008B3005721C6
:100510008A110A12BE2A03081F398300AC01AE01FA
:10052000AD01FF30AF0083161F149F141F159F11DC
:1005300007309C0083138312D4290130B400B50026
:1005400032217E3003178D0000308F0003137E218F
:100550000130B4000230B5003221873003178D001E
:1005600000308F0003137E210F30B4000230B5003D
:1005700032212C08B0000130B100542A2030B300E1
:0C05800057216430B4008F20B42A6300BF
:02400E00321E60
:00000001FF
;PIC16F877A
;CRC=EA27  CREATED="19-Jan-19 16:43"
