:1000000006308A009C2E00000A108A100A1182070E
:1000100028340C34013406340A108A100A1182077D
:1000200004340A340A340434003400340034003414
:100030000C00C3376D38E13973104539F237F210CF
:100040000001C832613269376710202700010C00B7
:10005000CD01250B2D280130CD07260B312802308C
:10006000CD07270B35280430CD07280B3928083059
:10007000CD07290B3D281030CD072A0B4128203011
:10008000CD072B0B45284030CD072C0B492880305D
:10009000CD074D08CE004E08CF00D001D1018030F1
:1000A000D0000130D1005108083C031C70284F08D3
:1000B0005005031960288716831687126328831258
:1000C00087128316871283120717831607130310EC
:1000D0008312D00C0713831607138312D10A5328F7
:1000E0008717831687138312871383168713831248
:1000F00008004C08A500282008004C08A60028206D
:1001000008004C08A700282008004C08A800282058
:1001100008004C08A900282008004C08AA00282044
:1001200008004C08AB00282008004C08AC00282030
:10013000080001304902F83E0318B728083EB828E5
:10014000CC017920B728CC017D20B728CC018120B3
:10015000B728CC018520B728CC018920B728CC014D
:100160008D20B728CC019120B728CC01952008001C
:100170000A108A100A118207A028A328A628A928F5
:10018000AC28AF28B228B52841308400831300087A
:100190000319D8280130A100A001A00BCD28A10B84
:1001A000CC284A30A000A00BD328D628800BCA2820
:1001B000080001304A02F83E0318FF28083E0029D3
:1001C0004B08CC007920FF284B08CC007D20FF286D
:1001D0004B08CC008120FF284B08CC008520FF284D
:1001E0004B08CC008920FF284B08CC008D20FF282D
:1001F0004B08CC009120FF284B08CC00952008002C
:100200000A148A100A118207E028E428E828EC285A
:10021000F028F428F828FC2801304902F83E031899
:100220003229083E33290130CC00792032290130AF
:10023000CC007D2032290130CC00812032290130D0
:10024000CC00852032290130CC00892032290130B0
:10025000CC008D2032290130CC0091203229013090
:10026000CC00952008000A148A100A11820713296D
:1002700017291B291F29232927292B292F2900303A
:1002800048180130C9000530CA004908CB00D92000
:100290000030C8180130C9000630CA004908CB0038
:1002A000D920003048190130C9000730CA00490878
:1002B000CB00D9200030C8190130C9000830CA006D
:1002C0004908CB00D92000000430C9000C2168295E
:1002D0000430C900992008000330C9009920133068
:1002E000A000A00B71297429C50803197B290330CC
:1002F000C9000C217E290330C90099200000043078
:10030000C9009920460EC7000F30C7054708C8002E
:100310003F2146080F39C700C8003F210800C3012C
:10032000420B932996294030C3009729C30101301D
:100330004102C30743088038C400C5014408C60011
:100340006C21080040080C3A0319AD29063A03193C
:10035000B529023A0319BB29C029C5010130C600DD
:100360006C210230C100C420C5290130C100023017
:10037000C2008F21C529C5011030C6006C21C529D6
:100380000130C5004008C6006C2108000B08B3000E
:100390008B13831603178C170C14000000008312B4
:1003A0000313B31B8B1703170C087F3903191A2A81
:1003B0000313B30003170D080313B40003170F084A
:1003C0000313B5003308C000A221340803178D00C1
:1003D0000313350803178F0003130B08B6008B13A4
:1003E000831603178C170C140000000083120313EC
:1003F000B61B8B1703170C0D0E0D7F3903191A2A24
:100400000313B30003170D080313B40003170F08F9
:100410000313B5003308C000A221340803178D0070
:100420000313350803178F008D0A03198F0A03136E
:10043000C6290317031308008E30A0004308A1004B
:100440004208A200A301A108031D302A2208A1002E
:10045000A2010830A002A108031D302AA001382AF9
:100460000310A11B372AA20DA10DA003302AA1134E
:10047000080042080319A92ACA0046080319A92A34
:10048000CA0703184A2A7F30CA02031CA92A031983
:10049000A92A4E2A8130CA070318A92A4A08A000AF
:1004A000A101A201A3014308CE00CE174408CD004C
:1004B0004508CC001830CA00CB014C1C772A4908EB
:1004C000A307031C692AA20A031D692AA10A0319AA
:1004D000CB174808A207031C702AA10A0319CB17DF
:1004E0004708C400C4174408A1070318CB17CB0D55
:1004F000A10CA20CA30CCE0CCD0CCC0C0310CA0B7F
:100500005C2A0130A0070318A92AA11B8E2ACE0D50
:10051000A30DA20DA10DA0030319A92ACE1F9F2A86
:10052000A30A031D9F2AA20A031D9F2AA10A031DD5
:100530009F2AA10CA20CA30CA00A0319A92A430804
:10054000CB004708CB06CB1FA72AA117AD2AA113C2
:10055000AD2AA001A101A201A301080080308318E7
:10056000C706CC01CD014308CB004708CB064208A3
:1005700003199E2BCA00A00046080319A72BCA0224
:100580000319432B031C012B4708D000D017480840
:10059000CF004908CE00CD010310D00CCF0CCE0CFB
:1005A000CD0CCA0BCB2ACB1FD82A4C14BB2B4C101A
:1005B0004A104C16453084008313D02B4C12CB1BB1
:1005C000EB2A4A1CF62AD00CCF0CCE0CCD0CA00A7C
:1005D0000319B62BF62AD01BF92A0310CD0DCE0D28
:1005E000CF0DD00DA0030319B62BEB2A4C17632BAC
:1005F0004C134308CB00CB1FFF2AD017AF2BD013CF
:10060000AF2B4608CA00A0004208CA024308D00027
:10061000D0174408CF004508CE00CD010310D00C00
:10062000CF0CCE0CCD0CCA0B0D2BCB1F1A2BCC1420
:10063000BB2BCC104A10CC16493084008313D02B2E
:10064000CC12CB1B2D2B4A1C382BD00CCF0CCE0C34
:10065000CD0CA00A0319B62B382BD01B3B2B031053
:10066000CD0DCE0DCF0DD00DA0030319B62B2D2B24
:10067000CC17632BCC134708CB00CB1F412BD017D3
:10068000AF2BD013AF2B4708D000D0174808CF00AE
:100690004908CE00CB1F502BD0134C15BB2B4C114F
:1006A000CD014A10453084008313D02BCB1B792B0E
:1006B0004308CB004A1C632BD00CCF0CCE0CCD0CC6
:1006C000A00A0319B62BCD1F742BCE0A031D742B61
:1006D000CF0A031D742BD00A031D742BD00CCF0C32
:1006E000CE0CA00A0319B62B4C1BF82ACC1B3A2BB4
:1006F000982B8030D006D01F812BBB2B4708CB0016
:100700008E2B4308CB00D008031D8E2BCF08031D72
:100710008E2BCE08031D8E2BA001AF2BD01B982B48
:100720000310CD0DCE0DCF0DD00DA00B8E2BB62B03
:10073000CB1F9C2BD017AF2BD013AF2B4608A0009C
:100740004708D0004808CF004908CE00AF2B420828
:10075000A0004308D0004408CF004508CE00500850
:10076000A1004F08A2004E08A300EE2BA001A1019A
:10077000A201A301EE2BCD01CE09CF09D009CD09ED
:10078000CD0A031DC92BCE0A031DC92BCF0A03199D
:10079000D00A4C18D72ACC18192B4C194F2B7E2B6A
:1007A0000008CE07031CDA2BCF0A031DDA2BD00A70
:1007B00003194A1484030008CF07031CE22BD00A54
:1007C00003194A1484030008801F803AD0070318D5
:1007D0004A144C1ADE2ACC1A202B562B0800B301DF
:1007E000B501B401B901B801B701B601BA01BB0145
:1007F000BC01BD01BE01BF01C001C10131300C1EF1
:10080000FF2B9900B3013308073C031C402C3A30FE
:10081000330784008313C5010408C4004510831BFB
:1008200045140C30C7008030C6006730A000A00B14
:10083000172C1A2CC60B212CC70B212CA401A101AB
:100840002B2C8C1E152C1808A4001A08A100A41C1F
:100850002B2C18121816440884008313451883178C
:10086000210880003308063C031C3E2C3A30330735
:10087000840083130008B4070318B50AB30A032CD5
:10088000B50141083402031DFB2CB508031DFB2CE8
:100890000230B3003308063C031C572C3A303307B0
:1008A00084008313303000028000B30A4A2CC30155
:1008B0003C08C2001C222308C5002208C4002108ED
:1008C000C3002008C200C901C8014830C7008530F4
:1008D000C60039222308B9002208B8002108B70051
:1008E0002008B600C3013D08C2001C222308C50031
:1008F0002208C4002108C3002008C200C901C801A1
:100900002030C7008230C600392283103908C50064
:100910003808C4003708C3003608C2002308C900DD
:100920002208C8002108C7002008C600AE222308FC
:10093000B9002208B8002108B7002008B600C3019A
:100940003E08C2001C222308C5002208C40021085A
:10095000C3002008C200C901C801C7017F30C6001A
:10096000392283103908C5003808C4003708C3008D
:100970003608C2002308C9002208C8002108C700A1
:100980002008C600AE222308B9002208B8002108BA
:10099000B7002008B600C3014008C2001C2223088B
:1009A000C5002208C4002108C3002008C200CD30C1
:1009B000C900CC30C8004C30C7007B30C60039229B
:1009C00083103908C5003808C4003708C30036084A
:1009D000C2002308C9002208C8002108C700200857
:1009E000C600AE222308B9002208B8002108B700CB
:1009F0002008B600012DB901B8018030B7007F3062
:100A0000B6003608A0003708A1003808A20039084F
:100A1000A3008A11602F3408BB003808BB06BB1F37
:100A2000162D03110310B41B0314492D3408BB0009
:100A30003708BC003308BC020319242DBB1F492D05
:100A40000308013A8300492D3808BC003408BC0271
:100A50000319302DBB1F492D0308013A8300492D8E
:100A60003908BC003508BC0203193C2DBB1F492DB9
:100A70000308013A8300492D3A08BC003608BC023D
:100A80000319482DBB1F492D0308013A8300492D46
:100A900003108A11752F8318502D4830840083135A
:100AA000A001A101A201A301C801C901CA01CB0192
:100AB000470846044504440403198E2D2030CC0019
:100AC0000310C00DC10DC20DC30DC80DC90DCA0D57
:100AD000CB0D47084B02031D772D46084A02031D24
:100AE000772D45084902031D772D44084802031C51
:100AF000882D4408C8024508031C450FC902460852
:100B0000031C460FCA024708031C470FCB020314FD
:100B1000A00DA10DA20DA30DCC0B602D48088000E7
:100B2000840A49088000840A4A088000840A4B0825
:100B3000800008000408B8003708BA000319B92D6E
:100B40003608C5003508C4003408C3003308C200A5
:100B5000C901C8012030C7008230C60039222308ED
:100B6000B6002208B5002108B4002008B300BA0B73
:100B7000A02D7E30A000A101B41BA117A201A301EA
:100B800083103608C5003508C4003408C300330894
:100B9000C2002308C9002208C8002108C700200895
:100BA000C600AE222308B6002208B5002108B40012
:100BB0002008B3003608C3003508C2003408C1005D
:100BC0003308C0004008B63CC000A3014108C4007F
:100BD000C1170310C10CC20CC30CA30CA20CA10CB6
:100BE000A00CC00BE92DC41F002EA009A109A20969
:100BF000A309A00A0319A10A0319A20A0319A30A47
:100C00002308B6002208B5002108B4002008B3006C
:100C1000B61F172EB803B816B309B409B509B6093B
:100C2000B30A0319B40A0319B50A0319B60A3B300B
:100C3000BF009A30BE00CA30BD00BC010A30BA0005
:100C400037080319B80A8314333084008313360835
:100C5000C3003508C2003408C1003308C0003F0893
:100C6000C7003E08C6003D08C5003C08C4004B252F
:100C70002108A008031D4F2E370A3A0203194F2EF0
:100C800038080319512E0F393A020319492E031857
:100C9000812EB81B812E381B512E20307D2E203006
:100CA000B805B81E5F2EB8123708031DB803200818
:100CB000B8002D30C000A2213808A000B8013708C4
:100CC0003A02031D6D2E2008B8002E30C000A2216C
:100CD0003808A0002030B80500303030B81E7D2E16
:100CE000B8123708031DB8032008B8002D30C00023
:100CF000A2213808A000B8013030A0072008C000A9
:100D0000A22183103F08C3003E08C2003D08C10075
:100D10003C08C000C701C601C5010A30C4004B250C
:100D20002308BF002208BE002108BD002008BC0027
:100D3000BA0B232E8A11A92F03081F3983006130B3
:100D400083168F0090010F088312A40183169B1154
:100D500019309900A6309800903083129800A501B0
:100D6000A601A701A801A901AA01AB01AC01AE012E
:100D7000AD0103171F109F101F119F1103131F13A5
:100D8000003003179E0099019A0183169E01831279
:100D90009B0103138D128313B201B101B001AF01A6
:100DA0000B138B138B1BD12E8316171061308F0002
:100DB00090010F088312031799019A0183169E016F
:100DC00083129B0103138D121F1003171F109F1016
:100DD0001F119F1103131F13003003179E000313ED
:100DE000941283168713061606130130831294009B
:100DF000003083169400F0308312970583160108A3
:100E0000C0398100831290010030A1009200FF30B0
:100E100083169200831281018E018F018E01910150
:100E2000B3010330C90099200430C90099200F3064
:100E3000C100C420B3013308023C031C272F033038
:100E4000C8003F210530C100C420B30A1B2F023067
:100E5000C8003F21B3013308033C031C382F33087B
:100E60000420B400C5013408C6006C21B30A2B2F3E
:100E7000273003178D0000308F000313C621B30104
:100E8000C5014030C6006C21B3013308073C031C88
:100E9000542F33080C20B4000130C5003408C600BC
:100EA0006C210130B307452FC5018030C6006C218D
:100EB000183003178D0000308F000313C621EF2B6D
:100EC0002308B2002208B1002108B0002008AF00BA
:100ED0003208B6003108B5003008B4002F08B3005E
:100EE000BA01B901B801B7010B2D031C842F0230E0
:100EF000C1000130C2008F21193003178D0000306E
:100F00008F000313C621A92F0430C1000130C20095
:100F10008F21213003178D0000308F000313C6216D
:100F20000C30C1000130C2008F21C001A221073066
:100F3000C1000230C2008F21423084003208B60066
:100F40003108B5003008B4002F08B3000130B700F5
:100F50009A2D0430B300FA30C100C420B30BAB2F7C
:040F6000582F6300A3
:02400E00240B81
:00000001FF
;PIC16F690
;CRC=22CC  CREATED="17-Jul-15 19:46"
