:1000000000308A004B2800002A3084008313000847
:10001000031917280230A100A001A00B0D28A10B85
:100020000C289730A000A00B1328800B0A288A11F7
:10003000AE280408A100831686168312861A1E288D
:100040000830A000A901A0173528A01335280310F7
:10005000861A0314A90C201735282013A00B272873
:10006000210884002908A1004A28023084000030B9
:10007000A01B5530A100A10B3B28840B3728213051
:10008000A01B0930A100A10B4328A01B2528201B81
:100090002D2827280800840183131F308305713021
:1000A00083168F000F0805108312051403171F1005
:1000B0009F101F119F1103131F13003003179E0081
:1000C00099019A0183169E0183129B0103138D12DD
:1000D000A501A601A701A801713083168F000F08A2
:1000E00083120B138B138B1B7228031799019A0130
:1000F00083169E0183129B0103138D121F10031799
:100100001F109F101F119F1103131F13003003179F
:100110009E008316031387018312870194018316BF
:100120000108C0398100831290010030A1009200C3
:100130000130831692008716831297019C019D015E
:10014000831603179D008312031391018F018E0103
:1001500081010230A900FA30AA000428A90BAB28BB
:10016000861ABF2819202108A50019202108A600F9
:1001700019202108A70019202108A80029292508ED
:10018000533C031DDA282608533C031DDA282708B0
:10019000493C031DDA282808523C031DDA2883163F
:1001A0000710013083128706A8012808A700A600BF
:1001B000A50029292508493C031DF5282608523C9D
:1001C000031DF5282708533C031DF5282808533C38
:1001D000031DF52883168710023083128706A801B5
:1001E0002808A700A600A50029292508523C031DC0
:1001F00010292608493C031D10292708533C031DDC
:1002000010292808533C031D1029831607110430B8
:1002100083128706A8012808A700A600A50029299F
:100220002508543C031D29292608493C031D29297A
:100230002708533C031D29292808533C031D29295D
:100240008316870183128701A8012808A700A6004A
:06025000A500B0286300C8
:02400E00043874
:00000001FF
;PIC16F690
;CRC=98B1  CREATED="15-Nov-11 10:59"
