:1000000000308A0004280000FF238316900000308F
:100010008A0079280B138B138B1B0B2880308316D7
:100020008500073083129900831605088500023089
:100030008312A000A00B1A281D28000019088C119B
:100040001F101F1383161F109F101F119F11811760
:100050000108C03981008312900181018E018F0156
:100060008E0185018828A601A701A801851D6328A6
:10007000851D3828051685193B280108A700810130
:1000800005122708633C031838280830A800A80880
:1000900003196028851D4A28051685194D28010871
:1000A000A700810105122708633C031C602827086C
:1000B0003B3C03185C2826140310A60DA803472810
:1000C0000310260CA1008928263084008313000821
:1000D000031978280130A100A001A00B6D28A10B05
:1000E0006C284A30A000A00B73287628800B6A2861
:1000F000080003081F3983001F1383161F109F1069
:100100001F119F110730831299008313A5010A283C
:1001100033282108A5002508093C031D9428013037
:1001200085066430A60064202508773C031D9D28C1
:10013000023085066430A600642025087F3C031D3C
:10014000A628043085066430A60064208828630051
:02400E00043F6D
:00000001FF
;PIC12F675
;CRC=1C0D  CREATED="14-Sep-13 23:38"
