:100000000F308A000D2F00000A108A100A11820793
:1000100028340C34013406340A108A100A1182077D
:1000200000340E340A340E3400340034003400340A
:100030000A108A100A11820787343A34813448340E
:1000400087343834D134EC3487344934133433347E
:1000500087344A34B4347B3487344A3421344834C6
:10006000873443349134EC34873445347034A434C9
:10007000873440349034A434873441344F345C3472
:1000800087343A34B134EC348734393486346634C6
:100090000A108A100A1182077C342634E934793434
:1000A0007C342934FB34E7347C3437344B34C73464
:1000B0007C343B3464345A347C343F347C34EE3406
:1000C0007C344034833412347C3444349B34A6343E
:1000D0007C344534A134CB347C344A34C03483344A
:1000E0007C344B34C634A8347C344E34D934173481
:1000F0000C005224AF123A00D417A0213A003C3031
:10010000840083130008031993280330F800F701D3
:10011000F70B8828F80B87283C30F700F70B8E2860
:100120009128800B852808004318982808129928E0
:100130000816831608128312C318A0288812A12853
:1001400088168316881283124319A8280813A92831
:100150000817831608138312C319B0288813B1280F
:100160008817831688130000091183120915B8280F
:10017000B928000083160911831209110800C4016F
:1001800083160911831209150000831608168312BD
:100190004410081A4414831688168312C410881A4F
:1001A000C4148316081783124411081B44158316C0
:1001B00088178312C411881BC41583160911831272
:1001C00009114408F8000800831609108312091069
:1001D00083168910831289140000BF207808C30099
:1001E000BF207808C200430EF700F030F70577080B
:1001F0004204F8007808C200C21BE828C0080319AE
:10020000062983160910831209140A298316091076
:1002100083120910000083168910831289100000D0
:100220008316091183120911410EC2000F30C20555
:100230004208C300942041080F39C200C300942033
:1002400008003D0B242927294030BE002829BE0183
:1002500001303C02BE073E088038BF00C0013F08A5
:10026000C100E42008003B080C3A03193E29063A75
:1002700003194629023A03194C295129C0010130BA
:10028000C100E4200230BC007F2056290130BC00B0
:100290000230BD0021215629C0011030C100E420E8
:1002A00056290130C0003B08C100E42008000B08BB
:1002B000AE008B13831603178C170C14000000007C
:1002C00083120313AE1B8B1703170C087F39031916
:1002D000AB290313AE0003170D080313AF00031778
:1002E0000F080313B0002E08BB0033212F0803179B
:1002F0008D000313300803178F0003130B08B100A0
:100300008B13831603178C170C1400000000831244
:100310000313B11B8B1703170C0D0E0D7F39031937
:10032000AB290313AE0003170D080313AF00031727
:100330000F080313B0002E08BB0033212F0803174A
:100340008D000313300803178F008D0A03198F0ADD
:10035000031357290317031308000B138B138B1B6D
:10036000AE2983160108C039810083129001003044
:10037000F8009200FF3083169200831281018E01F3
:100380008F018E019101F03097059D0583160912AA
:1003900007309C00050885000830F700F70BCE29D0
:1003A0001C0883120D139401831681171F138312E7
:1003B0001F179F1783169F1783121F1483161F1072
:1003C0009F101F159F1109108312091083168910A1
:1003D0008312891083160911831209110F30BC0092
:1003E0007F20AE012E08023C031CFE290330C3000F
:1003F00094200530BC007F20AE0AF2290230C300F1
:100400009420AE012E08033C031C0F2A2E08042062
:10041000AF00C0012F08C100E420AE0A022AAE01DD
:10042000C0014030C100E420AE012E08073C031C8F
:10043000232A2E080C20AF000130C0002F08C10075
:10044000E420AE0A152AC0018030C100E4207830D3
:1004500003178D0000308F00031357210130BC00BB
:10046000BD002121793003178D0000308F00031368
:1004700057210130BC000230BD0021217C30031720
:100480008D0000308F00031357210330BC00023071
:10049000BD002121BB0133218A150A12292F1030FA
:1004A000B500B701B601340DF700F70DF70DF830C0
:1004B000F7051F08C73977049F000230BC007F2072
:1004C000B5080319722A1F151F19642A1F19662AF5
:1004D00083161E088312B6071E0803181E0FB707DF
:1004E000B503602AB70CB60CB70CB60CB70CB60C3B
:1004F000B70CB60C0F30B7053608F8003708F9000E
:1005000008008E30F7007008F8006F08F900FA0153
:10051000F808031D952A7908F800F9010830F70258
:10052000F808031D952AF7019D2A0310F81B9C2A41
:10053000F90DF80DF703952AF8130800640803195C
:10054000632BF00068080319632BF002031CAD2A2B
:100550007F30F0070318632BB32A8130F002031CAD
:10056000632B0319632B7008F700F801F901FA01F6
:10057000EF016508EE00EE176608ED006708EC0075
:100580001930F0006B08EC020318D62A0130ED0296
:100590000318D62AEE020318D62AEF020318D62A29
:1005A000EF0AEE0AED0A6B08EC07082B6A08ED0269
:1005B0000318F12A0130EE020318F12AEF020318A2
:1005C000F12AEF0AEE0A6A08ED076B08EC07031C34
:1005D000082BED0A031D082BEE0A031D082BEF0A5A
:1005E000082B69088038EE020318072B0130EF0250
:1005F0000318072BEF0A69088038EE076A08ED0731
:10060000031CE52AEE0A031DE52AEF0AE52A7A14FF
:10061000F00B0B2B162B0310EC0DED0DEE0DEF0D6B
:100620000310FA0DF90DF80DF10DC22A711C1E2BE5
:100630000310F80CF90CFA0CF10C212BF703031939
:10064000632BF11B4A2B0310EC0DED0DEE0DEF0D9E
:100650006B08EC020318362B0130ED020318362B21
:10066000EE020318362BEF02031C592B6A08ED0229
:100670000318412B0130EE020318412BEF02031C3B
:10068000592B69088038EE0203184A2B0130EF021B
:10069000031C592BFA0A031D592BF90A031D592B68
:1006A000F80A031D592BF70A0319632BF80CF90CF0
:1006B000FA0C6508F0006908F006F01F612BF817C6
:1006C000672BF813672BF701F801F901FA0108000D
:1006D00080308318F4068316A201A3017008A100DC
:1006E0007408A10683126F0803195E2C8316A000FC
:1006F000F70073080319682CA0020319022C031CCD
:10070000BE2B7408A600A6177508A5007608A400DD
:10071000A3010310A60CA50CA40CA30CA00B882B02
:10072000A11F952B22147E2C22102010221672302D
:1007300084008313932C2212A11BA82B201CB32B03
:10074000A60CA50CA40CA30CF70A0319792CB32B47
:10075000A61BB62B0310A30DA40DA50DA60DF70324
:100760000319792CA82B2217222C22137008A10020
:10077000A11FBC2BA617722CA613722C7308A00005
:10078000F70083126F088316A0027008A600A61750
:100790007108A5007208A400A3010310A60CA50C03
:1007A000A40CA30CA00BCC2BA11FD92BA2147E2C24
:1007B000A2102010A216763084008313932CA2126C
:1007C000A11BEC2B201CF72BA60CA50CA40CA30C36
:1007D000F70A0319792CF72BA61BFA2B0310A30D8C
:1007E000A40DA50DA60DF7030319792CEC2BA21768
:1007F000222CA2137408A100A11F002CA617722C92
:10080000A613722C7408A600A6177508A500760812
:10081000A400A11F0F2CA61322157E2C2211A301C8
:100820002010723084008313932CA11B382C700885
:10083000A100201C222CA60CA50CA40CA30CF70ACA
:100840000319792CA31F332CA40A031D332CA50AEA
:10085000031D332CA60A031D332CA60CA50CA40CD7
:10086000F70A0319792C221BB52BA21BF92B572C45
:100870008030A606A61F402C7E2C7408A1004D2CAB
:100880007008A100A608031D4D2CA508031D4D2CC2
:10089000A408031D4D2CF701722CA61B572C031026
:1008A000A30DA40DA50DA60DF70B4D2C792CA11FA2
:1008B0005B2CA617722CA613722C83127308F700F8
:1008C00074088316A6007508A5007608A400722C8B
:1008D00083126F08F70070088316A6007108A50040
:1008E0007208A4002608F8002508F9002408FA0078
:1008F000B12CF701F801F901FA01B12CA301A40907
:10090000A509A609A309A30A031D8C2CA40A031D8B
:100910008C2CA50A0319A60A2218942BA218D82BEE
:1009200022190E2C3D2C0008A407031C9D2CA50A9F
:10093000031D9D2CA60A0319201484030008A50793
:10094000031CA52CA60A0319201484030008801F89
:10095000803AA60703182014221A9B2BA21ADF2B19
:10096000152C83120800AF01AE01B301B201B10131
:10097000B001B4014F227908AF007808AE002F080B
:10098000F0002E08EF008122E701C030E6007F3042
:10099000E5008830E4007A08EB007908EA0078087E
:1009A000E9007708E8009E227A08B7007908B600C7
:1009B0007808B5007708B40083147A08F200790843
:1009C000F1007808F0007708EF00F601F501F40176
:1009D0007F30F30068237A08B3007908B200780802
:1009E000B1007708B000E7014030E6001C30E500B8
:1009F0008C30E4003308EB003208EA003108E900EB
:100A00003008E8009E227A08B3007908B20078081E
:100A1000B1007708B0003008F7003108F80032085C
:100A2000F9003308FA008A150A122C2F6B080319F3
:100A3000A22D8316A00083126F080319A22D83161E
:100A4000A00703182E2D7F30A0020318292D831232
:100A5000A22D031D2D2D8312A22D342D8130A00730
:100A6000031C342D8312A22D2008F700F801F90190
:100A7000FA0183126C088316A400A41783126D0870
:100A80008316A30083126E088316A2001830A000FC
:100A9000A101221C682D7208FA07031C552DF90AC2
:100AA000031D552DF80A0319A1177108F907031C36
:100AB0005C2DF80A0319A11770088312ED00ED17D9
:100AC0006D08F807031C672D8316A1178312831680
:100AD000A10DF80CF90CFA0CA40CA30CA20C031039
:100AE000A00B482D0130F707031C782D8312A22D8F
:100AF000F81B822DA40DFA0DF90DF80DF70B822DC0
:100B00008312A22DA41F952DFA0A031D952DF90A13
:100B1000031D952DF80A031D952DF80CF90CFA0C00
:100B2000F70A031D952D8312A22D83126C088316DC
:100B3000A1007008A106A11F9F2DF817A72DF8137B
:100B4000A72D8312F701F801F901FA018316831228
:100B50000800B101B001AF01AE010130B4004F2275
:100B60007908F0007808EF0081227A08B10079084E
:100B7000B0007808AF007708AE003108EE0030080A
:100B8000ED002F08EC002E08EB00C030F2003E30E4
:100B9000F1007A30F0007D30EF0016257A08B100C0
:100BA0007908B0007808AF007708AE002E08F7008B
:100BB0002F08F8003008F9003108FA008A150A12E7
:100BC000372F8E30F7006B08F7026C08F9006D08BC
:100BD000F800F917F7080319F82D0310F908031D99
:100BE000F42DF8080319F82DF90CF80CF70BED2D7E
:100BF000EC1FFF2DF809F909F80A0319F90A080092
:100C00006C08F3007008F306F31F0B2E031103109A
:100C1000EC1B03143E2E6C08F3006F08F4006B0805
:100C2000F4020319192EF31F3E2E0308013A830024
:100C30003E2E7008F4006C08F4020319252EF31FF1
:100C40003E2E0308013A83003E2E7108F4006D0821
:100C5000F4020319312EF31F3E2E0308013A8300DC
:100C60003E2E7208F4006E08F40203193D2EF31FA5
:100C70003E2E0308013A83003E2E031008006A103E
:100C80005E08E3005D08E2005C08E1005B08E0004C
:100C90005E08EE005D08ED005C08EC005B08EB0010
:100CA000F201F101F001EF010026031C5B2E6A1432
:100CB0006108803AE1006308EE006208ED00610817
:100CC000EC006008EB00F201F101F0018E30EF0062
:100CD000002603186D2E031D842E6308EE006208A3
:100CE000ED006108EC006008EB00E1257908F000F8
:100CF0007808EF0081227A08E7007908E600780892
:100D0000E5007708E400412F6308EE006208ED007B
:100D10006108EC006008EB008030F2009630F100D2
:100D20001830F0009630EF000026031C392F6308BE
:100D3000EE006208ED006108EC006008EB00F201D3
:100D4000F101F0017030EF0016257A08EE00790805
:100D5000ED007808EC007708EB00E1257908E90060
:100D60007808E8006308EE006208ED006108EC0016
:100D70006008EB00F201F101F0017030EF00162580
:100D80007A08EE007908ED007808EC007708EB00AF
:100D90006908F0006808EF00812283146E08F200F1
:100DA0006D08F1006C08F0006B08EF007A08F6009F
:100DB0007908F5007808F4007708F3006823EE015D
:100DC000ED01EC018E30EB007A08F2007908F100B9
:100DD0007808F0007708EF0016257A08E300790814
:100DE000E2007808E1007708E0006908F000680890
:100DF000EF008122EE01ED01EC018E30EB007A086C
:100E0000F2007908F1007808F0007708EF00162565
:100E10007A08E7007908E6007808E5007708E4003A
:100E20006308EE006208ED006108EC006008EB006A
:100E3000E1257908F0007808EF0081228310670827
:100E4000F2006608F1006508F0006408EF007A0817
:100E5000F6007908F5007808F4007708F3006823B5
:100E60007A08E7007908E6007808E5007708E400EA
:100E7000412F6308E7006208E6006108E5006008AA
:100E8000E4006308EE006208ED006108EC00600811
:100E9000EB00E1257908F0007808EF008122831447
:100EA0006308F2006208F1006108F0006008EF00DA
:100EB0007A08F6007908F5007808F4007708F3005E
:100EC00068237A08E3007908E2007808E1007708EF
:100ED000E0006A1C6E2F6508803AE5006308EE00AA
:100EE0006208ED006108EC006008EB00F201F1011E
:100EF000F001EF0100260319B42F6A1C992FDF08B7
:100F0000031D992F83146708F2006608F100650835
:100F1000F0006408EF00F601F501F4017F30F30002
:100F200068237A08E7007908E6007808E500770882
:100F3000E4006A18B42F5F0BB42F83106708F20027
:100F40006608F1006508F0006408EF00F601F5019D
:100F5000F4017F30F30068237A08E7007908E6009F
:100F60007808E5007708E4005E08EE005D08ED0013
:100F70005C08EC005B08EB00F201F101F001EF010D
:100F80000026031DC72FE701E601E501E40164081F
:100F9000F7006508F8006608F9006708FA0008001D
:100FA0008E30F7006208F8006108F900FA01E21FCC
:100FB000DE2FF809F909F90A0319F80AF808031DE0
:100FC000EB2F7908F800F9010830F702F808031D43
:100FD000EB2FF701F42F0310F81BF22FF90DF80D8A
:0A0FE000F703EB2FE21FF8130800DF
:101000004E08EE004D08ED004C08EC004B08EB00DC
:10101000F201F101F001EF018A1100268A1503198E
:10102000CE284A08E7004908E6004808E5004708D6
:10103000E4004E08EB004D08EA004C08E9004B08BC
:10104000E8008A119E228A157A08D6007908D50010
:101050007808D4007708D3005608EE005508ED0054
:101060005408EC005308EB00F201F101F001EF012C
:101070008A1100268A15031C6E284A08E7004908D1
:10108000E6004808E5004708E4004E08EB004D087C
:10109000EA004C08E9004B08E8008A119E228A15F4
:1010A0007A08D6007908D5007808D4007708D300EC
:1010B0005608DA005508D9005408D8005308D7005C
:1010C0005A08DE005908DD005808DC005708DB002C
:1010D0000130DF008A113F268A159D284A08E70063
:1010E0004908E6004808E5004708E4004E08EB0020
:1010F0004D08EA004C08E9004B08E8008A119E22DE
:101100008A157A08D6007908D5007808D4007708BF
:10111000D3005608DA005508D9005408D8005308FF
:10112000D7005A08DE005908DD005808DC005708CF
:10113000DB00DF018A113F268A157A08D200790880
:10114000D1007808D0007708CF005208EE0051088F
:10115000ED005008EC004F08EB004E08F2004D087F
:10116000F1004C08F0004B08EF008A1116258A1593
:1011700083144A08F2004908F1004808F0004708C3
:10118000EF007A08F6007908F5007808F40077088F
:10119000F3008A1168238A15CE28CE2808004E084D
:1011A000D2004D08D1004C08D0004B08CF005208A7
:1011B000EE005108ED005008EC004F08EB00F20182
:1011C000F101F0017F30EF008A1100268A15031922
:1011D000882AE1014F30E000600884008313611821
:1011E00083177E30800083145208F2005108F1000A
:1011F0005008F0004F08EF00F601F501F4017F30D0
:10120000F3008A1168238A157A08E3007908E2005E
:101210007808E1007708E00083105208F2005108D6
:10122000F1005008F0004F08EF00F601F501F4015D
:101230007F30F3008A1168238A156308E70062088B
:10124000E6006108E5006008E4007A08EB00790830
:10125000EA007808E9007708E8008A119E228A15DA
:101260007A08D2007908D1007808D0007708CF003A
:101270005208EE005108ED005008EC004F08EB005A
:101280005208F2005108F1005008F0004F08EF003A
:101290008A1116258A157A08DE007908DD0078089B
:1012A000DC007708DB009930EE004730ED008A3033
:1012B000EC007F30EB005E08F2005D08F1005C0896
:1012C000F0005B08EF008A1116258A157A08E30002
:1012D0007908E2007808E1007708E00083106308ED
:1012E000F2006208F1006108F0006008EF00F6010A
:1012F000F501F4018030F3008A1168238A157A0819
:10130000D6007908D5007808D4007708D3004C308F
:10131000EE00F330ED003A30EC007B30EB005E087D
:10132000F2005D08F1005C08F0005B08EF008A1134
:1013300016258A157A08E3007908E2007808E100AA
:101340007708E00083106308F2006208F10061088A
:10135000F0006008EF002B30F6009D30F500DF3024
:10136000F4007E30F3008A1168238A157A08DA00C7
:101370007908D9007808D8007708D7005A08EE0015
:101380005908ED005808EC005708EB005E08F20021
:101390005D08F1005C08F0005B08EF008A1116257B
:1013A0008A157A08E3007908E2007808E1007708F6
:1013B000E00083106308F2006208F1006108F000A9
:1013C0006008EF00F601F501F4017F30F3008A11A7
:1013D00068238A157A08DA007908D9007808D800D5
:1013E0007708D7005208EE005108ED005008EC00D5
:1013F0004F08EB005608F2005508F1005408F000C1
:101400005308EF008A1116258A157A08E300790837
:10141000E2007808E1007708E0006308E70062086E
:10142000E6006108E5006008E4005A08EB0059088E
:10143000EA005808E9005708E8008A119E228A1538
:101440007A08D6007908D5007808D4007708D30048
:10145000E1014B30E00060088400831361188317BA
:101460007E300002DF00DF1F482A5F08003CE201F7
:10147000E100E11BE2038A11D0278A157708D70023
:101480007808803AD8007908D9007A08DA00582A12
:10149000E2015F08E100E11BE2038A11D0278A150F
:1014A0007A08DA007908D9007808D8007708D700D8
:1014B0005A08EE005908ED005808EC005708EB00F8
:1014C0001830F2007230F1003130F0007E30EF0061
:1014D0008A1116258A1583105608F2005508F10066
:1014E0005408F0005308EF007A08F6007908F50078
:1014F0007808F4007708F3008A1168238A157A08BF
:10150000D6007908D5007808D4007708D3008C2A53
:10151000D601D501D401D3015308F7005408F800CF
:101520005508F9005608FA0008004E08EE004D086C
:10153000ED004C08EC004B08EB003B30F200AA3009
:10154000F1003830F0007F30EF008A1116258A153F
:101550007A08EE007908ED007808EC007708EB00D7
:101560008A11E1258A157808DB005C104E08D2004C
:101570004D08D1004C08D0004B08CF004E08EE00BB
:101580004D08ED004C08EC004B08EB00F201F101B6
:10159000F001EF018A1100268A15031CD52A5C147C
:1015A000DB09DB0A5008803AD000D601D501D4010E
:1015B000D301DE015330DD005D08840083135E1823
:1015C00083177F305B0780005208EE005108ED0062
:1015D0005008EC004F08EB003B30F200AA30F1005D
:1015E0003830F0007F30EF008A1116258A157A080E
:1015F000E0007908DF007808DE007708DD00E2010E
:101600005B08E100E11BE2038A11D0278A158314ED
:101610006008F2005F08F1005E08F0005D08EF006E
:101620007A08F6007908F5007808F4007708F300E6
:101630008A1168238A157A08D2007908D1007808BF
:10164000D0007708CF007C30EE008830ED005930B4
:10165000EC007230EB005208F2005108F100500823
:10166000F0004F08EF008A1116258A157A08E0006D
:101670007908DF007808DE007708DD0083107A083B
:10168000F2007908F1007808F0007708EF00E03008
:10169000F6009730F5002630F4007530F3008A111B
:1016A00068238A157A08DA007908D9007808D80002
:1016B0007708D7005A08EE005908ED005808EC00EA
:1016C0005708EB005208F2005108F1005008F000F2
:1016D0004F08EF008A1116258A157A08E00079086C
:1016E000DF007808DE007708DD0083107A08F2005A
:1016F0007908F1007808F0007708EF00C430F600B0
:101700001D30F5001E30F4007830F3008A11682394
:101710008A157A08DA007908D9007808D80077089D
:10172000D7005A08EE005908ED005808EC00570899
:10173000EB005208F2005108F1005008F0004F0889
:10174000EF008A1116258A157A08E0007908DF0073
:101750007808DE007708DD0083107A08F200790847
:10176000F1007808F0007708EF005E30F6005030A6
:10177000F5006330F4007A30F3008A1168238A158B
:101780007A08DA007908D9007808D8007708D700F5
:101790005A08EE005908ED005808EC005708EB0015
:1017A0005208F2005108F1005008F0004F08EF0015
:1017B0008A1116258A157A08E0007908DF00780872
:1017C000DE007708DD0083107A08F2007908F10066
:1017D0007808F0007708EF001A30F600FE30F500C8
:1017E0007530F4007C30F3008A1168238A157A087A
:1017F000DA007908D9007808D8007708D7005A08A5
:10180000EE005908ED005808EC005708EB005208AC
:10181000F2005108F1005008F0004F08EF008A1163
:1018200016258A157A08E0007908DF007808DE00BE
:101830007708DD0083107A08F2007908F100780853
:10184000F0007708EF001830F6007230F500313004
:10185000F4007E30F3008A1168238A157A08DA00D2
:101860007908D9007808D8007708D7005208EE0028
:101870005108ED005008EC004F08EB005A08F20048
:101880005908F1005808F0005708EF008A11162592
:101890008A158310F201F101F0017F30EF007A0820
:1018A000F6007908F5007808F4007708F3008A114B
:1018B00068238A155608EE005508ED005408EC0020
:1018C0005308EB007A08F2007908F1007808F0007C
:1018D0007708EF008A1116258A157A08D60079084C
:1018E000D5007808D4007708D3005C1C8F2CE70162
:1018F000E601E5017F30E4005608EB005508EA00F8
:101900005408E9005308E8008A119E228A157A08D3
:10191000D6007908D5007808D4007708D30053089A
:10192000F7005408F8005508F9005608FA000800B6
:10193000B601BA01B901B801B7013508E7003408AA
:10194000E6003308E5003208E400EB01EA0120304C
:10195000E9008130E8008A119E228A157A08EE009B
:101960007908ED007808EC007708EB008A11E12592
:101970008A157808B600360DF700F70DFC30F7052C
:101980007708BB000330BB073B088A1148208A1543
:10199000FA00BB033B088A1148208A15F900BB03F3
:1019A0003B088A1148208A15F8003B038A11482019
:1019B0008A15F7007808803AF8007A08BE0079089E
:1019C000BD007808BC007708BB003108C2003008B1
:1019D000C1002F08C0002E08BF003E08C6003D0809
:1019E000C5003C08C4003B08C3004208EE004108A3
:1019F000ED004008EC003F08EB00F201F101F001BE
:101A0000EF018A1100268A15031CD42D4608CA004E
:101A10004508C9004408C8004308C700CE01CD01ED
:101A2000CC017F30CB0000207A08CA007908C900B9
:101A30007808C8007708C7004A08EE004908ED009A
:101A40004808EC004708EB00F201F101F001EF015A
:101A50008A1100268A15031DD42D4608CA004508A0
:101A6000C9004408C8004308C700CE01CD01CC011D
:101A70008030CB0000207A08CA007908C9007808B5
:101A8000C8007708C7004A08EE004908ED0048087A
:101A9000EC004708EB00F201F101F001EF018A11BF
:101AA00000268A15031D932D3F08C7004008803A81
:101AB000C8004108C9004208CA00CE004908CD004C
:101AC0004808CC004708CB00CF207A08CA00790824
:101AD000C9007808C8007708C7004A08EE0049081E
:101AE000ED004808EC004708EB004608F200450806
:101AF000F1004408F0004308EF008A1116258A150A
:101B00007A08CA007908C9007808C8007708C700B1
:101B10004A08CE004908CD004808CC004708CB0051
:101B20009522712ED32D3F08C7004008803AC80087
:101B30004108C9004208CA00CE004908CD00480843
:101B4000CC004708CB00CF207A08CA007908C9002A
:101B50007808C8007708C7004A08EE004908ED0079
:101B60004808EC004708EB004608F2004508F10081
:101B70004408F0004308EF008A1116258A157A08F8
:101B8000CA007908C9007808C8007708C7004A0861
:101B9000CE004908CD004808CC004708CB0095226C
:101BA0008030F806712E712E4208EE004108ED00DB
:101BB0004008EC003F08EB00F201F101F001EF01F9
:101BC0008A1100268A15031C122E4608CA004508F1
:101BD000C9004408C8004308C700CE01CD01CC01AC
:101BE0007F30CB0000207A08CA007908C900780845
:101BF000C8007708C7004A08EE004908ED00480809
:101C0000EC004708EB00F201F101F001EF018A114D
:101C100000268A150319122EF701F801F901FA01BD
:101C2000712E712E4208EE004108ED004008EC00D4
:101C30003F08EB00F201F101F001EF018A110026EB
:101C40008A15031D362E4608EE004508ED004408AF
:101C5000EC004308EB00F201F101F001EF018A1101
:101C600000268A150318362E031D6D2E4208CE005D
:101C70004108CD004008CC003F08CB00CF207A08B7
:101C8000CA007908C9007808C8007708C7004A0860
:101C9000EE004908ED004808EC004708EB00460854
:101CA000F2004508F1004408F0004308EF008A11F3
:101CB00016258A157A08CA007908C9007808C8006C
:101CC0007708C7004A08CE004908CD004808CC0074
:101CD0004708CB009522712E712EF701F801F9010A
:101CE000FA017A08BA007908B9007808B8007708CC
:101CF000B700360DF700F70DFC30F7057708BB008D
:101D00000330BB073B088A1118208A15FA00BB0371
:101D10003B088A1118208A15F900BB033B088A1179
:101D200018208A15F8003B038A1118208A15F7003D
:101D30003A08EE003908ED003808EC003708EB00EF
:101D40007A08F2007908F1007808F0007708EF00CF
:101D50008A1116258A157A08BA007908B900780818
:101D6000B8007708B7003708F7003808F8003908D6
:101D7000F9003A08FA008A150A12512F8318C32E67
:101D8000433084008313F701F801F901FA01C3011C
:101D9000C401C501C6014208410440043F040319BF
:101DA000012F2030C7000310BB0DBC0DBD0DBE0DB3
:101DB000C30DC40DC50DC60D42084602031DEA2E13
:101DC00041084502031DEA2E40084402031DEA2E85
:101DD0003F084302031CFB2E3F08C3024008031CBC
:101DE000400FC4024108031C410FC5024208031CF6
:101DF000420FC6020314F70DF80DF90DFA0DC70BCB
:101E0000D32E43088000840A44088000840A4508D1
:101E10008000840A46088000080003081F398300F8
:101E2000A101A00183161F149F141F159F110730D5
:101E30009C0083138312A501A401A301A201A9019F
:101E4000A801A701A601AD01AC01AB01AA018A114D
:101E5000AD298A158A11B32C8A157A08A900790848
:101E6000A8007808A7007708A6008A11A92D8A156E
:101E70007A08A5007908A4007808A3007708A200D2
:101E80002908B1002808B0002708AF002608AE00D6
:101E90002508B5002408B4002308B3002208B200C6
:101EA000982C7A08AD007908AC007808AB00770868
:101EB000AA000D30BC000130BD008A1121218A1515
:101EC000023084002D08B1002C08B0002B08AF00B0
:101ED0002A08AE000130B2000A168A1100200A1248
:101EE0008A152030BB008A1133218A152030BB00AF
:101EF0008A1133218A150D30BC000230BD008A11D1
:101F000021218A15023084002508B1002408B00080
:101F10002308AF002208AE000130B2000A168A1171
:101F200000200A128A152030BB008A1133218A153D
:101F30002030BB008A1133218A156430BC008A111D
:081F40007F208A152A2F63009F
:102000000408B3003208B500031921283108EE0096
:102010003008ED002F08EC002E08EB00F201F10172
:102020002030F0008230EF000A1216250A167A08D6
:10203000B1007908B0007808AF007708AE00B50BA2
:1020400006287E30F700F801AF1BF817F901FA01F6
:1020500083103108F2003008F1002F08F0002E083C
:10206000EF007A08F6007908F5007808F4007708A0
:10207000F3000A1268230A167A08B1007908B00042
:102080007808AF007708AE003108BE003008BD0008
:102090002F08BC002E08BB003B08B63CBB00FA0171
:1020A0003C08BF00BC170310BC0CBD0CBE0CFA0CE6
:1020B000F90CF80CF70CBB0B5328BF1F6A28F70963
:1020C000F809F909FA09F70A0319F80A0319F90ACC
:1020D0000319FA0A7A08B1007908B0007808AF004D
:1020E0007708AE00B11F8128B303B316AE09AF095C
:1020F000B009B109AE0A0319AF0A0319B00A0319EE
:10210000B10A3B30BA009A30B900CA30B800B70102
:102110000A30B50032080319B30A83142E30840044
:1021200083133108BE003008BD002F08BC002E0804
:10213000BB003A08C2003908C1003808C00037089F
:10214000BF000A128A15BE260A168A117808F708F7
:10215000031DBD28320A35020319BD2833080319AF
:10216000BF280F3935020319B7280318F728B31B06
:10217000F728331BBF282030F1282030B305B31EC9
:10218000CF28B3123208031DB3037708B3002D30F4
:10219000BB000A1233210A163308F700B3013208D4
:1021A0003502031DDF287708B3002E30BB000A126A
:1021B00033210A163308F7002030B30500303030E1
:1021C000B31EF128B3123208031DB3037708B3001E
:1021D0002D30BB000A1233210A163308F700B30171
:1021E0003030F7077708BB000A1233210A16831034
:1021F0003A08BE003908BD003808BC003708BB00EB
:10220000C201C101C0010A30BF000A128A15BE26F0
:102210000A168A117A08BA007908B9007808B80055
:0A2220007708B700B50B8D28080001
:02400E00321E60
:00000001FF
;PIC16F877A
;CRC=3BC6  CREATED="29-Apr-18 13:14"
