:0400000041EF05F0D7
:08000800046ED8CF05F0E0CF33
:1000100006F00001E9CF0CF0EACF07F0E1CF08F0DD
:10002000E2CF09F0D9CF0AF0DACF0BF0F3CF12F01C
:10003000F4CF13F0FACF14F0F5CF15F0F6CF16F099
:10004000F7CF17F000C00EF001C00FF002C010F0A3
:1000500003C011F09DA030EF00F09EB067EF00F0FC
:100060009DA436EF00F09EB472EF00F00EC000F0D9
:100070000FC001F010C002F011C003F00CC0E9FF86
:1000800007C0EAFF078E08C0E1FF09C0E2FF0AC00F
:10009000D9FF0BC0DAFF12C0F3FF13C0F4FF14C086
:1000A000FAFF15C0F5FF16C0F6FF17C0F7FF0450A2
:1000B00006C0E0FF05C0D8FF1000F76ACA0FF66E51
:1000C000000EF7220900F5501200280C0106010E5F
:1000D0001926D8B01A2AD8B41B2AD8B41C2A9E9044
:1000E00036EF00F0BFCF24F0BECF23F01AC053F09C
:1000F00019C052F0506A516A2350502624505122A0
:10010000000E522253222150505C1D6E2250515835
:100110001E6E000E52581F6E000E5358206E24C0E3
:1001200022F023C021F01C6A1B6A1A6A196A9E9485
:1001300036EF00F00C0043616C6962726174696EA5
:10014000672E2E2E2E00506C616365206E6F20701E
:100150006172742E00000C00432E7265662F6E468D
:100160003A0025332E316720202000004C2E726586
:10017000662F75483A0025332E3167202020000075
:100180000C00496E642E2F75483A00004361702EB2
:100190002F6E463A000025332E3167202020202084
:1001A0002020202000000C00EA6A410EE96EEF508A
:1001B0000EE00C0E016E006A002EFED7012EFBD75A
:1001C000F70E006E002EFED700D0EF2EF2D71200F1
:1001D00048B002D08C9801D08C88959848B202D053
:1001E0008C9A01D08C8A959A48B402D08C9C01D00C
:1001F0008C8C959C48B602D08C9E01D08C8E959E9E
:10020000000093968A86060E006E002EFED7000030
:1002100093968A961200496A93968A86000095887A
:10022000499083B84980958A499283BA4982958CCE
:10023000499483BC4984958E499683BE498693969A
:100240008A9649C001F0120093988A880000E3DF83
:1002500001C048F0E0DF01C047F04838006EF00E02
:10026000001600504710016E39EF01F0939A8A9AF8
:10027000EBD701C047F001BEFBD7455203E0939A8C
:100280008A8A02D0939A8A9A000093988A980000EA
:1002900093968A964638476E0F0E471647C048F029
:1002A00097DF46500F0B476E486E92DF1200939A0D
:1002B0008A9A93988A9893968A960F0E416E74DF65
:1002C000336A3350020808E3030E486E81DF050EDF
:1002D000416E6ADF332AF5D7020E486E79DF336A42
:1002E0003350030809E3036A3350E7DE346E456A8E
:1002F000466EBCDF332AF4D7E8EF01F0422C01D080
:1003000003D0400E436E01D0436A010E415C432688
:1003100043508009446E456A466EA8DF1200405083
:100320000C0A05E0060A0BE0020A0FE013D0456A4A
:10033000010E466E9BDF020E416E36DF10D0010EBD
:10034000416E020E426EDADF0AD0456A100E466E2A
:100350008DDF05D0010E456E40C046F087DF1200EC
:100360000900F5520CE0F6CF33F0F7CF34F0F5CFBB
:1003700040F0D5DF33C0F6FF34C0F7FFF1D71200ED
:10038000D190C290C180C182C184C196C66A96983C
:100390009484BD6A050EBD6EF00EBA161D0ED26EA7
:1003A000400ED56E850ECD6E780ECA6E040ECB6EE5
:1003B000B16AD76AD66A0000CF6ACE6A0000CC6AFA
:1003C000B36AB26A00009D849D80C00EF2126FD79E
:1003D000A60EF66E010EF76EC3DF63EF05F08E0E0C
:1003E000006E38C001F037C002F0036A015209E123
:1003F00002C001F0026A080E005E015202E1006ACA
:1004000008D0D89001BE04D0023601360006F9D7D4
:10041000019E12004050D8B471D0006E4450D8B440
:100420006DD0002604E3810E002668E204D07F0E22
:10043000005E64E363E041C048F04550481A418ED5
:10044000458E43504702F4CF4AF042504602F4CF63
:1004500003F0F3CF49F04702F3504A26F450492203
:10046000000E032243504602F3504A26F45049221C
:10047000000E026A0322022241504702F35049262D
:10048000F4500322000E022241504602F35003268C
:10049000F4500222000E016A012243504502F3503B
:1004A0004926F4500322000E022201224250450246
:1004B000F3500326F4500222000E0122415045025F
:1004C000F3500226F4500122002A01BE05D049361D
:1004D0000336023601360006000E49AE0AD0032A62
:1004E00002220122015005E1025003E1035001E123
:1004F000002A48BE018E48AE019E04D0006A016AFF
:10050000026A036A1200800ED8B2451A4A6A4B6A20
:1005100041C049F04550491A4050D8B4DCD0486E2B
:10052000006E4450D8B4E0D0485ED8B481D03DE3EA
:1005300045C04EF04E8E46C04DF047C04CF04B6A61
:10054000D8904E324D324C324B32482EF8D749AE0D
:1005500003D04A80DDD04A9048904A88EA6A430E28
:10056000E96EE9D04A9849BE0AD048A013D04E326D
:100570004D324C324B32002AD8B4C5D00BD04EBECF
:100580000CD0D8904B364C364D364E360006D8B48B
:10059000BAD0F5D74A8C6BD04A9C41C049F041AEE5
:1005A00002D04E8EA9D04E9EA7D044C048F044C081
:1005B00000F04050485E41C04EF04E8E42C04DF0BB
:1005C00043C04CF04B6AD8904E324D324C324B32D5
:1005D000482EF8D749AE03D04A829AD04A92489022
:1005E0004A8AEA6A470EE96EA6D04A9A49BE0AD0FC
:1005F00048A013D04E324D324C324B32002AD8B480
:1006000082D00BD04EBE0CD0D8904B364C364D36E7
:100610004E360006D8B477D0F5D74A8E28D04A9EF9
:1006200045C049F045AE02D04E8E66D04E9E64D095
:1006300045C04EF04E8E46C04DF047C04CF049AE1E
:1006400004D04E9E4A8464D04A944B6A4890EA6A29
:10065000430EE96E70D049BE1CD041C049F048A09D
:1006600006D04E324D324C324B32002A4CE04BAE6B
:100670000BD04C2A09E14D2A07E14E2A05E14E3202
:100680004D324C32002A3FE04ABC86D74ABEC7D71B
:100690001CD0800E4E1A4EAE04D03AD045C049F060
:1006A0000AD041C049F04E5206E14D5204E14C528D
:1006B00002E1006A21D04EBE08D0D8904B364C36AD
:1006C0004D364E36002EF7D71ED049AE02D04E8E94
:1006D00013D04E9E11D044C000F045C04EF046C02D
:1006E0004DF047C04CF008D040C000F041C04EF083
:1006F00042C04DF043C04CF04EC001F04DC002F07E
:100700004CC003F034D0006A016A026A036A2FD039
:100710004B6A4C1E4D1E4E1E4B1E4B2A05E14C2AA9
:1007200003E14D2A01E14E2A4AB015D74AB256D705
:100730004AB48AD7B3D7EF504C2605E34D2A03E1DC
:100740004E2AD8B44880ED52EF504D2603E34E2A8E
:10075000D8B44880ED52EF50EFBE01D0800A4E264B
:10076000D8B048804AB8FED64ABA3FD774D71200EC
:100770004050B608406E036A41C044F0418ED890A4
:100780004132423243320332023201320032402ED1
:10079000F6D744AE0BD0001E011E021E031E002A17
:1007A000D8B4012AD8B4022AD8B4032A62EF04F0DC
:1007B000D8B203D0EA6A480EE96E006A016A026A9A
:1007C000036A486A496A4A6A4B6A475046104510AC
:1007D00044102CE0200E4C6ED89040364136423604
:1007E0004336483649364A364B3647504B5C08E16B
:1007F00046504A5C05E14550495C02E14450485C82
:100800000FE34450485E4550D8A0453C495E4650F1
:10081000D8A0463C4A5E4750D8A0473C4B5ED880A3
:1008200000360136023603364C2ED6D748C0EFFFCD
:1008300049C0ECFF4AC0ECFF4BC0ECFF1200E9508E
:10084000386E37503A6E19E036C043F035C042F08A
:1008500034C041F033C040F0476A466A200E456E0E
:10086000820E446ED7DD03C036F002C035F001C001
:1008700034F000C033F03A2EE7D77E0E006E016AE6
:1008800034BE018ED89236C043F035C042F034C039
:1008900041F033C040F0476A466A01C045F0446EFB
:1008A00032DE03C036F002C035F001C034F000C0C3
:1008B00033F036C043F035C042F034C041F033C0AD
:1008C00040F056D703C036F002C035F001C034F016
:1008D00000C033F036AE0DD03806388A331E341ED1
:1008E000351E361E332AD8B4342AD8B4352AD8B4A3
:1008F000362A3B0E3F6E9A0E3E6ECA0E3D6E3C6A25
:100900000A0E3A6E3750D8B4382AD882EA6A330EC3
:10091000E96E36C043F035C042F034C041F033C018
:1009200040F03FC047F03EC046F03DC045F03CC0FF
:1009300044F03EDF015000520FE137283A5C0CE0F2
:1009400038500CE00F0B3A5C01E037E238BE35D08E
:1009500038BC04D0200E2DD0200E381638AA0CD06A
:10096000389A3750D8A438060050386E2D0E406E95
:10097000D6DC3850006E386A37503A5C0AE10050D5
:10098000386E2E0E406ECBDC3850006E200E3816BE
:10099000000E300E38AA0DD0389A3750D8A4380639
:1009A0000050386E2D0E406EBADC3850006E386A3A
:1009B000300E002600C040F0B2DCD8923FC043F0B9
:1009C0003EC042F03DC041F03CC040F0476A466A3C
:1009D000456A0A0E446EECDE03C03FF002C03EF0F2
:1009E00001C03DF000C03CF03A2E8FD71200090044
:1009F000F6CF34F0F7CF35F0F5CF40F090DC34C0CF
:100A0000F6FF35C0F7FF332EF2D7120034C03BF0AB
:100A100038503B1A3BAE05D0D894D89034BED8801D
:100A20002FD034C03BF037C03CF033503C5E06E082
:100A30003BAE26D0D850010AD86E22D038C03CF048
:100A400034503C5E06E03BAE1BD0D850010AD86E55
:100A500017D039C03CF035503C5E06E03BAE10D0BC
:100A6000D850010AD86E0CD03AC03CF036503C5EEB
:100A700006E03BAE05D0D850010AD86E01D0D89020
:100A80001200F86AD09E078E1C6A1B6A1A6A196ADD
:100A9000206A1F6A1E6A1D6A226A216A246A236A02
:100AA000266A256AC180C182C184C1962790286ABE
:100AB0002A6A296A2E6A2D6A2C6A2B6A326A316A7E
:100AC000306A2F6A5DD41EC02AF01DC029F02AC0EA
:100AD00038F029C037F083DC03C036F002C035F0AF
:100AE00001C034F000C033F02AC038F029C037F01C
:100AF00076DC36C043F035C042F034C041F033C03C
:100B000040F003C047F002C046F001C045F000C00D
:100B100044F080DC03C032F002C031F001C030F09C
:100B200000C02FF0948082B00DD03C0E416ED4EC0A
:100B300000F0948082A0FDD72790282A2850010831
:100B400001E2286A27B0BBD0340EF66E010EF76EB4
:100B500007DC010E416E426E7EEC01F0360EF66E41
:100B6000010EF76EB0EC01F0010E416E020E426E06
:100B70007EEC01F0460EF66E010EF76EB0EC01F061
:100B8000040E336EFA0E416ED4EC00F0332EFAD719
:100B9000560EF66E010EF76EB0EC01F028523EE1F3
:100BA00032C043F031C042F030C041F02FC040F0BD
:100BB0002B0E476EF60E466E250E456E760E446E73
:100BC00029DC03C02EF002C02DF001C02CF000C0C3
:100BD0002BF0010E416E426E7EEC01F0580EF66E67
:100BE000010EF76EB0EC01F0010E416E020E426E86
:100BF0007EEC01F0020EE96E2EC036F02DC035F00D
:100C00002CC034F02BC033F0010E376E18DE670EA7
:100C1000F66E010EF76E030E336EE9DE282C3FD020
:100C200032C043F031C042F030C041F02FC040F03C
:100C30002B0E476EF60E466E250E456E760E446EF2
:100C40000AEC02F003C02EF002C02DF001C02CF01F
:100C500000C02BF0010E416E426E7EEC01F06C0E76
:100C6000F66E010EF76EB0EC01F0010E416E020E51
:100C7000426E7EEC01F0020EE96E2EC036F02DC001
:100C800035F02CC034F02BC033F0010E376ED7DDB9
:100C90007B0EF66E010EF76E030E336EA8DE040EA9
:100CA000336EFA0E416ED4EC00F0332EFAD7800E7C
:100CB000F66E010EF76EB0EC01F02780A1D0010EA8
:100CC000416E426E7EEC01F02850010A01E021D015
:100CD00032C043F031C042F030C041F02FC040F08C
:100CE0002B0E476EF60E466E250E456E760E446E42
:100CF0000AEC02F003C032F002C031F001C030F063
:100D000000C02FF0820EF66E010EF76EB0EC01F00F
:100D100020D032C043F031C042F030C041F02FC08B
:100D200040F02B0E476EF60E466E250E456E760E83
:100D3000446E0AEC02F003C032F002C031F001C090
:100D400030F000C02FF08C0EF66E010EF76EB0EC96
:100D500001F0D88232C043F031C042F030C041F0DF
:100D60002FC040F02EC047F02DC046F02CC045F0FB
:100D70002BC044F083EC02F003C032F002C031F02B
:100D800001C030F000C02FF032C036F031C035F075
:100D900030C034F02FC033F03A6A396A386A376AA3
:100DA00035DE10E2366A356A7A0E346E880E336E9E
:100DB00032C03AF031C039F030C038F02FC037F0CF
:100DC00025DE04E3326A316A306A2F6A010E416E11
:100DD000020E426E7EEC01F0020EE96E32C036F079
:100DE00031C035F030C034F02FC033F0010E376E13
:100DF00026DD9B0EF66E010EF76E090E336EF7DDE3
:0C0E0000640E416ED4EC00F05ED60300DE
:020000040030CA
:0E0000000026060E0001810000000FE00F40F8
:00000001FF
;PIC18F452
;CRC=1519  CREATED="19-Jul-22 23:34"
