:1000000002308A00682A00004C3084008313000804
:10001000031918280130C100C001C00B0D28C10B05
:100020000C284A30C000C00B13281628800B0A2861
:1000300008000B138B138B1B1A289A019C01831643
:100040001F169F161F1383129F171F141F1383164B
:100050001F149F101F119F1100308312C1001F0831
:10006000E33941049F008316131093100511831286
:1000700005110C3095009601970183160108C039CF
:1000800081001312831290010030C1009200FF30F2
:1000900083169200831281018E018F018E019101DE
:1000A0006430CC000420802A4030CD00CF01CE0146
:1000B000CD0803196A289F149F185C289F185E2892
:1000C00083161E088312CE071E0803181E0FCF07C3
:1000D000CD0358284B08840083134C1883174F0C0A
:1000E000C3004E0CC200C30CC20CC30CC20CC30C28
:1000F000C20CC30CC20CC30CC20C0330C3054208B3
:100100008000840A43088000842A8E30C0004C0896
:10011000C1004B08C200C301C108031D9928420851
:10012000C100C2010830C002C108031D9928C001E6
:10013000A1280310C11BA028C20DC10DC00399281E
:10014000C113892A580803191229E0005C08031911
:100150001229E0070318B3287F30E002031C12299C
:1001600003191229B7288130E00703181229600803
:10017000C000C101C201C3015908E400E4175A08D4
:10018000E3005B08E2001830E000E101621CE028B7
:100190005F08C307031CD228C20A031DD228C10A64
:1001A0000319E1175E08C207031CD928C10A031905
:1001B000E1175D08DA00DA175A08C1070318E117DA
:1001C000E10DC10CC20CC30CE40CE30CE20C0310F7
:1001D000E00BC5280130C00703181229C11BF728FE
:1001E000E40DC30DC20DC10DC00303191229E41F94
:1001F0000829C30A031D0829C20A031D0829C10AC8
:10020000031D0829C10CC20CC30CC00A0319122912
:100210005908E1005D08E106E11F1029C117162900
:10022000C1131629C001C101C201C3010800831610
:100230000512831205120830C1001E290000C117E3
:100240002F29C113D80C03180516031C05124117DA
:100250002F294113C10B22292D29000005161C301E
:100260008400840B31293429C11B2129411B2929F0
:10027000080083183E29603084008313C001C10147
:10028000C201C301E001E101E201E3015F085E0494
:100290005D045C0403197C292030E4000310D80DB0
:1002A000D90DDA0DDB0DE00DE10DE20DE30D5F0878
:1002B0006302031D65295E086202031D65295D084E
:1002C0006102031D65295C086002031C76295C0835
:1002D000E0025D08031C5D0FE1025E08031C5E0F77
:1002E000E2025F08031C5F0FE3020314C00DC10D9F
:1002F000C20DC30DE40B4E2960088000840A61081A
:100300008000840A62088000840A63088000080074
:100310000408D0004F08D2000319A7294E08DB00BB
:100320004D08DA004C08D9004B08D800DF01DE0187
:100330002030DD008230DC00A2204308CE004208DD
:10034000CD004108CC004008CB00D20B8E294E08CE
:10035000DB004D08DA004C08D9004B08D8005808DB
:10036000B63CD800C3015908DC00D9170310D90CDA
:10037000DA0CDB0CC30CC20CC10CC00CD80BB629B8
:10038000DC1FCD29C009C109C209C309C00A03196C
:10039000C10A0319C20A0319C30A4308CE0042085E
:1003A000CD004108CC004008CB00CE1FE429D0038B
:1003B000D016CB09CC09CD09CE09CB0A0319CC0A3A
:1003C0000319CD0A0319CE0A3B30D7009A30D60064
:1003D000CA30D500D4010A30D2004F080319D00A20
:1003E00083144B30840083134E08DB004D08DA0081
:1003F0004C08D9004B08D8005708DF005608DE002B
:100400005508DD005408DC0039214108C008031DEF
:100410001C2A4F0A520203191C2A500803191E2ACB
:100420000F3952020319162A03184E2AD01B4E2ADE
:10043000501B1E2A20304A2A2030D005D01E2C2ADC
:10044000D0124F08031DD0034008D0002D30D80033
:1004500017215008C000D0014F085202031D3A2A4C
:100460004008D0002E30D80017215008C00020309E
:10047000D00500303030D01E4A2AD0124F08031D5C
:10048000D0034008D0002D30D80017215008C000FC
:10049000D0013030C0074008D8001721831057081A
:1004A000DB005608DA005508D9005408D800DF01EF
:1004B000DE01DD010A30DC0039214308D7004208A3
:1004C000D6004108D5004008D400D20BF029B22A4A
:1004D00003081F39830083160512831205161F13A4
:1004E00083161F109F101F119F1183129A019C01E8
:1004F0008313C601C501CA01C901C801C701192872
:10050000CC014530CB0054284608CC004508CB0030
:1005100085284308DB004208DA004108D90040087A
:10052000D8003530DF005E30DE007A30DD007D300F
:10053000DC00A2204308CA004208C9004108C800E4
:100540004008C7002030D8001721893084004A08AD
:10055000CE004908CD004808CC004708CB00023047
:10056000CF0088290A30D80017210D30D800172174
:1005700083168510023083128506CB00F530CC003F
:0A0580000420CB0BBE2A802A630082
:02400E00043F6D
:00000001FF
;PIC12F615
;CRC=FD46  CREATED="14-Dec-14 21:34"
