:1000000009308A00432900000A108A100A11820769
:1000100028340C34013406340C00D32A4E00CD278A
:100020004E00D42A4500D7224400542452004629C9
:100030004900D3205400201020003A003A00A020AC
:10004000CC20D226202AC9264510201020100001DD
:100050004F2720004F2346002010200020102000B2
:10006000200020004D308400831300080319462827
:100070000130F800F701F70B3B28F80B3A284A301B
:10008000F700F70B41284428800B38280800411856
:100090004B2808124C280816831608128312C11820
:1000A00053288812542888168316881283124119FF
:1000B0005B2808135C280817831608138312C119DC
:1000C0006328881364288817831688130000861114
:1000D000831286156B2883168611831286110800F9
:1000E000C201831686118312861500008316081636
:1000F00083124210081A4214831688168312C21003
:10010000881AC2148316081783124211081B42155D
:10011000831688178312C211881BC2158316861195
:10012000831286114208F800080083168612831293
:1001300086128316061283120616000070207808B5
:10014000C10070207808C000410EF700F030F705BC
:1001500077084004F8007808C000C01B9928BE0842
:100160000319B7288316861283128616BB288316B6
:10017000861283128612000083160612831206125C
:10018000000083168611831286113F0EC0000F30C7
:10019000C0054008C10047203F080F39C000C1001A
:1001A000472008000830F8000000061083160610EB
:1001B00000008312B30D8610031CE12883168614F9
:1001C00083120318E62883168610831283160614FA
:1001D0008312061CE928F80BD428000006108316A9
:1001E0000610000086140000000006148312061C8E
:1001F000F728F801000086187814061083160610F8
:1002000083128610831686108312080083168614C4
:10021000000006140000831286108316861000006A
:100220008312061083160610A2308312B300D22068
:100230003108B300D2203208B300D22083168610D2
:10024000000006148312061C232900002729000041
:1002500083168614000083120800B1012830B20012
:1002600006210800B1018316861400000614000060
:1002700083128610831686100000831206108316E0
:100280000610A2308312B300D2203008B300D2206F
:10029000831686140000061400008312061C4E29E3
:1002A000861083168610000083120610831606102F
:1002B000A3308312B300D220F7010830B3007708CF
:1002C000B40083168614000006148312061C6629E7
:1002D00086180314861C0310F80D00008316061000
:1002E00083120610B30B6129831686140000831253
:1002F0008610340803197F298316861083120000A4
:10030000831606148312061C832900000610831628
:100310000610000083128610831686107808831258
:10032000B10083168610000006148312061C96295D
:1003300000009A29000083168614000083123108F9
:10034000F8000800AF010130B00032217808AF009A
:100350002F08F739B0000130B1003008B200062193
:1003600008003B0BB429B7294030BC00B829BC01B8
:1003700001303A02BC073C088038BD00BE013D0890
:10038000BF009520080039080C3A0319CE29063A17
:100390000319D629023A0319DC29E129BE010130EB
:1003A000BF0095200230CD003220E6290130BA008E
:1003B0000230BB00B121E629BE011030BF009520FC
:1003C000E6290130BE003908BF00952008000B085F
:1003D000B6008B13831603178C170C140000000053
:1003E00083120313B61B8B1703170C087F390319ED
:1003F0003B2A0313B60003170D080313B7000317B6
:100400000F080313B8003608B900C32137080317D3
:100410008D000313380803178F0003130B08B9006E
:100420008B13831603178C170C1400000000831223
:100430000313B91B8B1703170C0D0E0D7F3903190E
:100440003B2A0313B60003170D080313B700031765
:100450000F080313B8003608B900C3213708031783
:100460008D000313380803178F008D0A03198F0AB4
:100470000313E7290317031308000B138B138B1BBC
:100480003E2AF0308316870083121F1097059D05C2
:1004900083161F149F141F159F1107309C00050819
:1004A00085000330F700F70B532A1C0883120D1345
:1004B0009412013094000030831694000108C03972
:1004C0008100831290010030F8009200FF30831603
:1004D0009200831281018E018F018E01910183169A
:1004E0008612831286128316061283120612831650
:1004F0008611831286110F30CD003220AF012F08F4
:10050000023C031C8B2A0330C10047200530CD007C
:100510003220AF0A7F2A0230C1004720AF012F08E6
:10052000033C031C9C2A2F080420B000BE013008A5
:10053000BF009520AF0A8F2A2D21A2210C3003176E
:100540008D0000308F000313E7218A150A126129FC
:10055000F701F801380803103918F707F70CF80C01
:10056000B918F707F70CF80C3919F707F70CF80C5E
:10057000B919F707F70CF80C391AF707F70CF80C4C
:10058000B91AF707F70CF80C391BF707F70CF80C3A
:10059000B91BF707F70CF80C080030080F39B10049
:1005A0003008F039F700F70E0F30F7057708B30081
:1005B000B8000A30B900A82278083107F80008000E
:1005C0000230B00032217808A000A0132008B0004B
:1005D000CD227808A0000330B00032217808A100B5
:1005E000A1132108B000CD227808A1000430B0008A
:1005F00032217808A2003F30A2052208B000CD22A7
:100600007808A20008000530B00032217808A30065
:100610003F30A3052308B000CD227808A3000630A0
:10062000B00032217808A4000730A4052408B000E7
:10063000CD227808A4000730B00032217808A50048
:100640001F30A5052508B000CD227808A500083088
:10065000B00032217808A6002608B000CD22780824
:10066000A6000800AF010930B00032217808A800C8
:1006700028088039AF00A8132808B000CD227808D8
:10068000A8000A30B00032217808A7002708803976
:100690002F04F700A901F71B29143F30A7052708ED
:1006A000B000CD227808A70008003908F801380208
:1006B00003185D2B3808F700692BF7010830BA00E2
:1006C000B80DF70D390877020318F700F80DBA0BCB
:1006D000602B08002F08B8000A30B9005523780EA7
:1006E000F700F030F7057708F039B0002F08B800B0
:1006F0000A30B900552377080F393004F800080094
:100700002008AF006A237808A0000230B10020085A
:10071000B20006212108AF006A237808A100033047
:10072000B1002108B20006212208AF006A23780830
:10073000A2000430B1002208B200062108002308FC
:10074000AF006A237808A3000530B1002308B20087
:1007500006212408AF006A237808A4000630B100FF
:100760002408B20006212508AF006A237808A500F6
:100770000730B1002508B20006212608AF006A2321
:100780007808A6000830B1002608B200062108004B
:100790002808AF006A237808A800290BD12BA817D6
:1007A000D22BA8130930B1002808B200062127086F
:1007B000AF006A237808A700290BE02BA717E62BC8
:1007C000A7130130B1000230B20006210A30B10097
:1007D0002708B20006210800B1010830B200062146
:1007E0000800E0220323322321083B3C031CFC2B9E
:1007F0002208173C0318012C0A30A000A100A20017
:10080000802323081F3C031C112C2408063C031CD6
:10081000112C25080C3C031C112C2608633C0318E2
:10082000172C0130A300A400A500A6009F232108D7
:100830003B3C031C1F2C2208173C0318242C0A30B5
:10084000A800A800A901C823EC238A150A1264296C
:1008500083182D2C583084008313F701F801F90117
:10086000FA01D801D901DA01DB0157085604550411
:10087000540403196B2C2030DC000310D00DD10D73
:10088000D20DD30DD80DD90DDA0DDB0D57085B0253
:10089000031D542C56085A02031D542C55085902A6
:1008A000031D542C54085802031C652C5408D8020C
:1008B0005508031C550FD9025608031C560FDA02BF
:1008C0005708031C570FDB020314F70DF80DF90D41
:1008D000FA0DDC0B3D2C58088000840A5908800072
:1008E000840A5A088000840A5B0880000800F80126
:1008F000F901F701FA014B08031D812C4A0803197D
:100900009B2C1030CC000310C80DC90DF70DFA0D4B
:100910004B087A02031D8E2C4A087702031C972C81
:100920004A08F702031CFA034B08FA020314F80DF5
:10093000F90DCC0B832C0800CC0149084C0203189C
:10094000A62CFA30CD003220CC0A9D2C4808CD00D0
:100950003220CC014B084C020318B42C5330F70062
:10096000F70BB02CCC0AAA2C4A08CD001230CD02CD
:10097000031CC92C4D3084008313FC308005031008
:10098000800C800C00080319C92CC72C0000800BB8
:10099000C62C08008310D3010F30D2004230D100A2
:1009A0004030D000D701D6013708D5003608D40032
:1009B00028247A08CB007908CA007808C90077088B
:1009C000C8000310CB0CCA0CC90CC80C0A30480272
:1009D000BA004908BB000030031C0130BB024A08C2
:1009E000BC000030031C0130BC024B08BD000030CD
:1009F000031C0130BD0283103D08D3003C08D20027
:100A00003B08D1003A08D000D701D6010330D50009
:100A1000E830D40028247808BF007708BE003F08DB
:100A2000C9003E08C800CB01FA30CA007724780814
:100A3000C3003F08C9003E08C800CB01FA30CA0015
:100A400077247708C40083144830840083133D085A
:100A5000D3003C08D2003B08D1003A08D000D701AF
:100A6000D6010330D500E830D40028244908C1005D
:100A70004808C0004108C9004008C800CB01FA304E
:100A8000CA0077247808C2004108C9004008C8009D
:100A9000CB01FA30CA0077247708C500CB01CA0120
:100AA0003908C9003808C8004B08CF004A08CE00F2
:100AB0004908CD004808CC00D301D2010330D10051
:100AC000E830D0002030D800D401D501D601D701BC
:100AD0004F08FA004E08F9004D08F8004C08F700DE
:100AE0000310771C812D5008D40751080318510FAB
:100AF000D50752080318520FD60753080318530F8F
:100B0000D707D70CD60CD50CD40CFA0CF90CF80C72
:100B1000F70CD80B702D7A08CB007908CA0078083A
:100B2000C9007708C8008310D3010F30D2004230CB
:100B3000D1004030D000D701D6013708D5003608A3
:100B4000D40028247A08CF007908CE007808CD0098
:100B50007708CC0083104B08D3004A08D20049081C
:100B6000D1004808D0007A08D7007908D600780864
:100B7000D5007708D40028247808C7007708C60075
:100B80004708FA0046080319C703C603C8007A08D5
:100B9000C900C808031DCF2DC9080319EA2D440850
:100BA000C8004308C9004508CA004208CB009C247D
:100BB00083160611831206154408C8004308C900AD
:100BC0004508CA004208CB009C24831606118312F4
:100BD0000611C02D08008711071587140714871BFD
:100BE000FD2D0A30B7002830B600B9010A30B80030
:100BF000CA240130F800DA2E262E071B0B2E0A30ED
:100C0000B7002830B600B9010A30B800CA24043051
:100C1000F800DA2E262E871A192E0A30B70028304F
:100C2000B600B9010A30B800CA240730F800DA2E3D
:100C3000262E071A262E0A30B7002830B600B90132
:100C40000A30B800CA240E30F800DA2E07118715D2
:100C500087140714871B382E0A30B7002830B600D7
:100C6000B9010A30B800CA240230F800DA2E612E29
:100C7000071B462E0A30B7002830B600B9010A30EB
:100C8000B800CA240530F800DA2E612E871A542ED7
:100C90000A30B7002830B600B9010A30B800CA24BB
:100CA0000830F800DA2E612E071A612E0A30B700DC
:100CB0002830B600B9010A30B800CA240030F80064
:100CC000DA2E8710871507150714871B732E0A3035
:100CD000B7002830B600B9010A30B800CA24033082
:100CE000F800DA2E9C2E071B812E0A30B700283020
:100CF000B600B9010A30B800CA240630F800DA2E6E
:100D00009C2E871A8F2E0A30B7002830B600B90102
:100D10000A30B800CA240930F800DA2E9C2E071ACF
:100D20009C2E0A30B7002830B600B9010A30B8004E
:100D3000CA240F30F800DA2E07108715071587141C
:100D4000871BAE2E0A30B7002830B600B9010A3032
:100D5000B800CA240A30F800DA2EDA2E071BBC2E9F
:100D60000A30B7002830B600B9010A30B800CA24EA
:100D70000B30F800DA2EDA2E871ACA2E0A30B700A6
:100D80002830B600B9010A30B800CA240C30F80087
:100D9000DA2EDA2E071AD82E0A30B7002830B6001D
:100DA000B9010A30B800CA240D30F800DA2EDA2E64
:100DB000FF30F800080078083608B8006430B90041
:100DC00055237708B60078083030031DEE2EB71C87
:100DD000F52EB719F52E371A2030F12EB71137122C
:100DE0003714F8077808B900C3213608B8000A306C
:100DF000B90055237708B60078083030031D062F58
:100E0000B7190A2F371C0A2F371A2030F80778082D
:100E1000B900C3213030B6073608B900C321080035
:100E20000B30BA000230BB00B121B008031D202FE7
:100E3000283003178D0000308F000313E721272F80
:100E40002A3003178D0000308F000313E7210800BC
:100E50000330BA000130BB00B1211F3003178D00F1
:100E600000308F000313E7210430BA000230BB00CA
:100E7000B1212708B6000130B700DB263A30B900AF
:100E8000C3212808B6000130B700DB262030B900A6
:100E9000C3212030B900C3212908B00010278A15CA
:100EA0000A12B0290C30BA000130BB00B121300861
:100EB00003196D2F013A0319752F033A03197D2F7A
:100EC000013A0319852F073A03198D2F013A0319A7
:100ED000952F033A03199D2FA52F0D3003178D0071
:100EE00000308F000313E721AC2F0F3003178D0064
:100EF00000308F000313E721AC2F113003178D0052
:100F000000308F000313E721AC2F133003178D003F
:100F100000308F000313E721AC2F153003178D002D
:100F200000308F000313E721AC2F173003178D001B
:100F300000308F000313E721AC2F193003178D0009
:100F400000308F000313E721AC2F1B3003178D00F7
:100F500000308F000313E7210800AF01EB25EB25DC
:100F60007808063C031CB72FEB257808AF000C303F
:100F7000BA000130BB00B1212E3003178D000030C4
:100F80008F000313E7216430CD0032202F08B0001A
:100F900052276430CD003220EB2578080C3C031D2D
:100FA000AE2F2F08F8008A150A12F229AF01EB259F
:100FB000EB257808013C031CE02FEB257808AF00F7
:100FC0000B30BA000230BB00B1212C3003178D006A
:100FD00000308F000313E7216430CD0032202F084A
:100FE000B00010276430CD003220EB2578080C3C8F
:0E0FF000031DD72F2F08F8008A150A121A2A9F
:101000000330BA000130BB008A11B1218A152208D1
:10101000B6000130B7008A11DB268A152030B900EE
:101020008A11C3218A152108B6000130B7008A1140
:10103000DB268A152030B9008A11C3218A152008C1
:10104000B6000130B7008A11DB268A152030B900BE
:101050008A11C3218A152408B0008A1152278A15E3
:101060000430BA000230BB008A11B1218A1523086E
:10107000B6000130B7008A11DB268A152F30B9007F
:101080008A11C3218A152508B6000130B7008A11DC
:10109000DB268A152F30B9008A11C3218A15323018
:1010A000B9008A11C3218A153030B9008A11C321D1
:1010B0008A152608B6000130B7008A11DB268A158A
:1010C0000230AF00C830CD008A1132208A15AF0B34
:1010D00062280530BA000130BB008A11B1218A159F
:1010E0001D3003178D0000308F008A110313E72194
:1010F0008A150830BA000130BB008A11B1218A1567
:101100001E3003178D0000308F008A110313E72172
:101110008A158A150A12B029B301B401B5018A11E2
:10112000EB258A158A11EB258A157808093C031CE2
:101130009E288A11EB258A157808B4002F08BA007A
:101140003008BB008A11B1218A15303003178D0099
:1011500000308F008A110313E7218A156430CD0017
:101160008A1132208A152F08BA003008BB008A1174
:10117000B1218A153408B6001830B7008A11DB2671
:101180008A156430CD008A1132208A158A11EB2528
:101190008A1578080C3C031D8F288A11EB258A15C7
:1011A0008A11EB258A157808093C031CDC288A1172
:1011B000EB258A157808B50001302F07B600BA0074
:1011C0003008BB008A11B1218A15313003178D0018
:1011D00000308F008A110313E7218A156430CD0097
:1011E0008A1132208A1501302F07B600BA00300864
:1011F000BB008A11B1218A153508B6001830B70036
:101200008A11DB268A156430CD008A1132208A15B6
:101210008A11EB258A1578080C3C031DCD2834086B
:10122000B6003508B7003608B8000A30B9008A1190
:10123000A8228A1537087807F8007808B300330821
:101240003102031C27293208330203182B290130ED
:10125000F8002D292D293308F8000800AF010130CE
:10126000B0008A1132218A1578080839AF00AF081A
:1012700003193E290130F800402940290030F800C8
:101280008A150A12392A03081F398300A001A10117
:10129000A201A301A401A501A601A701A801A9011A
:1012A000AB01AA0183161F149F141F159F1107304D
:1012B0009C00831383122C10AC10AD01AE018A1177
:1012C0003D2A8A158A11F12B8A158A11EB258A1578
:1012D00078080D3C031D73290130AC066430CD0045
:1012E0008A1132208A158A11EB258A1578080A3C62
:1012F000031D8029AC1C8029AC108A11A2218A15FB
:101300008A11EB258A1578080E3C031D93298A1152
:101310002D218A150130AE00AD002C106430CD00B7
:101320008A1132208A158A11EB258A1578080F3C1C
:10133000031DA5298A112D218A150230AE002C1417
:101340006430CD008A1132208A1500302C1801300B
:10135000013A031DAF298A11282F8A15B0290028C8
:101360002E0B002A0330AF000130B0001730B1005F
:10137000B2018C207808A2000630AF000130B00026
:101380003B30B100B2018C207808A1000930AF00D9
:101390000130B0003B30B100B2018C207808A000D1
:1013A0000430AF000230B0001F30B1000130B20095
:1013B0008C207808A3000730AF000230B0000C305A
:1013C000B1000130B2008C207808A5000C30AF00CD
:1013D0000230B0006330B100B2018C207808A60062
:1013E0008A11AD2F8A157808A4008A1180238A15E6
:1013F0008A119F238A158A11EC238A15AE01572A78
:101400002E08023C031D2F2A0430AF000230B0002A
:101410001730B100B2018C207808A7000730AF0068
:101420000230B0003B30B100B2018C207808A80037
:101430008A11D62F8A157808A9008A11C8238A151F
:101440008A11EC238A151030AF00FA30CD008A11D2
:1014500032208A15AF0B252A2C10AE01572A8A118B
:10146000E0228A158A1103238A158A1132238A15EC
:101470002E29AC107818AC14AC1C532A0930B700D4
:101480006030B600B9013C30B8008A11CA248A1510
:101490000C30B7008030B600B9013C30B8008A117A
:1014A000CA248A15572A83160611831206110230A0
:1014B000AF00C830CD008A1132208A15AF0B592AEF
:0414C0006529630037
:02400E00410E61
:00000001FF
;PIC16F877A
;CRC=E055  CREATED="12-Jan-16 16:46"
