:1000000008308A0000280000FF00030E8301A100D1
:100010000A08A0008A010408A2007708A300780853
:10002000A4007908A5007A08A60003170D08031399
:10003000A70003170F080313A80003170C080313E6
:10004000A90003170E080313AA00831383128C3030
:100050008400801E2D288C1A4E2822088400230834
:10006000F7002408F8002508F9002608FA002708F8
:1000700003178D000313280803178F0003132908A3
:1000800003178C0003132A0803178E00031320089C
:100090008A00210E8300FF0E7F0E09008A110A12CA
:1000A0009E280A108A100A11820728340C34013461
:1000B00006340A108A100A118207063409340934FA
:1000C0000634003400340034003401300317AA0031
:1000D0004030A9000230AB009B30AC000330AC02D2
:1000E000031C7C282C3084008317000803197C280B
:1000F0007A287A28800B7928AB0B6C28A90B8728E3
:10010000AA0B87280313AC01F801942803170313E3
:100110008C1A8C2803176A281808AC001A08F800F3
:10012000AC1C9428181218160800780803199D288A
:1001300077088000840AF80B982808008316881036
:100140000230831288062E1CE328AF012F083B3CA7
:10015000031CE028A0302F07840083130317A80195
:100160000408A7002810831B281403136520031715
:100170002708840083132818831778088000A0308C
:1001800003132F078400831300082C3C031DCF2882
:1001900032303007840083132F088000B00AA0306B
:1001A0002F078400831300082E3C031DDE283F30F8
:1001B0003107840083132F088000B10AAF0AA628F4
:1001C000AE142E103E2945302F07840083130317E9
:1001D000A8010408A7002810831B28140313652016
:1001E00003172708840083132818831778088000D2
:1001F0000313AF0A4508243C031D32294608473C37
:10020000031D32294708503C031D32294808523C3F
:10021000031D322949084D3C031D32294A08433C3D
:10022000031D3229AF01453084008313F7010630E6
:10023000F8009520A03084008313F7013C30F800CB
:1002400095203F3084008313F7010630F800952095
:10025000323084008313F7010D30F8009520B1018E
:10026000B0012E142F08053C03183E29AF0145307C
:1002700084008313F7010630F80095208C128A1150
:100280000A122D28CC3074173A00CC376E173A007A
:10029000EB3670343A00552A43173A10AD16BA16A9
:1002A0002D00AD16AF16AD17AD1600001A30840044
:1002B00083170008031969290630F800F701F70BC6
:1002C0005F29F80B5E297B30F700F70B6529800B5F
:1002D0005C290800031721187129031308127329D8
:1002E0000317031308168316081283120317A118A5
:1002F0007D29031388127F29031703138816831699
:1003000088128312031721198929031308138B29D3
:100310000317031308178316081383120317A11971
:100320009529031388139729031703138817831636
:10033000881300000911831209150330F700F70B29
:100340009F29831609118312091108000317A201BE
:1003500083160313091183120915AE29AF29000072
:10036000831608168312031722100313081EBB29D5
:100370000317221403138316881683120317A2107F
:100380000313881EC6290317A21403138316081724
:100390008312031722110313081FD12903172215F3
:1003A00003138316881783120317A2110313881FE0
:1003B000DC290317A21503138316091183120911EF
:1003C000E129E229000003172208F80003130800BE
:1003D0008316091083120910831689108312891459
:1003E0000000A62178080317A1000313A6217808AE
:1003F0000317A000210EF700F030F705770820045E
:10040000F8007808A000A01F072A0313EC299E0813
:100410000319112A83160313091083120914162ACB
:1004200003178316031309108312091000008316A3
:100430008910831289100000831609118312091193
:1004400003171F0EA0000F30A0052008A100031302
:100450006A2103171F080F39A000A10003136A21A6
:10046000080003171B08013A03130319412A033A32
:100470000319442A013A0319482A073A03194C2A56
:10048000512A03179C01532A403003179C00532A1A
:10049000143003179C00532A543003179C00532A2E
:1004A000031303179C0101301A029C071C088038B3
:1004B0009D009E011D089F000313E82108000317FB
:1004C00019080C3A031303196C2A063A03197A2AFD
:1004D000023A0319852A8C2A03179E0101309F00D6
:1004E0000313E8210130AD00023003179A00031313
:1004F0005621932AAD0A013003179A0003132D08E1
:1005000003179B0003133122932A03179E01103017
:100510009F000313E821932A013003179E00190856
:100520009F000313E82108000B0803179000031332
:100530008B13831603178C170C1400000000831212
:10054000901FA52A03138B1703170C087F39031973
:10055000E22A90000D0891000F08920010089900FF
:1005600003135F22031711088D0012088F00031375
:100570000B080317930003138B13831603178C17B1
:100580000C14000000008312931FC92A03138B1759
:1005900003170C0D0E0D7F390319E22A90000D0888
:1005A00091000F0892001008990003135F220317AF
:1005B00011088D0012088F008D0A03198F0A03138A
:1005C000942A0317031308000B138B138B1BE52AC4
:1005D00083160108C0398100831290010030F800B1
:1005E0009200FF3083169200831281018E018F01E9
:1005F0008E019101F03097059D0583160912073091
:100600009C00050885001030F700F70B052B000053
:100610001C0883120D1394018316811783121F1077
:1006200083161F149F141F159F11C03083128B0453
:1006300083168C1601308312AD00831609108312C5
:1006400009108316891083128910831609118312E9
:100650000911233003179A00031356218316EF0163
:100660006F08023C031C422B033083120317A100C6
:1006700003136A21053003179A00031356218316CA
:10068000EF0A302B023083120317A10003136A21F3
:100690008316EF016F08033C031C5B2B6F0883126A
:1006A0005120031790009E0110089F000313E821BA
:1006B0008316EF0A4A2BEF01831203179E01403085
:1006C0009F000313E8218316EF016F08073C031C0A
:1006D000772B6F08831259200317900001309E007A
:1006E00010089F000313E8218316EF0A652B83127D
:1006F00003179E0180309F000313E8210130031788
:100700009A009B0003133122423003178D00013001
:100710008F00031394220A3003179A0001309B00C4
:10072000031331220317990103135F2201300317CA
:100730009A0002309B0003133122453003178D00CD
:1007400001308F00031394220A3003179A000230FD
:100750009B00031331220317990103135F22013019
:1007600003179A0003309B0003133122483003170C
:100770008D0001308F0003139422143003179A0068
:1007800003309B00031331220317990103135F22E7
:10079000013003179A0004309B00031331224B30C1
:1007A00003178D0001308F00031394220D300317BF
:1007B0009A0004309B0003133122513003178D003F
:1007C00001308F00031394228A150A124328F7017F
:1007D000F80103171F0803102018F707F70CF80C8F
:1007E000A018F707F70CF80C2019F707F70CF80C0E
:1007F000A019F707F70CF80C201AF707F70CF80CFC
:10080000A01AF707F70CF80C201BF707F70CF80CE9
:10081000A01BF707F70CF80C0313080003171208C6
:1008200010078400831311188317303000029500DD
:100830009F000A30A0000313E723780803179400F1
:10084000013012071007840083131118831730300A
:100850000002140793001308F80003130800013086
:1008600083166F0783120317100784008313111870
:10087000831730300002F8000313080003171E0826
:10088000F8011D020318472C1D08F700532CF7012F
:1008900008309F009D0DF70D1E0877020318F70022
:1008A000F80D9F0B4A2C03130800031797019801BA
:1008B00099019B019A01831603136F088312031792
:1008C00097001608170203187B2C170810078400DE
:1008D00083131118831700082F3C0318792C17086D
:1008E000100784008313111883170008393C03187C
:1008F000980A970A612C1808053C031DF72C6430F0
:1009000099000130831603136F07831203179700B2
:100910000430831603136F0783120317170203189B
:10092000AF2C170810078400831311188317303079
:1009300000029D009F001908A0000313E723780818
:1009400003179A0703189B0A19089D000A309E0096
:1009500003133E24780803179900970A882C12087D
:100960008400831313188317840A1B0880008403F0
:100970001A0880000A3099009B019A0104308316FE
:1009800003136F07831203179700063083160313B0
:100990006F078312031717020318EC2C17081007B0
:1009A0008400831311188317303000029D009F00CC
:1009B0001908A0000313E723780803179A07031800
:1009C0009B0A19089D000A309E0003133E247808F4
:1009D00003179900970AC52C14088400831315186F
:1009E00083171A0880000130F800752D752D18083E
:1009F000043C031D732D0A30990001308316031344
:100A00006F078312031797000330831603136F07D2
:100A100083120317170203182B2D170810078400E1
:100A2000831311188317303000029D009F001908AE
:100A3000A0000313E723780803179A0703189B0AFB
:100A400019089D000A309E0003133E2478080317FE
:100A50009900970A042D1208840083131318831732
:100A6000840A1B08800084031A0880000A30990059
:100A70009B019A010330831603136F078312031738
:100A800097000530831603136F07831203171702AD
:100A90000318682D17081007840083131118831793
:100AA000303000029D009F001908A0000313E723C7
:100AB000780803179A0703189B0A19089D000A3043
:100AC0009E0003133E24780803179900970A412DCE
:100AD000140884008313151883171A088000013046
:100AE000F800752D752D0030F8000313080003176A
:100AF0009601643097009901980101308316031321
:100B00006F078312031796000430831603136F07D1
:100B10008312031716020318AB2D16081007840062
:100B2000831311188317303000029B009F001708B1
:100B3000A0000313E7237808031798070318990AFE
:100B400017089D000A309E0003133E2478080317FF
:100B50009700960A842D12088400831313188317B4
:100B6000840A190880008403180880000530831661
:100B700003136F07831203171007840083131118E0
:100B80008317303000029C0014088400831315186A
:100B900083171C08800003130800780883166F0869
:100BA000831203179D0064309E0003133E247708D0
:100BB0008316EF0078083030031DE92D83120317E8
:100BC000901CF42D9019F42D101A2030EE2D831660
:100BD000031383120317901110121014F8077808EA
:100BE000990003135F220317831603136F08831200
:100BF00003179D000A309E0003133E2477088316D6
:100C0000EF0078083030031D0F2E83120317901960
:100C1000172E101C172E101A203083160313F807F6
:100C2000780883120317990003135F2203173030EB
:100C300083160313EF076F0883120317990003133A
:100C40005F22080003179801040897001810831BFF
:100C50001814110EF03893009307E23E9400323ED0
:100C6000960011080F39940794079607E93E9500FE
:100C700095079507100E0F3995079607950D960D58
:100C80009609960D10080F399607930D07309200BC
:100C90000A3096079503031C492E95079403031CFD
:100CA0004D2E94079303031C512E93079203031CAC
:100CB000552E123084008317073017051713840749
:100CC00016300402031917170008F700031D702ED1
:100CD000171B702E171A842E9719702E2030732E22
:100CE000971517123030F707910104089000111082
:100CF000831B11147708990003135F220317100850
:100D00008400831311188317840A171F602E03139E
:100D10000800013083166F07831203171007840041
:0E0D20008313111883170008F800031308004E
:1010000003081F398300AC01813083169900A63094
:1010100098009030831298002E10AE10AF01B001EE
:10102000B101CC01CB0183161F149F141F159F1112
:1010300007309C008313DC01DD01DE01DF01E001EC
:10104000E201E101E301E401E601E501E701E80174
:10105000EA01E901EB01ED01EC01EE01453084000C
:101060008313F7010630F8008A11831295208A1540
:10107000A03084008313F7013C30F8008A119520DA
:101080008A158A11E42A8A15AE1CAC2A013032076F
:101090008316EF00831203179101A030900083168E
:1010A00003136F088312031792008A1103130E248F
:1010B0008A1578088316DC00033083123207831602
:1010C000EF00831203179101A030900083160313E1
:1010D0006F088312031792008A1103130E248A15D6
:1010E00078088316DD00831203179101A030900069
:1010F000031340088316EF008A1183122F248A15E8
:1011000078088316E400831203179101A030900041
:101110009301E13092009501E33094000313340809
:101120008316EF0083124008031796008A110313F9
:1011300055248A1503179101A0309000031341082C
:101140008316EF008A1183122F248A1578088316DC
:10115000E800831203179101A03090009301E5305D
:1011600092009501E7309400031336088316EF00D0
:1011700083124108031796008A11031355248A1518
:1011800003179101A03090009301E930920095017E
:10119000EB309400031338088316EF008A11831292
:1011A00077258A1503179101A03090009301EC3048
:1011B00092009501EE309400031339088316EF0076
:1011C0008A11831277258A1501303A078316EF00BA
:1011D000831203179101A0309000831603136F0848
:1011E0008312031792008A1103130E248A157808BC
:1011F0008316DE00033083123A078316EF00831252
:1012000003179101A0309000831603136F08831217
:10121000031792008A1103130E248A157808831687
:10122000DF00053083123A078316EF00831203179D
:101230009101A0309000831603136F0883120317E7
:1012400092008A1103130E248A1578088316E00091
:101250000730831203179A0004309B008A1103138E
:1012600031228A1583165C08EF00013083120317C0
:1012700090008A110313CD258A153A30031799007F
:101280008A1103135F228A1583165D08EF0001306F
:101290008312031790008A110313CD258A150D3090
:1012A00003179A0004309B008A11031331228A1518
:1012B00083165E08EF0001308312031790008A1135
:1012C0000313CD258A152F30031799008A110313B4
:1012D0005F228A1583165F08EF000130831203171F
:1012E00090008A110313CD258A152F30031799001A
:1012F0008A1103135F228A1583166008EF000130FC
:101300008312031790008A110313CD258A15073025
:1013100003179A0001309B008A11031331228A15AA
:101320000A30840083166208831203179100831623
:10133000031361088312031790008A1103132226F6
:101340008A150B3003179A0001309B008A11031392
:1013500031228A1583166308EF00013083120317C8
:1013600090008A110313CD258A152E30031799009A
:101370008A1103135F228A1583166408EF00183060
:101380008312031790008A110313CD258A15273085
:10139000031799008A1103135F228A15113003176E
:1013A0009A0001309B008A11031331228A1503171A
:1013B0009101A0309000031335088316EF008A11C5
:1013C000831289268A1578088316EF008312031783
:1013D00099008A1103135F228A15073003179A00B8
:1013E00002309B008A11031331228A150A308400CF
:1013F000831666088312031791008316031365088A
:101400008312031790008A11031322268A150B30CA
:1014100003179A0002309B008A11031331228A15A8
:1014200083166708EF0001308312031790008A11BA
:101430000313CD258A152E30031799008A11031343
:101440005F228A1583166808EF001830831203178D
:1014500090008A110313CD258A15273003179900B0
:101460008A1103135F228A15113003179A00023084
:101470009B008A11031331228A1503179101A030B2
:101480009000031337088316EF008A118312892610
:101490008A1578088316EF008312031799008A11C2
:1014A00003135F228A15073003179A0003309B004D
:1014B0008A11031331228A150A30840083166A08C0
:1014C000831203179100831603136908831203170D
:1014D00090008A11031322268A152E3003179900D3
:1014E0008A1103135F228A1583166B08EF001830E8
:1014F0008312031790008A110313CD258A150F302C
:1015000003179A0003309B008A11031331228A15B6
:101510000A30840083166D08831203179100831626
:1015200003136C088312031790008A1103132226F9
:101530008A152E30031799008A1103135F228A152A
:1015400083166E08EF0018308312031790008A117B
:101550000313CD258A15AE108316081001308312AF
:101560008806643003179A008A11031356218A15DE
:0415700044286300A8
:02400E00321E60
:00000001FF
;PIC16F877A
;CRC=0F7F  CREATED="09-Jan-15 09:33"
