:1000000005308A00312D00000C00CC26B71A4110B3
:10001000C432ED370001D417A0213A0036308400F5
:1000200083130008031922280130F800F701F70BA9
:100030001728F80B16284A30F700F70B1D28202840
:10004000800B142808003D182728081228280816B5
:10005000831608128312BD182F288812302888169C
:100060008316881283123D19372808133828081779
:10007000831608138312BD193F2888134028881758
:100080008316881300008312A112210883168700AB
:10009000831287164B28A11221088316870083122A
:1000A000871208002C08F7000310831603178C171B
:1000B0000C140000000083120C088000840A8D0AD2
:1000C00003198F0AF70B652867288316582803132E
:1000D0000800BE01A112210883168700831287162B
:1000E00000008316081683123E10081A3E14831669
:1000F00088168312BE10881ABE148316081783123E
:100100003E11081B3E15831688178312BE11881BEB
:10011000BE15A112210883168700831287120000E2
:100120003E08F8000800A1112108831687008312F9
:1001300087112112210883168700831207160000F9
:1001400069207808BD0069207808BC003D0EF700E2
:10015000F030F70577083C04F8007808BC00BC1BB9
:100160009928BA080319BB28A11121088316870012
:1001700083128715C128A1112108831687008312D5
:1001800087110000211221088316870083120712AD
:100190000000A112210883168700831287123B0EEC
:1001A000BC000F30BC053C08BD0023203B080F39C4
:1001B000BC00BD00232008003708013A0319EA28D3
:1001C000033A0319EC28013A0319EF28073A0319F7
:1001D000F228F528B801F6284030B800F628143087
:1001E000B800F6285430B800F628B80101303602BD
:1001F000B80738088038B900BA013908BB00932025
:10020000080035080C3A03190C29063A0319162977
:10021000023A03191D292229BA010130BB0093209B
:100220000130A0000230B6000E202729A00A0130BC
:10023000B6002008B700DC202729BA011030BB0027
:10024000932027290130BA003508BB00932008000D
:100250000B08A8008B13831603178C170C140000CF
:10026000000083120313A81B8B1703170C087F3998
:1002700003197C290313A80003170D080313A90011
:1002800003170F080313AA002808B5000121290845
:1002900003178D0003132A0803178F0003130B089D
:1002A000AB008B13831603178C170C14000000008F
:1002B00083120313AB1B8B1703170C0D0E0D7F3925
:1002C00003197C290313A80003170D080313A900C1
:1002D00003170F080313AA002808B50001212908F5
:1002E00003178D0003132A0803178F008D0A0319C3
:1002F0008F0A031328290317031308000830F80096
:10030000000088118316881100008312B10D0811B6
:10031000031C8D298316081583120318922983164E
:1003200008118312831688158312881D9529F80BEE
:10033000802900008811831688110000081500002C
:10034000000088158312881DA329F80100000819F0
:1003500078148811831688118312081183160811E6
:10036000831208000B138B138B1BB32907308316E2
:100370009C00050885000330F700F70BBD291C0819
:1003800083120D131F1083161F149F141F159F1126
:100390000108C0398100831290010030F8009200FA
:1003A000FF3083169200831281018E018F018E012E
:1003B00091019412A112210883168700831221163D
:1003C0002108831687008312A11121088316870054
:1003D0000130831294000030831694000912F0302B
:1003E000831297059D058316811701308312A000A3
:1003F000A111210883168700831287112112210879
:100400008316870083120712A11221088316870022
:10041000831287122330B6000E20A8012808023C60
:10042000031C1A2A0330BD0023200530B6000E201D
:10043000A80A0E2A0230BD002320A8012808033C88
:10044000031C3D2AFC302807A9001F30AA0003180E
:10045000AA0A2A0803178F000313290803178D001F
:100460002B308400831301300313AC005220BA01F7
:100470002B08BB009320A80A1E2A043003178D0006
:1004800000308F0003132821A801BA014030BB00BF
:100490009320A8012808073C031C6A2AF430280787
:1004A000A9001F30AA000318AA0A2A0803178F0000
:1004B0000313290803178D002B30840083130130A8
:1004C0000313AC0052200130BA002B08BB0093206C
:1004D000A80A4A2ABA018030BB0093200130A80044
:1004E0006030A900831608150000881500008312EB
:1004F00008118316081100008312881183168811D1
:1005000090308312B1007E212808B1007E21290895
:10051000B1007E2183160811000088158312881D02
:100520008F2A0000932A00008316081500003C3033
:100530008312B6000E200430B6000130B700DC2074
:10054000053003178D0000308F0003132821013080
:10055000B6000230B700DC200B3003178D000030EE
:100560008F00031328210330B6000230B700DC20CF
:10057000B50101218A110A12462D0830B200770810
:10058000B30083160815000088158312881DC62A3B
:1005900008190314081D0310F80D000083168811B4
:1005A00083128811B20BC12A83160815000083122A
:1005B000081133080319DF2A83160811831200007B
:1005C000831688158312881DE32A0000881183167C
:1005D0008811000083120811831608118312080085
:1005E00035080319602BBD0039080319602BBD07BE
:1005F0000318012B7F30BD02031C602B0319602BF5
:10060000052B8130BD070318602B3D08F700F8016A
:10061000F901FA013608C100C1173708C0003808CF
:10062000BF001830BD00BE013F1C2E2B3C08FA074E
:10063000031C202BF90A031D202BF80A0319BE17EF
:100640003B08F907031C272BF80A0319BE173A08C1
:10065000B700B7173708F8070318BE17BE0DF80C18
:10066000F90CFA0CC10CC00CBF0C0310BD0B132B02
:100670000130F7070318602BF81B452BC10DFA0D4D
:10068000F90DF80DF7030319602BC11F562BFA0A59
:10069000031D562BF90A031D562BF80A031D562B72
:1006A000F80CF90CFA0CF70A0319602B3608BE0097
:1006B0003A08BE06BE1F5E2BF817642BF813642B96
:1006C000F701F801F901FA010800AB01AA01A9013B
:1006D000A801AC01AE01AD01AF01B0019030B10095
:1006E0007E212C08B1007E21831608150000881594
:1006F000000083120811831608110000831288116C
:100700008316881191308312B1007E210130F700E9
:10071000BD227808B000F701BD227808AF0083162B
:100720000811000088158312881D942B0000982B57
:10073000000083160815000083123008AE002F0851
:10074000AD002D08F8002E08F9007908AD007808F2
:10075000AC002D0CFA002C0CF900FA0CF90CFA0C78
:10076000F90CFA0CF90CFA0CF90C0730FA057908B7
:10077000AF007A08B0008E30F7003008F8002F087C
:10078000F900FA01F808031DCF2B7908F800F901E8
:100790000830F702F808031DCF2BF701D72B031001
:1007A000F81BD62BF90DF80DF703CF2BF8137A08A9
:1007B000AB007908AA007808A9007708A8002B08E0
:1007C000B8002A08B7002908B6002808B500BC01FF
:1007D000BB01BA017C30B900F0227A08AB0079087D
:1007E000AA007808A9007708A8002808F7002908B7
:1007F000F8002A08F9002B08FA008A110A12472D7E
:100800008318052C3D3084008313F701F801F901AA
:10081000FA01BD01BE01BF01C0013C083B043A041E
:1008200039040319432C2030C1000310B50DB60D57
:10083000B70DB80DBD0DBE0DBF0DC00D3C0840027B
:10084000031D2C2C3B083F02031D2C2C3A083E02B2
:10085000031D2C2C39083D02031C3D2C3908BD0218
:100860003A08031C3A0FBE023B08031C3B0FBF02B1
:100870003C08031C3C0FC0020314F70DF80DF90DE2
:10088000FA0DC10B152C3D088000840A3E0880003B
:10089000840A3F088000840A400880000800040899
:1008A000AD002C08AF0003196E2C2B08B8002A08E5
:1008B000B7002908B6002808B500BC01BB012030EC
:1008C000BA008230B900F0227A08AB007908AA0099
:1008D0007808A9007708A800AF0B552C2B08B800A2
:1008E0002A08B7002908B6002808B5003508B63C24
:1008F000B500FA013608B900B6170310B60CB70CEC
:10090000B80CFA0CF90CF80CF70CB50B7D2CB91FD0
:10091000942CF709F809F909FA09F70A0319F80AF2
:100920000319F90A0319FA0A7A08AB007908AA0030
:100930007808A9007708A800AB1FAB2CAD03AD1653
:10094000A809A909AA09AB09A80A0319A90A031940
:10095000AA0A0319AB0A3B30B4009A30B300CA307C
:10096000B200B1010A30AF002C080319AD0A83149C
:100970002830840083132B08B8002A08B700290800
:10098000B6002808B5003408BC003308BB003208A4
:10099000BA003108B90000247808F708031DE32CD9
:1009A0002C0A2F020319E32C2D080319E52C0F390B
:1009B0002F020319DD2C0318152DAD1B152D2D1B32
:1009C000E52C2030112D2030AD05AD1EF32CAD12DD
:1009D0002C08031DAD037708AD002D30B5000121B3
:1009E0002D08F700AD012C082F02031D012D7708FB
:1009F000AD002E30B50001212D08F7002030AD05E7
:100A000000303030AD1E112DAD122C08031DAD038A
:100A10007708AD002D30B50001212D08F700AD019C
:100A20003030F7077708B500012183103408B8008B
:100A30003308B7003208B6003108B500BC01BB016D
:100A4000BA010A30B90000247A08B4007908B3006A
:100A50007808B2007708B100AF0BB72C8A110A12E0
:100A6000642D03081F398300FF30A100A301A201F8
:100A700083161F149F141F159F1107309C008313AA
:100A80008312A701A601A501A401B229652B7A084A
:100A9000A7007908A6007808A5007708A4000A3006
:100AA000B6000230B700DC202030B50001218930CB
:100AB00084002708AB002608AA002508A9002408FE
:100AC000A8000330AC004F2C0330A800C830B6009B
:0A0AD0000E20A80B662D462D6300D2
:083FE8000634093409340634E3
:103FF000003400340034003428340C3401340634E6
:02400E00711E21
:00000001FF
;PIC16F877A
;CRC=E0A6  CREATED="29-Nov-19 08:58"
