:1000000006308A00492E0000FF00030E8301A50080
:100010007F08A4000A08AB008A01A40E0408A60009
:100020002008A7002108A8002208A9002308AA0088
:10003000831383128C308400001C20280C1837286E
:100040008C308400001D26280C19392826088400CD
:100050002708A0002808A1002908A2002A08A30058
:100060002B088A00250E8300FF0E7F0E09008A11DF
:1000700081288A1143280A108A100A11820728341D
:100080000C3401340634B601B5011608B400150865
:10009000B300A201A3012E08E0002D08DF00DD015E
:1000A000DE012F08DD023008031C300FDE023108AC
:1000B000031C310FDF023208031C320FE002330849
:1000C0005D07B7005E08B80034080318340FB8079E
:1000D0005F08B90035080318350FB9076008BA0082
:1000E00036080318360FBA073608B2003508B100D3
:1000F0003408B0003308AF00AE01AD010C118A1115
:1001000026280130AD070318AE0A0C108A112628E4
:100110004937F432EE39693AF917CC2A581D0000F4
:10012000253320102010201020005130840083132C
:1001300000080319A9280330A100A001A00B9E28E4
:10014000A10B9D283C30A000A00BA428A728800B61
:100150009B280800570EF039A0000F300605200438
:10016000860000000614B428B52800000610080018
:100170008610F030831686008312061500000614E0
:1001800000000608060E0F39D700061000000614FE
:10019000C9280608060E0F39D6000610003083164F
:1001A00086008312570EA000F030A00520085604E8
:1001B000A1002108D600D61BB928541C861054185B
:1001C00086140000061100000610550ED6000F30F0
:1001D000D6055608D700AA2055080F39D600D700F3
:1001E000AA2008000B138B138B1BF32894011F10FC
:1001F000073083169C000508850008308312A00094
:10020000A00B002983161C0883120D1383161F14DC
:100210009F141F159F11831281018F018E0191017F
:1002200083160108C03981008530831290000030A8
:10023000A1009200FF3083169200831297010730CD
:100240009700C0308B0483160C140C150030860008
:1002500083128610061106100F30D1009520013050
:10026000C3004308033C031C3D290330D700AA20E8
:100270000530D1009520C30A31290230D700AA20C9
:10028000C3014308033C031C4E2943083B20C40020
:10029000D4014408D500B820C30A41298A116C2E24
:1002A00001305202FC3E03186329043E6B29803062
:1002B000D3006329C030D30063299430D30063296D
:1002C000D430D300632901305102D307D40153083D
:1002D000D500B82008000A148A100A11820757298D
:1002E0005A295D29602950080C3A03197E29063ADB
:1002F00003198829023A03198F299429D40101305E
:10030000D500B8200130AC000230D10095209A29E8
:10031000AC0A0130D1002C08D20050219A29D40116
:100320001030D500B8209A290130D4005008D500EB
:10033000B8209A2908000B08C3008B1383160317F3
:100340008C170C140000000083120C087F3903196D
:10035000E2290313C40003170D080313C500031794
:100360000F080313C6004408D00073214508031783
:100370008D000313460803178F0083168C170C1487
:100380000000000083120C0D0E0D7F390319E229C5
:100390000313C40003170D080313C50003170F0848
:1003A0000313C6004408D0007321450803178D00CD
:1003B0000313460803178F008D0A03198F0A0313CE
:1003C0009E2903170313C31B8B178A11772EB63090
:1003D000A000A301A201A10143084404450446046E
:1003E000031DF429A001012A0310A11B002AC30D3B
:1003F000C40DC50DC60DA30DA20DA10DA00BF429B2
:10040000A1138A11802E43080319C82ACF00470878
:100410000319C82ACF02031C122A7F30CF07031802
:10042000C82A182A8130CF02031CC82A0319C82AF7
:100430004F08A000A101A201A301CE014408CD00F4
:10044000CD174508CC004608CB001930CF004A082C
:10045000CB0203183B2A0130CC0203183B2ACD0201
:1004600003183B2ACE0203183B2ACE0ACD0ACC0A37
:100470004A08CB076D2A4908CC020318562A0130D6
:10048000CD020318562ACE020318562ACE0ACD0AE8
:100490004908CC074A08CB07031C6D2ACC0A031D68
:1004A0006D2ACD0A031D6D2ACE0A6D2A48088038B0
:1004B000CD0203186C2A0130CE0203186C2ACE0A32
:1004C00048088038CD074908CC07031C4A2ACD0AC2
:1004D000031D4A2ACE0A4A2A2314CF0B702A7B2AEC
:1004E0000310CB0DCC0DCD0DCE0D0310A30DA20D21
:1004F000A10DD00D272A501C832A0310A10CA20C99
:10050000A30CD00C862AA0030319C82AD01BAF2A3B
:100510000310CB0DCC0DCD0DCE0D4A08CB02031828
:100520009B2A0130CC0203189B2ACD0203189B2A78
:10053000CE02031CBE2A4908CC020318A62A0130A9
:10054000CD020318A62ACE02031CBE2A4808803812
:10055000CD020318AF2A0130CE02031CBE2AA30A23
:10056000031DBE2AA20A031DBE2AA10A031DBE2A1C
:10057000A00A0319C82AA10CA20CA30C4408CF009E
:100580004808CF06CF1FC62AA117CC2AA113CC2A10
:10059000A001A101A201A30108004408CB00480862
:1005A000CB06CB1FD82A03110310C41B03140B2B3B
:1005B0004408CB004708CC004308CC020319E62AC4
:1005C000CB1F0B2B0308013A83000B2B4808CC00F0
:1005D0004408CC020319F22ACB1F0B2B0308013A63
:1005E00083000B2B4908CC004508CC020319FE2AD6
:1005F000CB1F0B2B0308013A83000B2B4A08CC00BE
:100600004608CC0203190A2BCB1F0B2B0308013A17
:1006100083000B2B03108A11A72E80308318CC0681
:10062000D101D2014808D0004C08D0064708031970
:10063000FD2BCF00A0004B080319062CCF02031995
:10064000A22B031C602B4C08D500D5174D08D400F5
:100650004E08D300D2010310D50CD40CD30CD20C0D
:10066000CF0B2A2BD01F372B51141A2C51104F109F
:1006700051164A30840083132F2C5112D01B4A2B61
:100680004F1C552BD50CD40CD30CD20CA00A03193B
:10069000152C552BD51B582B0310D20DD30DD40D73
:1006A000D50DA0030319152C4A2B5117C22B51133A
:1006B0004808D000D01F5E2BD5170E2CD5130E2C5A
:1006C0004B08CF00A0004708CF024808D500D51737
:1006D0004908D4004A08D300D2010310D50CD40C29
:1006E000D30CD20CCF0B6C2BD01F792BD1141A2C1E
:1006F000D1104F10D1164E30840083132F2CD112FD
:10070000D01B8C2B4F1C972BD50CD40CD30CD20C9C
:10071000A00A0319152C972BD51B9A2B0310D20D69
:10072000D30DD40DD50DA0030319152C8C2BD11787
:10073000C22BD1134C08D000D01FA02BD5170E2CE4
:10074000D5130E2C4C08D500D5174D08D4004E08F3
:10075000D300D01FAF2BD51351151A2C5111D20134
:100760004F104A30840083132F2CD01BD82B4808FD
:10077000D0004F1CC22BD50CD40CD30CD20CA00A29
:100780000319152CD21FD32BD30A031DD32BD40A44
:10079000031DD32BD50A031DD32BD50CD40CD30C9E
:1007A000A00A0319152C511B572BD11B992BF72B82
:1007B0008030D506D51FE02B1A2C4C08D000ED2B2D
:1007C0004808D000D508031DED2BD408031DED2BE0
:1007D000D308031DED2BA0010E2CD51BF72B031006
:1007E000D20DD30DD40DD50DA00BED2B152CD01F94
:1007F000FB2BD5170E2CD5130E2C4B08A0004C0844
:10080000D5004D08D4004E08D3000E2C4708A00098
:100810004808D5004908D4004A08D3005508A1006B
:100820005408A2005308A3004D2CA001A101A2016D
:10083000A3014D2CD201D309D409D509D209D20A7A
:10084000031D282CD30A031D282CD40A0319D50A0A
:100850005118362BD118782B5119AE2BDD2B0008EF
:10086000D307031C392CD40A031D392CD50A0319CC
:100870004F1484030008D407031C412CD50A031924
:100880004F1484030008801F803AD50703184F14C3
:10089000511A3D2BD11A7F2BB52B8A11D72E500818
:1008A0000319BF2CD80054080319BF2CD80703180C
:1008B000602C7F30D802031CBF2C0319BF2C642C82
:1008C0008130D8070318BF2C5808A000A101A2014D
:1008D000A3015108DC00DC175208DB005308DA00E2
:1008E0001830D800D9015A1C8D2C5708A307031CB7
:1008F0007F2CA20A031D7F2CA10A0319D9175608C1
:10090000A207031C862CA10A0319D9175508D20087
:10091000D2175208A1070318D917D90DA10CA20CA0
:10092000A30CDC0CDB0CDA0C0310D80B722C01309E
:10093000A0070318BF2CA11BA42CDC0DA30DA20D36
:10094000A10DA0030319BF2CDC1FB52CA30A031DA6
:10095000B52CA20A031DB52CA10A031DB52CA10CB0
:10096000A20CA30CA00A0319BF2C5108D9005508EA
:10097000D906D91FBD2CA117C32CA113C32CA001CC
:10098000A101A201A30108008318C92C58308400DA
:100990008313A001A101A201A301D801D901DA01A9
:1009A000DB0157085604550454040319072D203061
:1009B000DC000310D00DD10DD20DD30DD80DD90D03
:1009C000DA0DDB0D57085B02031DF02C56085A02A6
:1009D000031DF02C55085902031DF02C5408580231
:1009E000031C012D5408D8025508031C550FD902C9
:1009F0005608031C560FDA025708031C570FDB0278
:100A00000314A00DA10DA20DA30DDC0BD92C5808C9
:100A10008000840A59088000840A5A088000840AE9
:100A20005B08800008000408C8004708CA000319D2
:100A3000322D4608D3004508D2004408D1004308AF
:100A4000D000D701D6012030D5008230D4004F2409
:100A50002308C6002208C5002108C4002008C300DE
:100A6000CA0B192D4608D3004508D2004408D1000E
:100A70004308D0005008B63CD000A3015108D40070
:100A8000D1170310D10CD20CD30CA30CA20CA10CC7
:100A9000A00CD00B412DD41F582DA009A109A209EB
:100AA000A309A00A0319A10A0319A20A0319A30A98
:100AB0002308C6002208C5002108C4002008C3007E
:100AC000C61F6F2DC803C816C309C409C509C609C6
:100AD000C30A0319C40A0319C50A0319C60A3B301D
:100AE000CF009A30CE00CA30CD00CC010A30CA0007
:100AF00047080319C80A8314433084008313460847
:100B0000D3004508D2004408D1004308D0004F0864
:100B1000D7004E08D6004D08D5004C08D400C42498
:100B20002108A008031DA72D470A4A020319A72D73
:100B300048080319A92D0F394A020319A12D0318DA
:100B4000D92DC81BD92D481BA92D2030D52D2030DB
:100B5000C805C81EB72DC8124708031DC8032008C2
:100B6000C8002D30D00073214808A000C8014708F4
:100B70004A02031DC52D2008C8002E30D000732165
:100B80004808A0002030C80500303030C81ED52DE0
:100B9000C8124708031DC8032008C8002D30D00024
:100BA00073214808A000C8013030A0072008D000F9
:100BB000732183104F08D3004E08D2004D08D10096
:100BC0004C08D000D701D601D5010A30D400C42486
:100BD0002308CF002208CE002108CD002008CC0039
:100BE000CA0B7B2D8A11082F0B08C4008B138316A8
:100BF00003178C170C14000000000318262E831214
:100C00000C087F390313C50003170D080313C60032
:100C100003170F080313C7004508D00073214608C7
:100C200003178D000313470803178F0083168C17D3
:100C30000C140000000083120313C30B202E232E7C
:100C400083160317262E452E8316031783120C0DC9
:100C50000E0D7F390313C50003170D080313C600DB
:100C600003170F080313C7004508D0007321460877
:100C700003178D000313470803178F008D0A03190C
:100C80008F0A03100313C30BF72DC41B8B178A1194
:100C9000122F840183131F308305AE01AD01B20111
:100CA000B101B001AF01B601B501B401B301BA01A0
:100CB000B901B801B701BE01BD01BC01BB01C20150
:100CC000C101C001BF0183161F149F141F159F117E
:100CD00007309C008312F2280130D100D20050214D
:100CE000883003178D0000308F0003139B293A08CA
:100CF000C6003908C5003808C4003708C300E72912
:100D0000C6014030C5001C30C4008E30C30023082B
:100D1000CA002208C9002108C8002008C700032211
:100D20002308BE002208BD002108BC002008BB002B
:100D30003E08C6003D08C5003C08C4003B08C3008F
:100D4000CA01C9014030C8008030C700CD2A031C49
:100D5000AE2EC201C101C001BF01F62E3E08C60081
:100D60003D08C5003C08C4003B08C300CA01C901D6
:100D70001030C8008230C70003222008C3002108B9
:100D8000C4002208C5002308C60083142308CA0033
:100D90002208C9002108C8002008C700AB30CE00D7
:100DA000AA30CD002A30CC007D30CB000D2B23089B
:100DB000C2002208C1002108C0002008BF0042086C
:100DC000D3004108D2004008D1003F08D000D7012D
:100DD000D6014830D5008930D4004F242308C20002
:100DE0002208C1002108C0002008BF000630D10041
:100DF0000230D2005021893084004208C6004108E8
:100E0000C5004008C4003F08C3000230C700132DCE
:100E1000913003178D0000308F000310073003134B
:100E2000C300F42D0430C300FA30D1009520C30B69
:060E3000142F772E630071
:02400E00321E60
:00000001FF
;PIC16F873A
;CRC=230F  CREATED="09-Jul-12 23:18"
