:1000000002308A009F2A00000A108A100A11820713
:100010003F3406345B344F3466346D347D340734FA
:100020007F346F348316851283128516831605126A
:10003000831205160230A000A00B1C2800008316B6
:1000400085128312851208000830B000B101B00893
:1000500003194B2883160512831205120230A000E3
:10006000A00B302800002F1C3A288316851283121B
:1000700085163E2883168512831285128316051273
:10008000831205160230A000A00B442800000310C4
:10009000AF0CB00327288316051283120512023015
:1000A000A000A00B51280000831685168312B10111
:1000B000851AB10AB10803196128831685128312C3
:1000C00085120230A000A00B6328000083160512E1
:1000D000831205160230A000A00B6C2800008316C6
:1000E0000512831205120230A000A00B7528000033
:1000F0003108A10008008316051283120512023090
:10010000A000A00B8128000083168512831285129F
:100110000230A000A00B8A2800008316051283126B
:1001200005160230A000A00B93280000831685124C
:1001300083128516080012202E08AF0024207B2091
:1001400008002B0BAA282D08013A031DA928AC177B
:10015000AA28AC134430AE009B2012202B08033990
:10016000C038AE00AF0024202C08AF0024207B2034
:1001700008002E308400831300080319CC280230B5
:10018000A100A001A00BC228A10BC1289730A0009C
:10019000A00BC828800BBF2808000B138B138B1BE8
:1001A000CE28713083168F0090010F08073083121C
:1001B000990083160508850006308312A000A00B65
:1001C000DF28000019088C11F0309505831601080E
:1001D000C03981008312810190018E018F018E014F
:1001E0001830A1009200FF30831692008312910113
:1001F0008030831699001F169F161F1383129F17B6
:100200001F141F1383161F149F141F119F11851293
:100210008312851283160512831205128C30AE00EC
:100220009B200330A8002808803A7F3C03181F2930
:100230002808AB00AC01AD01A120A80313290A30A6
:10024000AE00B920B62A8030A900AD01AC01AB01E7
:10025000AA01280DA000A00DFC30A0051F08F3394D
:1002600020049F000A30AE00B920A90803195129C3
:100270009F149F1839299F183B2983161E08831243
:10028000A1002108AA071E0803181E0FAB070030A3
:1002900003180130AC07003003180130AD07A90383
:1002A0003529AD0CAC0CAB0CAA0CAD0CAC0CAB0CEA
:1002B000AA0CAD0CAC0CAB0CAA0CAD0CAC0CAB0C82
:1002C000AA0CAD0CAC0CAB0CAA0CAD0CAC0CAB0C72
:1002D000AA0CAD0CAC0CAB0CAA0C0130AD052A0875
:1002E000A1002B08A20008008E30A0002908A10060
:1002F0002808A200A301A108031D88292208A10043
:10030000A2010830A002A108031D8829A00190299C
:100310000310A11B8F29A20DA10DA0038829A113F1
:10032000DE2A28080319562AB4002C080319562A75
:10033000B402031CA0297F30B4070318562AA6294B
:100340008130B402031C562A0319562A3408A0002F
:10035000A101A201A301B3012908B200B2172A0822
:10036000B1002B08B0001930B4002F08B0020318F8
:10037000C9290130B1020318C929B2020318C929D9
:10038000B3020318C929B30AB20AB10A2F08B00789
:10039000FB292E08B1020318E4290130B202031828
:1003A000E429B3020318E429B30AB20A2E08B107FC
:1003B0002F08B007031CFB29B10A031DFB29B20A51
:1003C000031DFB29B30AFB292D088038B20203184C
:1003D000FA290130B3020318FA29B30A2D0880382C
:1003E000B2072E08B107031CD829B20A031DD82969
:1003F000B30AD8292314B40BFE29092A0310B00D1F
:10040000B10DB20DB30D0310A30DA20DA10DB50DCD
:10041000B529351C112A0310A10CA20CA30CB50C94
:10042000142AA0030319562AB51B3D2A0310B00D48
:10043000B10DB20DB30D2F08B0020318292A0130F7
:10044000B1020318292AB2020318292AB302031C95
:100450004C2A2E08B1020318342A0130B2020318C4
:10046000342AB302031C4C2A2D088038B202031828
:100470003D2A0130B302031C4C2AA30A031D4C2A57
:10048000A20A031D4C2AA10A031D4C2AA00A031923
:10049000562AA10CA20CA30C2908B4002D08B406FE
:1004A000B41F542AA1175A2AA1135A2AA001A10144
:1004B000A201A301EF2A8E30A0002808A00229087B
:1004C000A2002A08A100A217A0080319722A03108B
:1004D000A208031D6E2AA1080319722AA20CA10CFE
:1004E000A00B672AA91F792AA109A209A10A031949
:1004F000A20AF82AA101A201A001A3012D08031D4F
:10050000842A2C0803199E2A1030AE000310AA0D6D
:10051000AB0DA00DA30D2D082302031D912A2C085D
:100520002002031C9A2A2C08A002031CA3032D08F6
:10053000A3020314A10DA20DAE0B862A0800030826
:100540001F398300713083168F0090010F088312CA
:100550001F1383161F109F101F119F110730831246
:1005600099008313A501A701A601CD28A801232185
:100570002208A900220CA300210CA200A30CA20CAB
:10058000A30CA20CA30CA20CA30CA20CA30CA20CF7
:10059000A30CA20C2208A500250880380838A80062
:1005A000AE009B200130A80023212208A7002108CB
:1005B000A6002708A9002608A80074292308AB0074
:1005C0002208AA002108A9002008A8009E30AF0038
:1005D0002430AE001D30AD007E30AC0091292308E0
:1005E000AB002208AA002108A9002008A8005B2A65
:1005F0002208A7002108A6002708023C0318192B8F
:10060000FF3A031D072B2608E73C0318192BAB0103
:100610004030AC00AD01A1200130AB004030AC0057
:10062000AD01A1200230AB004030AC00AD01A120F3
:10063000682B2708AB002608AA00AD016430AC0087
:100640007A222208A9002108A8002208A300210874
:100650000420AA00AB012A08AC00AD01A1202708A4
:10066000AB002608AA00AD016430AC007A22200855
:10067000A8002308A900AB002008AA00AD010A3099
:10068000AC007A222208A9002108A8002208A300B1
:1006900021080420AA000130AB002A08AC00013078
:1006A000AD00A1202708AB002608AA00AD010A3042
:1006B000AC007A222008A8002308A900A300200883
:1006C0000420AA000230AB002A08AC00AD01A12032
:1006D0000330AB003930AC00AD01A1200330A800DD
:0E06E000C830AE00B920A80B702BB62A6300FC
:02400E00043B71
:00000001FF
;PIC12F683
;CRC=B2AF  CREATED="03-Apr-20 23:36"
