:1000000005308A00D12D00000A108A100A118207DB
:1000100028340C34013406340A108A100A1182077D
:100020000E340A340E34003400340034003400340A
:100030000A108A100A1182070C3400340A108A1040
:100040000A11820754346F342F3400340A108A1096
:100050000A118207543461342F3400340A108A1094
:100060000A11820743343A34003439308400831350
:100070000008031949280130F800F701F70B3E2862
:10008000F80B3D284A30F700F70B44284728800B2F
:100090003B2808003F0EF039F7000F3006057704C3
:1000A0008600000006145428061008008610F03060
:1000B0008316860083120615000006140000060849
:1000C000060E0F39BF0006100000061400000608D7
:1000D000060E0F39BE00061000308316860083120C
:1000E0003F0EF700F030F70577083E04F800780877
:1000F000BE00BE1B57283C1C86103C18861400000E
:100100000611000006103D0EBE000F30BE053E0871
:10011000BF004A203D080F39BE00BF004A2008003A
:1001200001303A02FC3E0318A228043EAA2880307F
:10013000BB00A228C030BB00A2289430BB00A2287C
:10014000D430BB0001303902BB07BC013B08BD0005
:10015000562008000A108A100A11820797289A2848
:100160009D28A02838080C3A0319BD28063A03191F
:10017000C728023A0319CE28D328BC010130BD009C
:1001800056200130A0000230B9003520D828A00A3E
:100190000130B9002008BA009020D828BC011030E6
:1001A000BD005620D8280130BC003808BD005620BC
:1001B00008000B138B138B1BDA2883168E15073060
:1001C00083129F008316050885000230F700F70BA5
:1001D000E728EA28000083121F080C138316010881
:1001E000C0398100831290010030F8009200FF3086
:1001F00083169200831281018E018F018E0191017D
:10020000F0309705003083168600831286100611A1
:1002100006100F30B90035200130AB002B08033C2D
:10022000031C1A290330BF004A200530B9003520CD
:10023000AB0A0E290230BF004A20AB012B08033C59
:10024000031C2B292B080420AC00BC012C08BD008A
:100250005620AB0A1E29AB012B08182000380319C1
:100260003529AB0AB800B2202C29AB01BC014030C3
:10027000BD0056202B08073C031C48292B080C20E6
:10028000AC000130BC002C08BD005620AB0A3A2956
:10029000BC018030BD0056200130B900BA0090206A
:1002A000AB012B081E20003803195A29AB0AB800ED
:1002B000B22051290130B9000230BA009020AB01C0
:1002C0002B082620003803196929AB0AB800B22090
:1002D00060290430B9000130BA009020B801B22082
:1002E0000430B9000230BA009020B801B2200530C5
:1002F000B9000130BA009020AB012B082E20003845
:1003000003198629AB0AB800B2207D290530B9004F
:100310000230BA009020AB012B082E2000380319C0
:100320009529AB0AB800B2208C29E52D0830F800D9
:10033000000085108316851000008312B80D05108B
:10034000031CA5298316051483120318AA298316F2
:1003500005108312831685148312851CAD29F80BB2
:1003600098290000851083168510000005140000F0
:10037000000085148312851CBB29F80100000518B4
:1003800078148510831685108312051083160510C6
:10039000831208000830B9007708BA0083160514E4
:1003A000000085148312851CD32905180314051C2D
:1003B0000310F80D00008316851083128510B90B09
:1003C000CE29831605140000831205103A0803197C
:1003D000EC298316051083120000831685148312FE
:1003E000851CF029000085108316851000008312FB
:1003F00005108316051083120800380803196D2AAA
:10040000C0003C0803196D2AC00703180E2A7F306C
:10041000C002031C6D2A03196D2A122A8130C007FD
:1004200003186D2A4008F700F801F901FA013908AC
:10043000C400C4173A08C3003B08C2001830C0000B
:10044000C101421C3B2A3F08FA07031C2D2AF90A66
:10045000031D2D2AF80A0319C1173E08F907031CCA
:10046000342AF80A0319C1173D08BA00BA173A0826
:10047000F8070318C117C10DF80CF90CFA0CC40CDD
:10048000C30CC20C0310C00B202A0130F70703185D
:100490006D2AF81B522AC40DFA0DF90DF80DF70359
:1004A00003196D2AC41F632AFA0A031D632AF90A75
:1004B000031D632AF80A031D632AF80CF90CFA0CD1
:1004C000F70A03196D2A3908C1003D08C106C11F8A
:1004D0006B2AF817712AF813712AF701F801F9014C
:1004E000FA01080080308318C106C601C7013D0823
:1004F000C5004108C5063C080319622BC400F7007B
:10050000400803196B2BC4020319072B031CC52ACF
:100510004108CA00CA174208C9004308C800C701F9
:100520000310CA0CC90CC80CC70CC40B8F2AC51FFA
:100530009C2A46147F2B4610441046163F308400F8
:100540008313942B4612C51BAF2A441CBA2ACA0C2B
:10055000C90CC80CC70CF70A03197A2BBA2ACA1B94
:10056000BD2A0310C70DC80DC90DCA0DF703031925
:100570007A2BAF2A4617272B46133D08C500C51F07
:10058000C32ACA17732BCA13732B4008C400F70081
:100590003C08C4023D08CA00CA173E08C9003F080B
:1005A000C800C7010310CA0CC90CC80CC70CC40B87
:1005B000D12AC51FDE2AC6147F2BC6104410C616CA
:1005C000433084008313942BC612C51BF12A441CAC
:1005D000FC2ACA0CC90CC80CC70CF70A03197A2BE1
:1005E000FC2ACA1BFF2A0310C70DC80DC90DCA0D6E
:1005F000F70303197A2BF12AC617272BC6134108D4
:10060000C500C51F052BCA17732BCA13732B4108CE
:10061000CA00CA174208C9004308C800C51F142BE6
:10062000CA1346157F2B4611C70144103F30840082
:100630008313942BC51B3D2B3D08C500441C272B61
:10064000CA0CC90CC80CC70CF70A03197A2BC71FB0
:10065000382BC80A031D382BC90A031D382BCA0AB8
:10066000031D382BCA0CC90CC80CF70A03197A2BC6
:10067000461BBC2AC61BFE2A5C2B8030CA06CA1F3A
:10068000452B7F2B4108C500522B3D08C500CA08E9
:10069000031D522BC908031D522BC808031D522BE2
:1006A000F701732BCA1B5C2B0310C70DC80DC90DB6
:1006B000CA0DF70B522B7A2BC51F602BCA17732B51
:1006C000CA13732B4008F7004108CA004208C9004A
:1006D0004308C800732B3C08F7003D08CA003E08D9
:1006E000C9003F08C8004A08F8004908F90048084E
:1006F000FA00B22BF701F801F901FA01B22BC70198
:10070000C809C909CA09C709C70A031D8D2BC80A28
:10071000031D8D2BC90A0319CA0A46189B2AC6183D
:10072000DD2A4619132B422B0008C807031C9E2BF9
:10073000C90A031D9E2BCA0A031944148403000826
:10074000C907031CA62BCA0A031944148403000812
:10075000801F803ACA0703184414461AA22AC61AF0
:10076000E42A1A2B0800AC01AD01AF01AE01B301C0
:10077000B201B101B001B701B601B501B4018316F0
:10078000051400008514000083120510831605105F
:1007900000008312851083168510B4308312B800D0
:1007A0009621F808031DFA2B2B08B8009621831612
:1007B00005140000851400008312851CDD2B051034
:1007C0008316051000008312851083168510B5303E
:1007D0008312B80096210130F700CA217808AD00D5
:1007E0000130F700CA21AF017808AE00F701CA2135
:1007F0007808AC0083160510000085148312851C50
:10080000FF2B0000032C0000831605140000831248
:10081000B9012D083907B0002E08B10000300318C7
:100820000130B107B201B301B308031D782CB2083F
:10083000031D782C31087F3C031C782C031D242CCD
:1008400030088A3C031C782C3308BB003208BA00FD
:100850003108B9003008B800B630F700FA01F901E4
:10086000F801380839043A043B04031D392CF70118
:10087000462C0310F81B452CB80DB90DBA0DBB0D55
:10088000FA0DF90DF80DF70B392CF8137A08BB00A7
:100890007908BA007808B9007708B8000A30BF00B4
:1008A000D730BE002330BD007930BC00FD217A086E
:1008B000BB007908BA007808B9007708B80083143B
:1008C0007A08BF007908BE007808BD007708BC0030
:1008D000C3018030C2000830C1008730C0007222DE
:1008E0007A08B7007908B6007808B5007708B40030
:1008F0003408F7003508F8003608F9003708FA0020
:1009000008008318862C403084008313F701F80117
:10091000F901FA01C001C101C201C3013F083E044F
:100920003D043C040319C42C2030C4000310B80D4E
:10093000B90DBA0DBB0DC00DC10DC20DC30D3F08E1
:100940004302031DAD2C3E084202031DAD2C3D08A1
:100950004102031DAD2C3C084002031CBE2C3C0888
:10096000C0023D08031C3D0FC1023E08031C3E0FA0
:10097000C2023F08031C3F0FC3020314F70DF80D1A
:10098000F90DFA0DC40B962C40088000840A41082A
:100990008000840A42088000840A4308800008001E
:1009A0000408B0002F08B2000319EF2C2E08BB007A
:1009B0002D08BA002C08B9002B08B800BF01BE01F1
:1009C0002030BD008230BC00FD217A08AE007908DD
:1009D000AD007808AC007708AB00B20BD62C7E30A7
:1009E000F700F801AC1BF817F901FA0183102E0883
:1009F000BF002D08BE002C08BD002B08BC007A08E3
:100A0000C3007908C2007808C1007708C0007222CC
:100A10007A08AE007908AD007808AC007708AB0022
:100A20002E08BB002D08BA002C08B9002B08B8000E
:100A30003808B63CB800FA013908BC00B9170310F1
:100A4000B90CBA0CBB0CFA0CF90CF80CF70CB80B7F
:100A50001F2DBC1F362DF709F809F909FA09F70A05
:100A60000319F80A0319F90A0319FA0A7A08AE00F9
:100A70007908AD007808AC007708AB00AE1F4D2DAB
:100A8000B003B016AB09AC09AD09AE09AB0A031946
:100A9000AC0A0319AD0A0319AE0A3B30B7009A300D
:100AA000B600CA30B500B4010A30B2002F080319ED
:100AB000B00A83142B30840083132E08BB002D084A
:100AC000BA002C08B9002B08B8003708BF00360858
:100AD000BE003508BD003408BC0081247808F70842
:100AE000031D852D2F0A32020319852D30080319A5
:100AF000872D0F39320203197F2D0318B72DB01B34
:100B0000B72D301B872D2030B32D2030B005B01EFF
:100B1000952DB0122F08031DB0037708B0002D30BB
:100B2000B800B2203008F700B0012F083202031DD0
:100B3000A32D7708B0002E30B800B2203008F7009F
:100B40002030B00500303030B01EB32DB0122F0869
:100B5000031DB0037708B0002D30B800B220300874
:100B6000F700B0013030F7077708B800B2208310E3
:100B70003708BB003608BA003508B9003408B80099
:100B8000BF01BE01BD010A30BC0081247A08B70054
:100B90007908B6007808B5007708B400B20B592D73
:100BA000080003081F39830083168E158312A201E3
:100BB000A10107309F008313A601A501A401A30191
:100BC000AA01A901A801A701D9280630AB00B323C7
:100BD0007A08AA007908A9007808A8007708A70071
:100BE0000730AB00B3237A08A6007908A50078087F
:100BF000A4007708A3000830B9000130BA009020A3
:100C0000023084002608AE002508AD002408AC00A0
:100C10002308AB000230AF00D0242030B800B2204F
:100C20002030B800B2200830B9000230BA0090205D
:100C3000023084002A08AE002908AD002808AC0064
:100C40002708AB000230AF00D0242030B800B2201B
:100C50002030B800B2200230AB00F530B9003520AA
:080C6000AB0B2D2EE52D630006
:02400E00501E42
:00000001FF
;PIC16F628A
;CRC=4C63  CREATED="17-Dec-14 23:55"
