:1000000001308A00442900000A108A100A11820770
:100010000134003402340034043400340834003431
:100020001034003420340034403400348034003440
:100030000034013400340234003404340034083411
:100040002330840083130008031934280330F80098
:10005000F701F70B2928F80B28283C30F700F70B9D
:100060002F283228800B262808000B138B138B1B9C
:100070003628031787018801890103131F1083168F
:1000800003170908C039890003131F129F1200309B
:1000900003178800031385009501831203170510C9
:1000A00003139001F8009200FF3083169200F030A5
:1000B000831297059D059412A012200883168700CD
:1000C000831220162008831687008312A0112008AF
:1000D0008316870001308312940000308316940049
:1000E000831281018F018E019101A0008316870187
:1000F000831287010230A200FA30A3002020A20B55
:100100007C288A110A125C29A70120142008831672
:1001100087008312071C8528201420088316870077
:100120008312071C9A282930F700F70B9528000046
:10013000A70A8C282708233C0318A62827082C3C4C
:10014000031CA6283130F800C028C02827080F3C1F
:100150000318B2282708183C031CB2283030F800D6
:10016000C028C0282708053C0318BE2827080D3CD6
:10017000031CBE285330F800C028C0284530F800C2
:100180000800A201A301A401A601A501842078080A
:10019000533C031DC62884207808A2002208533C43
:1001A000031DD62884207808A200CE28A01020089D
:1001B00083168700831287142208313A0319EA282C
:1001C000013A0319FC28753A0319FE28163A031957
:1001D000FE2802292308A30AF7000310F70D770869
:1001E000A700770A0420FA0027080420A5077A0848
:1001F00003187A0FA6070229A30A0229FF30F80084
:10020000F900412923080C3C031D3D29A3012308C3
:10021000073C031C22292608A8002508A70023085C
:10022000F700031918290310A80CA70CF70B1329C2
:1002300027080139F700FA0177087A04031DA40A98
:10024000A30A07292608A700A80127080F39F700E5
:10025000FA0177082402031D3929FA08031D3929F8
:100260002508F700FA017708F8007A08F900412913
:100270003D29FF30F800F900412984207808A200C8
:10028000D6288A110A125D29840183131F30830541
:10029000FF30A000831603170908C0398900031333
:1002A0001F129F12003003178800831287018801F4
:1002B00089010313A1013528C1287808A10021086C
:1002C000FF3C03199C292108093C031D6E292012BB
:1002D0002008831687001030831287062108123CFD
:1002E000031D7929A012200883168700203083126D
:1002F000870621081B3C031D842920132008831630
:1003000087004030831287062108243C031D8F2973
:10031000A0132008831687008030831287060330DD
:10032000A200C830A3002020A20B9129A010200811
:0C03300083168700831287105C2963008D
:04400E00222BFF3F23
:00000001FF
;PIC16F887
;CRC=D45E  CREATED="13-Mar-13 10:17"
