:1000000001308A0035290000243084008313000861
:10001000031918280330F800F701F70B0D28F80B27
:100020000C283C30F700F70B13281628800B0A2801
:1000300008000B138B138B1B1A28031787018801E9
:10004000890103131F10831603170908C03989009B
:1000500003131F129F12003003178800031385003B
:10006000950183120317051003139001F800920005
:10007000FF3083169200F030831297059D0594128D
:10008000A0122008831687008312201620088316EA
:1000900087008312A0112008831687000130831285
:1000A0009400003083169400831281018F018E0129
:1000B0009101A00083168701831287010230A100FD
:1000C000FA30A4000420A10B60288A110A124C29DE
:1000D0000630A502031C7828253084008313031002
:1000E000800C00080319782876287628800B75285C
:1000F0000800A201A3012830A4000420A0102008B9
:100100008316870083128714A2012208073C031C70
:1001100099282108F7002208F800031993280310F2
:10012000F70CF80B8F2877080139031DA30AA20AE0
:100130008528A01020088316870083128710A2014B
:1001400022080F3C031CC728A01020088316870034
:10015000023083128706201020088316870083123E
:1001600007140230A400F930A5006820A40BB328BE
:100170002010200883168700831207100230A40085
:10018000F930A5006820A40BC028A20AA028A2016B
:100190002208073C031CF928A010200883168700BA
:1001A00002308312870620102008831687008312EE
:1001B00007142108F7002208F8000319E3280310A8
:1001C000F70CF80BDF28770801390319EB28023008
:1001D000A4000420EE280130A400042020102008F0
:1001E00083168700831207100130A4000420A20A9E
:1001F000C828A2012208033C031C2B29A0102008B8
:100200008316870002308312870620102008831689
:100210008700831207142308F7002208F800031947
:1002200015290310F70CF80B112977080139031968
:100230001D290230A400042020290130A40004203C
:100240002010200883168700831207100130A400B5
:100250000420A20AFA280330A4000420A0102008D9
:1002600083168700831287100800840183131F30D0
:100270008305FF30A000831603170908C0398900E1
:1002800003131F129F120030031788008312870187
:100290008801890103131928831605148312051C8C
:1002A00054290930A1007920831685148312851CF6
:1002B0005C291230A1007920831605158312051DD3
:1002C00064291B30A1007920831685158312851DB2
:0C02D0006C292430A10079204C29630027
:04400E00222BFF3F23
:00000001FF
;PIC16F886
;CRC=A4E9  CREATED="10-Mar-13 17:12"
